:020000040800F2
:10000000481000209D010008DF3F0008EB32000887
:10001000DD3F00089D0E0008354C00080000000080
:10002000000000000000000000000000B7410008D0
:10003000D91000080000000019400008B5010008B0
:10004000B7010008B7010008B7010008B7010008B0
:10005000B7010008B7010008B7010008B7010008A0
:10006000B7010008B7010008B7010008B701000890
:10007000B7010008B7010008F10F0008FD0F0008E4
:10008000B7010008B7010008B7010008054C0008D7
:10009000B7010008B7010008B7010008B701000860
:1000A000B701000839430008B7010008B70100088C
:1000B000B70100080000000000000000B7010008C0
:1000C000B7010008B7010008B701000800000000F0
:1000D000B7010008B94B0008B7010008B7010008D4
:1000E000B7010008B7010008B701000800000000D0
:1000F0000000000000000000000000000000000000
:10010000000000000000000000000000B70100082F
:10011000000000000000000055430008000000003F
:1001200000000000000000000000000000000000CF
:1001300000000000000000000000000000000000BF
:10014000B7010008B701000800000000000000002F
:10015000000000000000000000000000000000009F
:10016000B7010008B7010008B7010008B70100088F
:10017000B7010008000000000000000000000000BF
:1001800000000000B7010008DFF80CD000F096FB7B
:1001900000480047515C000848100020064880478E
:1001A00006480047FEE7FEE7FEE7FEE7FEE7FEE75C
:1001B000FEE7FEE7FEE7FEE7D142000889010008FE
:1001C00001804280436070472DE9F04F0288476804
:1001D000B0F802804888D1F8049082B04FF0000A4D
:1001E0001646824207BF098888456FF0020002B0B8
:1001F00018BFBDE8F08F4FEA980B02EB4200019068
:10020000C8F34000CDF8000009EB8A01BBF1000FF4
:1002100033D0019801EB820C01EB80043B46E646AB
:1002200001EBC2054FEA0B0093ED000A401E81ED81
:10023000000A93ED010A01EB02118CED000A93ED27
:10024000020A0CEB021C85ED000A93ED030A05EB94
:10025000021584ED000A04EB021403F11003E3D14C
:100260000EEB820000EB820000EB8201ABF101009B
:10027000504307EB0B1701EB001118F0030C21D0D2
:100280003B1FA1EB82011CF0010F06D093ED010A88
:1002900001EB82011B1D81ED000A009880B100BFB7
:1002A00093ED010A01EB820401EBC20184ED000A27
:1002B00093ED020A401E81ED000A03F10803EFD11D
:1002C00007EB8C070AF101001FFA80FA701E060482
:1002D000360C99D102B00020BDE8F08F202A04DB53
:1002E000203A21FA02F00021704721FA02F3D040AF
:1002F000C2F120029140084319467047D2B201E092
:1003000000F8012B491EFBD270470022F6E710B51A
:1003100013460A4604461946FFF7F0FF204610BD73
:100320002DE9FE4F804681EA0300C00F0C46009085
:1003300021F0004123F00045B8EB0200A94105D2AD
:100340004046214690461C460B46024623F000409C
:10035000104347D0270DC7F30A00C3F30A51029098
:10036000401A019040286BDAC3F3130040F4801B5D
:100370000098924620B10023D2EB030A63EB0B0BEB
:1003800001985946C0F14002504600F091F90646E6
:100390000D4650465946019A00F099F910EB0800B5
:1003A0006141002487EA115284EAE7731A4340D07E
:1003B000009A62B3019A012A4FEA075215DC001B2A
:1003C00061EB02014FF0004202EA0752CDE9004220
:1003D000001C41F5801132462B4600F0D0F903B0E5
:1003E000BDE8F08F40462146F9E7001B61EB0201B2
:1003F000001C41F5801300185B412018A2F500177E
:1004000047EB030140EAD570B6196D4111E06D0864
:100410004FEA360645EAC0754FEA0752001B61EB0A
:100420000201001C41F5801149084FEA3000001913
:10043000514132462B4603B0BDE8F04F00F090B971
:100440000098012240000023D0EB020263EBE0732E
:10045000009821464FEAE074B8EB000061EB04011C
:10046000E9E783F000435BE781F0004158E72DE9BD
:10047000FE4F81EA030404F0004421F0004100949F
:100480004FF0000B23F0004350EA01045ED052EA23
:1004900003045BD0C3F30A54C1F30A552C44A4F2FD
:1004A000F3340194A0FB0254C1F3130141F4801111
:1004B000C3F3130343F4801301FB024400FB034E18
:1004C000840A970A44EA815447EA8357A4FB0768E1
:1004D00002958D0A05FB07854FEA932C04FB0C540B
:1004E0002705029D4FEA065847EA1637B5EB08057F
:1004F0006EEB070C870E920E47EA811742EA8312D1
:10050000A7FB0201B6EB0B0164EB00042B0D43EAE1
:100510000C335E1844EB1C50DA465146E7FB0201EF
:10052000C5F313044FEA0B3343EA14534FEA043282
:10053000019C43EA0603A4F10C040294009CCDE95B
:1005400000B400F01CF903B0BDE8F08F00200146B4
:10055000F9E72DE9F04D81EA030404F0004B21F0A6
:10056000004514464FF0000A23F0004150EA05020E
:1005700020D054EA01021DD0C5F30A570246C5F344
:100580001303C1F31300C1F30A5640F4801543F47A
:100590008013A7EB0608101BD64608F2FD3873EB54
:1005A000050002D308F1010801E092185B41B8F19F
:1005B000000F03DA00200146BDE8F08D00204FF463
:1005C0008011064684460EE0171B73EB050705D322
:1005D000121B63EB050306434CEA010C49084FEA82
:1005E000300092185B4150EA0107EDD152EA030056
:1005F00012D082EA040083EA0501084305D0101BEB
:10060000AB4106D20122002306E000224FF0004356
:1006100002E06FF0010253101AEB06004CEB085198
:1006200010EB0A0041EB0B01BDE8F04D00F098B86B
:100630000EB5C10F80EAE0700844CA07002140F2FD
:1006400033438DE80E000A460B4600F098F803B0DD
:1006500000BD00F0004230F000400AD0C10D01F5AD
:100660006071C0F3160042EA0151C208400711430D
:10067000704700200146704701F0004330B421F07C
:10068000004150EA010206D00A0DA2F56072C1F3E2
:100690001301002A02DC30BC00207047440F44EAFA
:1006A000C104C100E01830BC00EBC25000F021B81A
:1006B000202A04DB203A00FA02F100207047914022
:1006C000C2F1200320FA03F3194390407047202A17
:1006D00006DBCB17203A41FA02F043EAE07306E06A
:1006E00041FA02F3D040C2F120029140084319467A
:1006F00070470029A8BF7047401C490008BF20F080
:100700000100704710B4B0FA80FC00FA0CF050EA17
:10071000010404BF10BC704749B1CCF1200421FA98
:1007200004F411FA0CF118BF012121430843A3EB93
:100730000C01CB1D4FEA00614FEA102042BF0020A0
:1007400010BC704700EBC35010440029A4BF10BC7C
:100750007047401C490008BF20F0010010BC7047E2
:1007600010B5141E73F1000408DA401C41F10001B9
:1007700092185B411A4301D120F0010010BD2DE910
:10078000F04D92469B4611B1B1FA81F202E0B0FA07
:1007900080F220329046FFF78BFF04460F4640EA76
:1007A0000A0041EA0B0153465A46084313D011464A
:1007B00053EA010019D0C8F140025046FFF78EFD00
:1007C00005460E46504659464246FFF771FF08431C
:1007D00005D0012004E020463946BDE8F08D002018
:1007E000054346EAE0762C4337430A986305E40A5A
:1007F000A0EB08000022FD0A44EA47540A3002D563
:1008000000200146E9E7010510196941DDE90845C5
:1008100000196941BDE8F04DA2E72DE9F04D002334
:100820001A461B1A8A4103DB00200146BDE8F08D01
:10083000C1F30A52C1F3130141F480154FF0000BCC
:10084000D10702D100186D41521E0027044640F224
:10085000FF11384601EB620A3E4680460246002000
:100860004FF48011FFF73AFDC2197141BB1846EBF6
:100870000100B4EB030C75EB000C04D3E41A65EB38
:10088000000517460E46241908F101006D41804607
:100890003428E3DDF91946EB0600091BA84103D211
:1008A0004FF0FF32134601E0002213461BEB070016
:1008B00046EB0A51BDE8F04DFFF752BF064C074D1D
:1008C00006E0E06840F0010394E807009847103420
:1008D000AC42F6D3FFF75CFC58620008786200086F
:1008E00070B58C1810F8015B15F0070301D110F8F2
:1008F000013B2A1106D110F8012B03E010F8016B1F
:1009000001F8016B5B1EF9D12B0705D40023521EA1
:100910000DD401F8013BFAE710F8013BCB1A921C09
:1009200003E013F8015B01F8015B521EF9D5A14207
:10093000D8D3002070BD000070B5684D68492DED1A
:10094000048BB5F9000000EE100A6648B8EEC00A44
:1009500003F072F9634A6249E43282ED000AB5F9A4
:10096000020000EE100AA2F1CC00B8EEC00A03F0BB
:1009700063F982ED010AB5F90400594900EE100A45
:100980005848B8EEC00A303003F056F9554982EDA8
:10099000020A783992ED000A01F1300003F04CF9B7
:1009A000504EB436A6F5967186ED000A92ED010A16
:1009B00001F1480003F040F986ED010AA6F59671B1
:1009C00092ED020A01F1600003F036F9464886ED27
:1009D000020AB0EE408A90ED000A4448444CD0ED43
:1009E000000A70EE600AB0EEE00A10EE100AB0F1F4
:1009F000804F1CDD10EE900AFFF72BFE9FED3D1B94
:100A000053EC112BFFF733FD9FED3C1B53EC112BE7
:100A1000FFF72DFD41EC190BE068FFF71AFE53ECD0
:100A2000192BFFF77DFCFFF727FEA06003E094ED94
:100A3000030A84ED020A94ED030A324A84ED020AA5
:100A4000D6ED000A94ED001A38EE400A254970EE02
:100A5000C10A6039C2ED000AD6ED010A94ED011A0F
:100A600070EEC10AC2ED010A82ED020AB5F9060074
:100A700000EE100A01F1A800B8EEC00A03F0DCF89D
:100A8000184BC433A3F5927183ED000AB5F9080041
:100A900000EE100A01F1C000B8EEC00A03F0CCF875
:100AA00083ED010AB5F90A000E4900EE100A60391B
:100AB00001F1D800B8EEC00A03F0BEF883ED020AD7
:100AC000D3ED000AC2ED040AD3ED010AC2ED050A16
:100AD00082ED060ABDEC048B70BD0000800500208D
:100AE000F40000205C070020280000202C000020DB
:100AF00050080020B81E85EB51B88E3F000000E082
:100B00004D6230407C0600203EB5012211024FF0BC
:100B1000904000F0A1FF012000F0CCFE04227D21D6
:100B2000012000F0A3F8372000F0C4FE00227C2151
:100B3000012000F09BF82F48D0E90112CDE9001206
:100B400000680290372000F0B5FE0021084600F052
:100B50005DF80F2817D100244FEA0D0505EB44007E
:100B600015F814104278002000F080F8012000F001
:100B7000A1FE641CE4B2042CF0D30021012000F09B
:100B800045F81E2801D000203EBD00240DF10805C7
:100B900005EB440015F814104278012000F066F8C7
:100BA000012000F087FE641CE4B2022CF0D3002187
:100BB000114802F09FF9B1EE041AF1EE040A9FED1C
:100BC0000F0A4FF448734FF47A7200210C4803F077
:100BD00017FA0C48F3EE0B0A90ED000A084805F0EE
:100BE000A1F8BCEEC00A084910EE100A0860012006
:100BF0003EBD00003C610008D80300200000C84250
:100C0000D809002028000020344801402DE9F04197
:100C100041F080044FF09046FF2710B1012822D107
:100C20000CE000222021304600F016FF47EA0420A5
:100C300003F018FA0122C5B2202111E04FF48078A8
:100C400000224146304600F007FF47EA042003F047
:100C500009FA4FF6FF7003F005FA050A0122414632
:100C6000304600F0F9FE2846BDE8F0812DE9F0415C
:100C70001546040001F07F064FF090474FF480784E
:100C80004FF0000210D04146384600F0E5FE45EA3C
:100C9000062003F0E7F94FF001023CB14146384627
:100CA000BDE8F04100F0D8BE2021EDE72021F6E7B5
:100CB0002DE9FF414FF0904600222021304600F000
:100CC000CBFE48F2FF2003F0CDF9ADF8000001247F
:100CD0006F464FF6FF75284603F0C4F927F8140055
:100CE000641CE4B2042CF6D301222021304600F02B
:100CF000B3FE4FF4807800224146304600F0ACFE4F
:100D000049F2FF2003F0AEF9002402AF284603F0B9
:100D1000A9F927F81400641CE4B2032CF6D30122CD
:100D20004146304600F098FEBDF80220BDF80000B4
:100D300002F47F41C0B201431148D2B20180BDF834
:100D4000041001F47F4313434380BDF80620C9B269
:100D500002F47F420A438280BDF808100A0242EA88
:100D60001121C180BDF80A100A0242EA1121018155
:100D7000BDF80C100A0242EA11214181BDE8FF8151
:100D80008005002070B54FF480754FF0904600222A
:100D90002946304600F060FE4AF2FF2003F062F977
:100DA0004FF6FF7003F05EF90446012229463046F3
:100DB00000F052FE200AC4F3421101EBC000B0F56E
:100DC000806F01D3A0F50060FFF732FC9FED081B98
:100DD00053EC112BFFF74BFB9FED071B53EC112B33
:100DE000FFF79EFAFFF748FC0549086070BD000058
:100DF000000000000000C03F00000000000037407D
:100E00002800002010B5FFF753FFFFF7BBFFFFF7E7
:100E100093FD1B48DFED190A90ED000A194804F014
:100E200081FFB5EEC00A1848F1EE10FA80ED010A14
:100E300003D29FED160A80ED010A154ABCEEC00AE6
:100E4000126810EE101A51631249002291ED020A45
:100E5000114980ED000AA1F1500000F03FF90E4960
:100E60000422A1F14C0000F039F90B49BDE8104013
:100E70000822A1F1480000F031B900000000204232
:100E800028000020D8090020E80000200000000011
:100E9000D803002064060020CC060020FEE70000F6
:100EA00010B50B48DFED0B0A2DED028B9FED0A8A82
:100EB000B0EE480A03F080F9B0EE480ABDEC028BB0
:100EC000F3EE0E0A0248BDE81040183003F074B982
:100ED000E40600200000484200007A449FED0A1A10
:100EE00080ED001A80ED051A80ED090AC0ED0A0AAE
:100EF000B7EE000A80ED070A80ED081A80ED0B0AB4
:100F000080ED011A70470000000000002DE9F0415B
:100F10000C46054601F10C03012202210C30FFF7BB
:100F20004FF904F114030122022105F11400FFF727
:100F300047F904F11C030122022105F11C00FFF70F
:100F40003FF9022205F1240004F17403114607461B
:100F5000FFF736F9022205F12C0004F18403114653
:100F60008046FFF72DF9022204F19403114605F1A2
:100F70004400FFF725F9022204F1A403114605F10C
:100F80004C00FFF71DF9022204F14403114605F15C
:100F90005400FFF715F9022204F12403114605F16C
:100FA0005C00FFF70DF9022204F13403114605F14C
:100FB0006400FFF705F9022205F1340004F154033F
:100FC00011460646FFF7FCF831463846FFF7FCF8B5
:100FD00004F16403022205F13C0011460446FFF7C8
:100FE000EFF821464046BDE8F041FFF7EDB80000BC
:100FF000014800F0ABBB0000CC040020014800F029
:10100000A5BB000088040020054A01681144142291
:10101000B1FBF2F1890001640249C163704700002D
:10102000F8FFFDBF0000024030B590F840500124A9
:10103000AC40C56B6C60046863604368102B036848
:1010400003D099600068C26030BD9A600068C160DA
:1010500030BD00000D490A6842F080720A600C49F8
:1010600000224A600B6843F001030B6009494FF40A
:101070007A734843B0FBF3F30749C1E90003054B1A
:10108000B0FBF3F0C1E9020270470000FCED00E0A4
:10109000001000E040420F00A800002010B50548F5
:1010A000002404210470044801F024FF4FF0804024
:1010B000846310BDF0000020580300204FF47A70C4
:1010C00010B5C1068863C82000F0F4FB0149012077
:1010D000087010BDF00000207047704703788B54F3
:1010E000114443784B7082788A70C078C87070471A
:1010F000F0B590F820500468A468012D05D0022DA9
:1011000003D0416A41F4802153E014F0406F01D1D3
:10111000E5004BD5C4F30164022C03D9416A41F4C4
:10112000000146E00125A5401D608D684FF4C073A5
:101130009DB1CE6835434E6845EAC605066803EBA7
:101140000417F5514FF4C275076805EB04150E69D5
:101150007E51097D012905D009E00E88CD6845EA58
:101160004655EBE701684E5946F480764E511179A9
:10117000D2F805504FF4C67641EA0525016806EB22
:1011800004168D511178D2F801204FF4C47541EA4C
:101190000221026805EB04155151006803EB0411AC
:1011A000425842F0010242500020F0BD416A41F431
:1011B000001141620120F0BD10B590F820300268A6
:1011C000012B07D0022B05D0416A41F480214162F6
:1011D000012010BDD2F8000240F00100C2F8000268
:1011E000087D00F01F0301209840D2F81C32834391
:1011F000C2F81C32CB69B3B9D2F80C328343C2F8BF
:101200000C328C894B6864F31F434C6902EBC404B5
:10121000C4F840320C890B6864F31F434C6902EB3D
:10122000C404C4F84432CB69012B16D1D2F80C3275
:101230000343C2F80C320C884B6864F31F434C69BB
:1012400002EBC404C4F840320C89CB6864F31F433A
:101250004C6902EBC404C4F844328B69002BD2F809
:1012600004320FD053EA0003C2F804320B69002B9A
:10127000D2F8143208D00343C2F81432096A0129A3
:1012800004D008E08343EFE78343F5E7D2F81C126C
:101290000143C2F81C12D2F8000220F00100C2F88B
:1012A0000002002010BD70470246002092F8201076
:1012B000012901D002290CD111688A68520100D598
:1012C00001208A68120100D5401C8968C90000D538
:1012D000401C70472DE9F05F054600680024466910
:1012E000D0F804908768D0F80CB0D0F810A0D0F8EF
:1012F0001880F10748D0F90714D001218160B807A0
:1013000003D5284600F0DFF90CE0780702D54FF44A
:10131000006407E0380702D54FF4805402E0284605
:1013200000F0D0F9F80516D529684FF48070886070
:10133000B80503D5284600F0C8F90CE0780502D5B9
:1013400044F4005407E0380502D544F4804402E038
:10135000284600F0B9F9F80316D529684FF4803013
:101360008860B80303D5284600F0B1F90CE0780393
:1013700002D544F4004407E0380302D544F4803435
:1013800002E0284600F0A2F9300707D55FEACB60FB
:1013900004D52968102044F40074C86070074FF029
:1013A000080707D55FEA0B7004D52868C760284690
:1013B00000F056F9B00706D52868C068800702D04B
:1013C000284600F04EF9700607D55FEACA6004D5DA
:1013D0002968102044F480640861B00607D55FEAEC
:1013E0000A7004D528680761284600F03BF9F0062A
:1013F00006D528680069800702D0284600F033F936
:10140000B00308D55FEAC96005D529681020486097
:10141000284600F029F9F00307D55FEA097004D5E2
:1014200028684760284600F053F9300446D55FEA43
:10143000497040D5F00504D55FEAC87001D044F08A
:101440000104B00504D55FEA887001D544F00204B8
:10145000700504D55FEA487001D544F004043005F6
:1014600029D518F0700F26D008F07000402815D04C
:1014700006DC102809D020280AD0302816D10AE02E
:1014800050280ED0602811D10EE044F008040DE081
:1014900044F010040AE044F0200407E044F0400463
:1014A00004E044F0800401E044F480742868816919
:1014B00021F070018161296804204860002C05D06A
:1014C000686A204368622846FFF7EDFEBDE8F09F9A
:1014D00070B5040003D094F8200010B104E001209E
:1014E00070BD204600F082F82068016821F00201FA
:1014F000016000F0B7FA0546052604E000F0B2FAF4
:10150000401B0A2811D8206840688007F6D420685C
:10151000016841F00101016000F0A4FA05460BE00A
:1015200000F0A0FA401B0A2806D9606A40F4003097
:10153000606284F82060D2E720684068C007EFD07E
:10154000207E0128206801683DD021F080010160E3
:10155000607E01282068016838D021F040010160D8
:10156000A07E01282068016833D021F020010160AD
:10157000E07E0128206801682ED041F01001016052
:10158000207F01282068016829D021F0080101602E
:10159000607F01282068016824D021F004010160E7
:1015A000D4E902010843D4E90412114308436168F5
:1015B000491E08432168C86100206062012084F848
:1015C0002000002070BD41F08001C0E741F04001E3
:1015D000C5E741F02001CAE721F01001CFE741F053
:1015E0000801D4E741F00401D9E7000010B586B046
:1015F000044614216846FEF788FE17492068884291
:1016000027D11648C16941F00071C161C16901F07B
:1016100000710591416941F40031416140696946B9
:1016200000F4003005904FF4C0500090022001906B
:10163000002002900320039009200490C00600F0CF
:101640004BF900221146132000F088FA132000F015
:1016500079FA06B010BD000000640040001002409E
:1016600070477047704770477047000070B5044678
:1016700090F82000012804D0606A40F400206062E5
:1016800018E0022084F820002068016821F00101A0
:10169000016000F0E7F905460EE000BF00F0E2F956
:1016A000401B0A2808D9606A40F4003060620520B7
:1016B00084F82000012070BD20684068C007EDD18B
:1016C000606270BD704770477047704770477047E1
:1016D000704701680A6822F00E020A6001680A6811
:1016E00022F001020A6090F84020C36B012101FA48
:1016F00002F25A6080F82110002180F8201008467C
:10170000704710B590F821100024022903D004215D
:101710008163012418E001680A6822F00E020A6061
:1017200001680A6822F001020A6090F84020C36B49
:10173000012101FA02F25A6080F82110002180F89C
:101740002010416B01B18847204610BDF0B4C16B39
:101750000D6801680C68066C042202FA06F32B423D
:101760000FD063070DD50B689B0603D40B6823F0DD
:1017700004030B6090F840108A40C16B4A60C16A54
:101780001BE0022303FA06F72F424FF0000C4FF044
:10179000010216D0A70714D50C68A40605D40C685E
:1017A00024F00A040C6080F8212090F840108B404F
:1017B000C16B4B6080F820C0816A002918D0F0BC52
:1017C00008470823B3402B4212D0230710D50B68DB
:1017D00023F00E030B6090F84010C36B02FA01F186
:1017E0005960826380F8212080F820C0016BE4E713
:1017F000F0BC704770B5040021D0022084F82100AD
:101800002268116843F6F0708143D4E9010318435C
:10181000D4E903352B43184363691843A36918437C
:10182000E3691843084310602046FFF7EDFB0020F2
:10183000A063012184F8211084F8200070BD0120EC
:1018400070BD70B5044690F82000002501280CD02A
:10185000012084F8200094F821600020012E06D099
:1018600084F820000225284670BD022070BD0226A3
:1018700084F82160A0632068066826F001060660EF
:101880002046FFF7D1FBE06A00282068016802D0FB
:1018900041F00E0106E041F00A0101602068016894
:1018A00021F0040101602068016841F0010101603C
:1018B000D9E7000070B5044600F0D4F80546601C76
:1018C00002D004480078044400F0CCF8401BA04249
:1018D000FAD370BD040000202DE9F84FDFF860B1A5
:1018E00000234FF0010C4FF0030A4FF00F090BF1EA
:1018F000040E9DE00CFA03F6344022007ED04C68C2
:10190000022C01D0122C0ED1DC0800EB8408D8F890
:1019100020405D07EF0E09FA07F5AC430D69BD40A5
:101920002543C8F8205007685D0091F804800AFA42
:1019300005F408F00308A74308FA05F848EA070881
:10194000C0F800804F68012F05D0022F03D0112F5F
:1019500001D0122F11D18768D1F80C80A74308FA63
:1019600005F848EA0708C0F808804768B7430E79C9
:10197000C6F300169E403E434660C668A6438C6888
:10198000AC403443C4604C68E40050D52D4CA5698C
:1019900045F00105A561A46923F0030504F00104E5
:1019A0000094294C2E19B4689D072F0F09FA07F5EA
:1019B000AC43B0F1904F04D0244DA84203D101258F
:1019C0000CE000250AE0224DA84201D1022505E0E5
:1019D000204DA84201D1032500E00525BD40254347
:1019E000B560DBF800405D464E689443F60300D5D1
:1019F00014432C607546DEF8004000E017E04E68A6
:101A00009443B60300D514432C600D4D08352C6863
:101A10004E689443F60200D514432C60084D0C35F3
:101A20002C684E689443B60200D514432C605B1CAE
:101A30000A681446DA407FF45DAFBDE8F88F000015
:101A40000004014000100240000001400004004872
:101A500000080048000C00480AB1816170478162AB
:101A600070470000014880687047000004000020B3
:101A700002488168027811448160704704000020A8
:101A8000074810B5016841F010010160032000F023
:101A900085F8002000F006F800F03EF8002010BDA8
:101AA0000020024000B5014687B00022362000F039
:101AB00055F8362000F046F81348C16941F010018E
:101AC000C161C06905A900F010000690684600F0E9
:101AD00013FA00F031FA0D494000B0FBF1F10D4866
:101AE0000B4A491E0260416040F2E7320021C0E922
:101AF0000321816000F066FF10B1012007B000BD36
:101B0000044800F0BDFFF9E70010024040420F001A
:101B10000010004010050020094808B5816941F017
:101B200001018161816901F001010091C16941F008
:101B30008051C161C06900F08050009008BD000074
:101B40000010024000F01F02012191404009800076
:101B500000F1E020C0F8001170470000F0B40E4B17
:101B60001B680C46C3F30223C3F10705042D00D9FB
:101B70000425191D072901D2002300E0DB1E0126E0
:101B800006FA05F1491E214099409E40761E1640F6
:101B90003143F0BC02F024BA0CED00E0064900F03D
:101BA000070208684FF6FF03184040EA0220034A84
:101BB00010430860704700000CED00E00000FA05DB
:101BC0002DE9F84F05460068774CC0036FD5E069F2
:101BD0000026C00008D4E06940F08050E061E06970
:101BE000012600F08050009070480168C90512D4A9
:101BF0000168804641F480710160FFF733FF0746BA
:101C000005E000BFFFF72EFFC01B642835D8D8F8C9
:101C10000000C005F6D5206A10F4407053D0A988A2
:101C200001F4407181424ED0206A4FF4803191FA24
:101C3000A1F2B2FA82F297005D4A4FF00108174410
:101C400020F44070C7F8008491FAA1F1B1FA81F153
:101C500002EB81010023C1F800342062C00732D0BA
:101C6000FFF700FF074641F2883A4FF0020907E00C
:101C7000FFF7F8FEC11B514502D90320BDE8F88FDC
:101C800099FAA9F1B1FA81F141F040014846B8EB67
:101C9000511F01D121680CE090FAA0F1B1FA81F155
:101CA00041F04001B0EB511F02D1216A01E015E083
:101CB000616A99FAA9F0B0FA80F000F01F0008FA02
:101CC00000F21142D4D0206A696820F440700843C1
:101CD00020621EB1E06920F08050E0612878C007E2
:101CE00005D0206BA96820F0030008432063287802
:101CF000800605D5206BE96820F0100008432063BA
:101D00002868800305D56068296B20F480000843AB
:101D100060602878400605D5206B296920F02000F6
:101D2000084320632888000405D5206B696920F0EA
:101D30004000084320632888800505D56068E9696C
:101D400020F40000084360602878000605D5E06AAA
:101D5000A96920F4F8700843E0622888C00405D51A
:101D6000206B296A20F480700843206328684003B0
:101D700005D5206B696A20F48060084320632868D9
:101D8000000305D5206BA96A20F400600843206396
:101D90002868C00205D5206BE96A20F4005008438A
:101DA000206300206AE7000000100240007000403D
:101DB000000042422DE9F0470F46050069D04A4E27
:101DC000306800F00700B84209D2306820F0070000
:101DD00038433060306800F00700B84259D12878A5
:101DE000424C800705D56068A96820F0F0000843E0
:101DF00060602878C0073DD06968012001290DD0B6
:101E0000022923D05FF0020393FAA3F2B2FA82F21E
:101E100042F02002520904D0226803E04FF400335C
:101E2000F2E7626A93FAA3F3B3FA83F303F01F03B2
:101E3000984002422DD0606820F0030008436060A3
:101E4000FFF710FE804641F288390CE04FF0007336
:101E5000DAE700BFFFF706FEA0EB0801494502D90B
:101E60000320BDE8F0876068696800F00C00B0EB03
:101E7000810FEFD1306800F00700B8420BD930680D
:101E800020F0070038433060306800F00700B842A7
:101E900001D00120E5E72878400705D56068E968AA
:101EA00020F4E060084360602878000706D5606889
:101EB000296920F4605040EAC100606000F06CF8CD
:101EC0006168F02292FAA2F201F0F001B2FA82F215
:101ED000D140074A515CC840064908600020FFF71E
:101EE000E1FD0020BDE7000000200240001002409C
:101EF00004610008000000200F2202600C4A5368B1
:101F000003F003034360536803F0F00383605368F6
:101F100003F4E063C36052684FF4E06303EAD20263
:101F200002610448006800F0070008607047000084
:101F30000010024000200240084809490068496832
:101F40004FF4E06292FAA2F201F4E061B2FA82F296
:101F5000D140044A515CC840704700000000002096
:101F600000100240146100080848094900684968E7
:101F70004FF4605292FAA2F201F46051B2FA82F286
:101F8000D140044A515CC840704700000000002066
:101F90000010024014610008154B10B55A6815482E
:101FA00002F00C01042902D0082901D0401010BD14
:101FB0004FF4701494FAA4F402F47011B4FA84F497
:101FC000E1400D4CDB6A615C0F2494FAA4F403F049
:101FD0000F03B4FA84F4E340074C1034D203E35CFB
:101FE00003D5B0FBF3F0484310BD0448484310BD8F
:101FF000001002400024F4001C61000800093D00AC
:102000002DE9F84F040071D02078FB4DC0074FF048
:10201000010625D068687704C0F38100012807D045
:102020006868C0F3810002281BD16868C00318D516
:1020300097FAA7F0B0FA80F040F02000400901D0F4
:10204000286800E0686A97FAA7F1B1FA81F101F017
:102050001F0106FA01F1084265D060680028D2D05D
:1020600061E06068B0F5803F0BD010B1B0F5A02FF3
:1020700017D0286820F480302860286820F4802059
:1020800002E0286840F480302860E86AA16820F007
:102090000F000843E862606820B3FFF7E3FC804666
:1020A0000AE0286840F480202860EAE7FFF7DAFCBD
:1020B000A0EB0800642872D897FAA7F0B0FA80F075
:1020C00040F02000400901D0286800E0686A97FAD3
:1020D000A7F1B1FA81F101F01F0106FA01F10842FE
:1020E000E4D020E0FFF7BEFC804607E0C7E000BF79
:1020F000FFF7B8FCA0EB08006428DCD897FAA7F03B
:10210000B0FA80F040F02000400901D0286800E0DB
:10211000686A97FAA7F1B1FA81F101F01F0106FA96
:1021200001F10842E4D12078DFF8D08280074FF037
:10213000000A4FF0020759D568684FF0F80B10F00D
:102140000C0F07D06868C0F3810002281BD16868B3
:10215000C00318D497FAA7F0B0FA80F040F020003E
:10216000400901D0286800E0686A97FAA7F1B1FA3F
:1021700081F101F01F0106FA01F108422BD020691C
:1021800001287CD127E0206988B396FAA6F0B0FA3E
:1021900080F048F82060FFF765FC814606E055E1D5
:1021A000FFF760FCA0EB0900022884D897FAA7F09B
:1021B000B0FA80F040F02000400901D0286800E02B
:1021C000686A97FAA7F1B1FA81F101F01F0106FAE6
:1021D00001F10842E4D028689BFAABF26169B2FAD7
:1021E00082F220F0F80091400843286025E0FFE7E4
:1021F00096FAA6F1B1FA81F148F821A0FFF732FC76
:10220000814605E0FFF72EFCA0EB09000228CCD8A0
:1022100097FAA7F0B0FA80F040F02000400901D012
:10222000286800E0686A97FAA7F1B1FA81F101F035
:102230001F0106FA01F10842E4D1207800076AD5AF
:10224000A069A0B396FAA6F0B0FA80F008EB80007F
:10225000C0F88064FFF706FC814605E0FFF702FC4A
:10226000A0EB09000228A0D897FAA7F0B0FA80F0F6
:1022700040F06000B6EB501F02D128680CE077E117
:1022800097FAA7F0B0FA80F040F06000B7EB501F6B
:1022900001D1286A00E0686A97FAA7F1B1FA81F1E2
:1022A00001F01F0106FA01F21042D7D033E0FFE738
:1022B00096FAA6F0B0FA80F008EB8000C0F880A48F
:1022C000FFF7D0FB814605E0FFF7CCFBA0EB090050
:1022D00002289CD897FAA7F0B0FA80F040F060008E
:1022E000B6EB501F01D128680BE097FAA7F0B0FABF
:1022F00080F040F06000B7EB501F01D1286A00E089
:10230000686A97FAA7F1B1FA81F101F01F0106FAA4
:1023100001F21042D8D12078400774D5E8694FF017
:102320000009C00009D4E86940F08050E861E8691C
:102330004FF0010900F08050009031480168C90554
:1023400012D4016841F480710160FFF78BFB834672
:1023500006E000BFFFF786FBA0EB0B00642875D8F2
:1023600027480068C005F5D5E06801280AD008B103
:10237000052811D0286A20F001002862286A20F080
:10238000040002E0286A40F001002862E068C8B357
:10239000FFF768FB83460DE0286A40F004002862DE
:1023A000F0E700BFFFF75EFBA0EB0B0141F28830C6
:1023B00081424BD897FAA7F0B0FA80F040F0400085
:1023C000B6EB501F01D128680BE097FAA7F0B0FADE
:1023D00080F040F04000B7EB501F01D1286A00E0C8
:1023E000686A97FAA7F1B1FA81F101F01F0106FAC4
:1023F00001F21042D6D035E0001002400000424207
:102400000070004000E034E0FFF72CFB834607E05B
:10241000FFF728FBA0EB0B0141F28830814215D871
:1024200097FAA7F0B0FA80F040F04000B6EB501FEA
:1024300001D128680CE097FAA7F0B0FA80F040F0DC
:102440004000B7EB501F02D1286A01E083E0686AC0
:1024500097FAA7F1B1FA81F101F01F0106FA01F232
:102460001042D5D1B9F1000F03D0E86920F08050B7
:10247000E861E06980B36968C1F38101022977D01E
:102480004FF080714F00022809D091FAA1F0B0FA04
:1024900080F048F820A0FFF7E5FA04465EE05046D9
:1024A0008A4691FAA1F1B1FA81F1C14648F82100BA
:1024B000FFF7D8FA804605E0FFF7D4FAA0EB080052
:1024C000022848D897FAA7F0B0FA80F040F0200030
:1024D000400902D0286801E056E0686A97FAA7F13F
:1024E000B1FA81F101F01F0106FA01F10842E3D1CE
:1024F000D4E908100843696821F47411084368603E
:102500009AFAAAF0B0FA80F049F82060FFF7AAFA28
:10251000044604E0FFF7A6FA001B02281BD897FA2E
:10252000A7F0B0FA80F040F02000400901D0286800
:1025300000E0686A97FAA7F1B1FA81F101F01F0192
:1025400006FA01F10842E5D01EE000BFFFF78AFA63
:10255000001B022802D90320BDE8F88F97FAA7F0E4
:10256000B0FA80F040F02000400902D0286801E075
:102570000CE0686A97FAA7F1B1FA81F101F01F0146
:1025800006FA01F10842E1D10020E5E70120E3E786
:102590002DE9F041040005D00025A56294F85D0006
:1025A00018B107E00120BDE8F08184F85C502046B6
:1025B00000F04AF8022384F85D302068016821F0B9
:1025C00040010160E0684FF4E066B04201D90021AB
:1025D00001E04FF48051B0F5706F02D0B04200D0EE
:1025E000A562276B012227B9B04201D9236300E01D
:1025F0002263D4E901031843D4E904363343184372
:10260000238B03F400731843E3691843236A1843C8
:10261000A36A184323681860636B606AA66918434D
:102620000427E36807EA1646334318430843216842
:1026300048602068C16921F40061C161256684F8A1
:102640005D200020AFE7000010B586B004461421DD
:102650006846FDF75AFE1249206888421ED111488B
:10266000C16941F40041C161C16901F400410591B2
:10267000416941F4802141614069694600F480204C
:102680000590382000900220019000200290032045
:102690000390062004900448FFF71EF906B010BD11
:1026A000003C004000100240000400482DE9F05FAB
:1026B000044690F85C0000260A9F994692460D4613
:1026C0004FF0010801280ED0012084F85C00FFF7CC
:1026D000C9F9834694F85D00616801280CD0B1F512
:1026E000827F07D102E00220BDE8F09FA16809B90E
:1026F000042801D00226F0E0002D79D0BAF1000FB5
:10270000FBD0B9F1000FF8D094F85D00042802D096
:10271000052084F85D0000202066C4F840A0A4F8DD
:102720004690A4F84490A563A4F83E90A4F83C9089
:10273000E0642065E0684FF4E061884203D8B4F8B3
:102740004600012804D92068426822F4805203E040
:102750002068426842F48052426020680268520653
:1027600003D4026842F040020260E0688842606878
:102770003FD910B1E08F012832D1216835F8020B22
:10278000C860E08F401EE0872AE000BFB8F1000F6C
:102790000DD0E08F58B120688168890707D535F8DA
:1027A000021BC160E08F401EE0874FF00008B4F8C4
:1027B000460068B120688168C90709D0C0682AF856
:1027C000020BB4F84600401EA4F846004FF0010882
:1027D000781C05D0FFF746F9A0EB0B00B84268D291
:1027E000E08F0028D2D1B4F846000028CED169E0AD
:1027F00072E010B1E08F01285DD1E08F012806D989
:10280000216835F8020BC860E08F801E05E0206863
:1028100015F8011B0173E08F401EE0874BE000BFFD
:10282000B8F1000F16D0E08FA0B120688168890749
:1028300010D5E18F012905D935F8021BC160E08F61
:10284000801E04E015F8011B0173E08F401EE08735
:102850004FF00008B4F8460018B320688168C90733
:102860001FD0B4F84610012911D9C0682AF8020B0C
:10287000B4F84600801EA4F84600B4F846000128CB
:102880000DD82068416841F48051416007E0017B28
:102890000AF8011BB4F84600401EA4F846004FF0A9
:1028A0000108781C07D0FFF7DDF8A0EB0B00B84259
:1028B00001D3032611E0E08F0028B1D1B4F846001F
:1028C0000028ADD15A463946204601F0A6FB08B192
:1028D00020202066206E00B10126012084F85D00D2
:1028E000002084F85C003046FEE670477047704771
:1028F00030B590F83C20012A3AD0012280F83C20E3
:10290000CA688C6822F4407222434C6822F48062C8
:1029100022430C6822F4006222430C6922F48052A4
:1029200022434C6922F4005222438C6A22F48042F2
:10293000224322F4004222430C8B22F4702242EA0A
:1029400004420C4D04680023AC420CD18D8C22F45F
:10295000700242EA0552CD6922F080722A43096A68
:1029600022F000720A43626480F83C30002030BDDF
:10297000022030BD002C014030B590F83C20012AE7
:102980001CD0012280F83C2003685A689C680C4DDA
:10299000AB4203D122F470054A682A4322F0700545
:1029A0000A6889682A4324F0800421435A60026837
:1029B0009160002180F83C10084630BD022030BDF7
:1029C000002C014010B5040003D094F83D0010B174
:1029D00007E0012010BD002084F83C00204600F0F4
:1029E0000DF8022084F83D00211D206801F0B8FC9C
:1029F000012084F83D00002010BD000008B51C4AED
:102A000001681C48914207D1816941F400618161EC
:102A1000806900F400600CE0B1F1804F14D0164AD8
:102A2000914219D1816941F400318161806900F4DA
:102A300000300022009011461920FFF78FF8BDE802
:102A400008401920FFF77EB8C16941F00101C1615A
:102A5000C06900F0010009E0084A914207D181698C
:102A600041F480218161806900F48020009008BDDC
:102A7000002C014000100240004401400048014089
:102A80000168CA6842F00102CA600068016841F04A
:102A9000010101600020704770B5044690F83C00C9
:102AA000012817D0012584F83C50022084F83D000D
:102AB00022689068364E304020F47F40906008686D
:102AC000502839D00DDC20285BD005DC98B31028C5
:102AD00043D153E0022070BD302855D040283CD16E
:102AE00041E0602830D070280CD0B0F5805F03D072
:102AF000B0F5005F31D112E020688168244A70325D
:102B0000114016E0CB68D1E90121206801F06FFC8B
:102B100021688868304040F0770088601DE0CB680D
:102B2000D1E90121206801F062FC2068816841F44C
:102B30008041816011E01EE0CA684968206801F0A8
:102B4000C9FD5021206806E0CA684968206801F084
:102B5000D2FD6021206801F054FC84F83D50002033
:102B600084F83C0070BDCA684968206801F0B2FD75
:102B700040212068EFE700212068ECE71021206861
:102B8000E9E720212068E6E730212068E3E700003C
:102B900088FFFEFF704770B50446006801694FF07A
:102BA0000005C943890715D4C168C943890711D4F1
:102BB000E91E016101202077206880698007204696
:102BC00002D0FFF7E7FF04E000F0E2F8204600F053
:102BD00090F9257720680169C943490717D4C1686E
:102BE000C943490713D46FF0040101610220207723
:102BF0002068806910F4407F204602D0FFF7CAFFAA
:102C000004E000F0C5F8204600F073F9257720684D
:102C10000169C943090716D4C168C943090712D419
:102C20006FF008010161042020772068C0698007E7
:102C3000204602D0FFF7AEFF04E000F0A9F82046DE
:102C400000F057F9257720680169C943C90617D4F0
:102C5000C168C943C90613D46FF01001016108208F
:102C600020772068C06910F4407F204602D0FFF72B
:102C700091FF04E000F08CF8204600F03AF9257747
:102C800020680169C943C90708D1C168C943C90798
:102C900004D1891E0161204600F052F920680169C3
:102CA000C943090609D4C168C943090605D46FF0B0
:102CB000800101612046FFF719FE20680169C943C0
:102CC000C90509D4C168C943090605D46FF48071E8
:102CD00001612046FFF709FE20680169C9434906E2
:102CE00009D4C168C943490605D46FF040010161A8
:102CF000204600F045F920680169C94389060BD4D4
:102D0000C168C943890607D46FF0200101612046DC
:102D1000BDE87040FFF7EBBD70BD000070B586B038
:102D2000044614216846FDF7F0FA25680023164989
:102D3000022201244FF09040B5F1804F14D0134E81
:102D4000B5420FD14D6945F400354D61496901F433
:102D50000031059180218DE80E00CDE903346946EC
:102D6000FEF7BAFD06B070BD4D6945F400354D6102
:102D70004969009201F4003105910321CDE9023146
:102D8000019204946946EBE70010024000480140BC
:102D9000704770B5044690F83C000D4601280ED0EF
:102DA000012684F83C60022084F83D000C2A45D0BE
:102DB00007DC5AB1042A1BD0082A78D12CE0022063
:102DC00070BD102A4ED0142A71D15DE0206801F048
:102DD00021FB2068816941F00801816120688169D7
:102DE00021F004018161206881692A69114311E0A1
:102DF000206801F053FB2068816941F40061816122
:102E00002068816921F480618161206881692A6973
:102E100041EA022181614AE0206801F07FFB2068DD
:102E2000C16941F00801C1612068C16921F0040154
:102E3000C1612068C1692A69114311E0206801F06D
:102E4000ADFB2068C16941F40061C1612068C169BE
:102E500021F48061C1612068C1692A6941EA0221C7
:102E6000C16124E0206801F0CFFB2068416D41F092
:102E7000080141652068416D21F004014165206829
:102E8000416D2A69114311E0206801F0EFFB2068D1
:102E9000416D41F4006141652068416D21F480611C
:102EA00041652068416D2A6941EA0221416584F843
:102EB0003D60002084F83C0070BD10B5040003D0D4
:102EC00094F83D0010B107E0012010BD002084F807
:102ED0003C00204600F00CF8022084F83D00211D43
:102EE000206801F03DFA012084F83D00002010BD6B
:102EF0007047704710B504460068012201F06CFA73
:102F00000B482168814208D00A48814205D00A480E
:102F1000814202D00948814203D1486C40F400400C
:102F200048642068016841F001010160002010BD83
:102F3000002C014000400140004401400048014095
:102F400010B5044600680B49884201D1FEF790FD98
:102F500009492068884205D1FDF754FFBDE81040BB
:102F600000F07EBD0549884203D1BDE8104002F063
:102F700031BE10BD00100040002C01400044014053
:102F80007047704710B5044690F8690021280ED1AB
:102F90002068816809060AD5816821F08001816076
:102FA000206E08B1FEF795FB204601F0B6FC94F8C0
:102FB0006A0022280ED12068816849060AD58168F6
:102FC00021F040018160606E08B1FEF782FB20466F
:102FD00001F088FC002010BD7047000070B5036848
:102FE0000446D869196810F00F0508D1820606D585
:102FF0008A0604D52046BDE8704001F097BC9A6867
:10300000002D66D002F0010501F490762E4360D0C9
:10301000C60707D0CE0505D501261E62E36E43F034
:103020000103E366830708D5D30706D02668022389
:103030003362E36E43F00403E366430708D5D20727
:1030400006D0236804221A62E26E42F00202E266AF
:1030500002070AD501F020022A4306D0236808227D
:103060001A62E26E42F00802E266E26E002A29D09D
:10307000800604D5880602D5204601F057FCE06E94
:10308000000703D42068806840061CD5204601F064
:1030900029FC20688168490611D5816821F040012A
:1030A0008160606E58B11C494163606EFEF729FB78
:1030B000002807D0606E416BBDE87040084720468D
:1030C000FFF78AFF70BD2046FFF786FF0020E0660D
:1030D00070BDC5020ED552020CD54FF48010186297
:1030E000202084F8690084F86A002046BDE870401A
:1030F000FFF747BF020606D50A0604D52046BDE8FD
:10310000704001F0F5BC4006E2D54806E0D5204607
:10311000BDE8704001F0F4BB3F48000810B5040062
:1031200003D094F8690010B107E0012010BD002021
:1031300084F86800204600F027F8242084F869000D
:103140002068016821F001010160204601F02AFC9D
:103150000128EBD0606A10B1204601F0DEFA206849
:10316000416821F4904141602068816821F02A0182
:1031700081602068016841F0010101602046BDE8DE
:10318000104001F02EBB0000F0B587B006461421B8
:103190006846FDF7BAF82A49306888424ED1294876
:1031A000816941F480418161816901F48041059127
:1031B000416941F4802141614069002400F480208C
:1031C0000590C02000900220CDE901040320039067
:1031D0000720049069461C48FEF77EFB1C4D1B48E7
:1031E0008027C5E90004C5E902472C616C61AC6128
:1031F0002846EC61FEF7FEFA08B1FDF76EFF756632
:103200006E62134D11484435143801C5102091C524
:103210000F4845F8104944306C61AC61EC61FEF731
:10322000E9FA08B1FDF759FF35660022114625205D
:103230006E62FEF793FC2520FEF784FC07B0F0BD1C
:1032400000380140001002400004004858000240CD
:103250008804002070B5044690F86A00202839D10F
:10326000A9B3A2B394F86800012833D0012084F8F0
:1032700068006165A4F858200025E566222084F8DE
:103280006A00616E144813468862616E1348C86212
:10329000616E13480863606E4563666D216832464F
:1032A0002431606EFEF7CDFA84F86850206801681A
:1032B00041F4807101602068816841F00101816002
:1032C0002068816841F040018160002070BDFFE707
:1032D0000120FBE70220F9E79D480008DB480008D1
:1032E00053480008704770477047FEE7124810B512
:1032F000416986B041F40031416140694FF090442A
:1033000000F4003005904FF4C0600090012001905F
:1033100002900320039069462046FEF7DDFA012261
:1033200091022046FEF798FB012251022046FEF74B
:1033300093FB06B010BD00000010024070B5FF4CBA
:10334000FF4D2DED108BB7EE008A94ED000AD4ED01
:10335000000A20EE20FA94ED000AD4ED010A60EE96
:1033600020CA94ED000AD4ED020A20EE20CA94EDA2
:10337000000AD4ED030A20EE20DA94ED010AD4ED20
:10338000010A60EE20DA94ED010AD4ED020A60EE43
:10339000209A94ED010AD4ED030A60EE20BA94ED70
:1033A000020AD4ED020A20EE20BA94ED020AD4ED0E
:1033B000030A60EE20AA94ED030AD4ED030A20EE7E
:1033C00020AA94ED0D0A30EE080A84ED0D0A95ED61
:1033D000000A84ED140A95ED010A84ED150A95EDB5
:1033E000020A84ED160A95ED040A84ED170A95ED9C
:1033F000050A84ED180A95ED060A84ED190A94ED84
:10340000170AD4ED170A94ED181A20EE200AD4ED0D
:10341000180A00EE810AD4ED190A94ED191A00EE8B
:10342000810A02F0FFFBC8EE000AC649C4ED100A8B
:1034300094ED171A70EEC80A21EE001AF0EEE00AB9
:1034400084ED171A94ED181A10EE900A21EE001A66
:1034500084ED181A94ED191A21EE001A84ED191A48
:103460009FEDB99A884202DD84ED059A03E0DFED15
:10347000B70AC4ED050A84ED069AD4ED1A0AF0EEF7
:10348000008A79EECDFA60EE800A7BEE8C1AC4EDEC
:103490001A0AD4ED1B0A60EE800AC4ED1B0AD4EDB3
:1034A0001C0A20EE800A84ED1C0A94ED1A0A60EED4
:1034B000280AB6EE000A30EE4B1A30EE6D0A71EEB5
:1034C0004AEA30EE4A2A30EE4BEA20EEAE1AD4ED4C
:1034D0001B0A60EEA80A00EEAF1AD4ED1C0A60EEDB
:1034E000A80A00EEA11AD4ED1A0A79EE8D1A3BEE65
:1034F000CCDA60EEA80A21EE010A60EEA10AD4ED52
:103500001B1A61EEA81A41EE820AD4ED1C1A3AEE9B
:10351000EC2A61EEA81A41EE820AD4ED1A1A3AEEAC
:10352000AC2A61EEA81A00EEA00A61EE8D9AD4EDE5
:103530001B1A10EE100A61EEA81A41EE829AD4ED21
:103540001C1A61EEA81A41EE8E9AFDF782F841EC42
:10355000100B02F059F851EC100BFDF78DF800EE4E
:10356000100A7CEEAA3A7FEE6D0A20EE283A29EE88
:10357000A80A23EEA82A70EECB0A23EE2F1A94EDA8
:103580001C4A6DEE281A70EE8A2A00EE231A7CEE91
:103590002B3A63EE2E0A63EE233A40EE0D0A94EDC9
:1035A000193A40EE0E3A94ED180A20EE220A03EE84
:1035B000420A94ED1B3A23EE233A04EE413A94ED8D
:1035C000174A30EE033A94ED190A20EE210AB5EEBF
:1035D000C03A04EE620AD4ED1C2A94ED1A4A62EE57
:1035E000A02A44EE632A70EE222A94ED170A20EEF8
:1035F000020A94ED182A02EE610AD4ED1A1A21EE9D
:10360000811AD4ED1B1A01EEE01A30EE010AF1EE38
:1036100010FA84ED0F0A45D0F5EEC02AF1EE10FA4B
:1036200040D0B5EEC00AF1EE10FA3BD094ED061A88
:10363000D4ED040AD4ED0A1A23EE012A42EE201A30
:1036400022EE812AC4ED0A1AD4ED0B1A42EE201A9A
:10365000C4ED0B1A60EE011A94ED0C1A01EEA01ADB
:1036600084ED0C1A94ED141AD4ED050AD4ED0A1A5F
:1036700000EE831A31EE211A84ED141A94ED151A16
:10368000D4ED0B1A00EEA21A31EE211A84ED151AB0
:1036900094ED161A00EE801A94ED0C0A31EE000A31
:1036A00084ED160A94ED010AD4ED140A94ED151A6E
:1036B00094ED00BA60EEC00A94ED020AD4ED161A39
:1036C000D4ED019A40EE410A94ED030A94ED161AE6
:1036D000D4ED02AA40EE410A94ED040A94ED141AC6
:1036E00000EE80BAD4ED000A60EE810A94ED021A71
:1036F00041EE210A94ED031AD4ED151A41EE610A48
:1037000094ED151AD4ED161A40EE809AD4ED000A05
:1037100060EE810A94ED011A41EE610A94ED031AFC
:10372000D4ED141A41EE210A94ED161A40EE80AA47
:10373000D4ED000A60EE810A0AE0000030000020AB
:10374000940500208FC2F53C000000009A99193FB3
:1037500094ED011AD4ED151A94ED03AABA4E41EE78
:10376000210A94ED021AD4ED141A606BB04241EEB6
:10377000610A00EE80AA19DD2BEE0B0A09EEA90AF8
:103780000AEEAA0A0AEE0A0A02F04CFA6BEE000AE6
:10379000C4ED000A69EE800AC4ED010A6AEE800AEF
:1037A0002AEE000AC4ED020A84ED030A606BB042FF
:1037B00060DA95ED040AD5ED050A20EE000A00EE68
:1037C000A00AD5ED060A00EEA00A01F05AFF70EE3D
:1037D000480A9E4884ED0E0AF0EEE00A10EE901AB8
:1037E000814278DA2968814275DA6968814272DA41
:1037F000A96881426FDA95ED061AC1EE000AF5EE6E
:10380000C00AF1EE10FA36DB70EE880AB6EE000A56
:1038100020EE800A01F035FF84ED000AD5ED050A9F
:1038200094ED0E0AC0EE809AD5ED060A80EE801A5D
:1038300031EE080A20EE280A01F023FFC9EE800AC3
:10384000C4ED010A95ED040AF1EE400A94ED0E0A6A
:10385000C0EE809AD5ED060A80EE801A31EE080A95
:1038600020EE280A01F00DFFC9EE800AC4ED020A1D
:1038700084ED039A2FE095ED051AC1EE009A38EE1B
:10388000600A20EE280A01F0FCFEC9EE800AC4EDB1
:10389000000AD5ED060A94ED0E1A80EE810A38EE84
:1038A000400A01F0EEFE84ED010A84ED029AD5EDA6
:1038B000040A94ED0E0A80EE809AD5ED060A80EE99
:1038C000801A38EE410A20EE280A01F0DAFEC9EE2D
:1038D000000AC4ED030A94ED000AB8EE00AA85EDD3
:1038E0000C0A94ED010A85ED0D0A94ED020A85EDAE
:1038F0000E0A94ED030A85ED0F0A94ED020AD4ED49
:10390000020A94ED031A20EE0A0A20EE200AD4EDF2
:10391000030A60EEA80A00EEC10A30EE080A10EEB3
:10392000100AFCF796FE94ED010AD4ED020A94ED1C
:10393000031A20EE280A41EC190B20EE200AD4EDE0
:10394000000A60EEA80A00EE810A10EE100AFCF7E9
:1039500080FE41EC100BB0EE491AF0EE691A01F04E
:10396000B3FC9FED3B9B51EC100B53EC192BFCF778
:103970007EFD9FED391B53EC112BFCF7D1FCFCF7BE
:103980007BFEA86494ED010AD4ED030A94ED021ABB
:1039900020EE0A0A20EE200AD4ED000A60EEA80A02
:1039A00000EE810A10EE100AFCF753FE41EC100BFA
:1039B00001F06EF953EC192B51EC100BFCF757FD8D
:1039C000FCF75AFE686494ED010AD4ED010A94ED07
:1039D000021A20EE0A0A20EE200AD4ED020A60EE56
:1039E000A80A00EEC10A30EE080A10EE100AFCF731
:1039F00030FE94ED020AD4ED030A94ED011A20EE94
:103A0000280A41EC1A0B20EE200AD4ED000A60EEE1
:103A1000A80A00EE810A10EE100AFCF71AFE41EC2B
:103A2000100BB0EE4A1AF0EE6A1A01F04DFC53EC9E
:103A3000192B51EC100BFCF71AFDFCF71DFE286446
:103A4000BDEC108B70BD00000000FA44CDCCCC3D25
:103A50006666666666A64C40000000000080664010
:103A600010B500F019F8FFF769FC00220849094871
:103A7000FDF734FB074804220549001DFDF72EFB26
:103A800004480822BDE8104001490830FDF726BB74
:103A9000D8060020D405002010B5FDF7E3FF00EEA6
:103AA000100A2E4A2E48B8EE400A3049324B82EDB9
:103AB000130AD2ED110A70EE600AC2ED120A90EDFF
:103AC000001ADFED280AC1EE201A9FED271A81EEB9
:103AD000812A81ED002A90ED012AC2EE201A81EEA2
:103AE000812A81ED012A90ED021AC1EE201ADFED44
:103AF000200A81EEA01ADFED1F0A81ED021AD0ED37
:103B0000041A81EEA01AD3ED041A31EE611A81ED88
:103B1000041AD0ED051A81EEA01AD3ED051A31EE84
:103B2000611A81ED051A90ED061AC1EE201AD3ED47
:103B3000060A71EEE00AC1ED060A82ED110A90ED67
:103B4000080AB1EE400A81ED080A90ED090A81EDFC
:103B5000090A90ED0A0A81ED0A0A10BD3000002022
:103B60007C0600206F1283413333654294050020A8
:103B7000E12E654200A0AA44500800200178552992
:103B80002AD14178532927D14188DFED140A00EE6C
:103B9000101A1449B8EE400A20EE201A9FED100AC0
:103BA00021EE001A30EE411A81ED001A828801EEF2
:103BB000102AB8EE411A21EE201A21EE001A81EDEA
:103BC000011AC08801EE100AB8EE411A61EE200A0F
:103BD00020EE800A81ED020A7047000000000038E4
:103BE000000034436406002010B5DFED0E0A9FED9F
:103BF0000E0A0E48FDF772F90C48F2EE040A9FED2A
:103C00000C0A3038FDF76AF908480A499C30FDF77C
:103C10007DF908490548B431BDE810403030FDF762
:103C200075B9000000002F44CDCCCC3DD008002059
:103C3000CDCC4C3E20010020F0EE400AC0ED020A3F
:103C400091ED030AD1ED041A90ED011A20EE200A3D
:103C500090ED002AD0ED032A01EE810AD1ED051A7C
:103C600001EE820A91ED012AD0ED041A02EE610AFA
:103C700091ED022A02EE620A80ED050A80ED001A3B
:103C8000C0ED010AC0ED031A80ED040A7047000080
:103C90000F4810B50D4901600621416000214FF425
:103CA00040328160C0E9031241610176012242760F
:103CB0008176C17601774177FDF70AFC002803D0B1
:103CC000BDE81040FDF709BA10BD000000640040D7
:103CD0008C0200200D4808B5416941F001014161A5
:103CE0004069002200F00100009011460E20FDF70F
:103CF00035FF0E20FDF726FF002211460F20FDF7AD
:103D00002DFFBDE808400F20FDF71CBF001002404A
:103D100030B587B014216846FCF7F7FA16484169B8
:103D200041F480014161416901F4800105914169DB
:103D300041F400314161416901F40031059141696B
:103D400041F48021416140694FF4907400F4802077
:103D5000A5050590012221462846FDF77DFE01209C
:103D6000CDE90040002002900320039069462846D8
:103D7000FDF7B2FD07B030BD00100240124810B58B
:103D8000104901604FF48271416000214FF470626C
:103D9000C0E902124FF400720161C0E90512082265
:103DA000C0E9072107234162C0E90A13C0E90C12E8
:103DB000FEF7EEFB002803D0BDE81040FDF78DB9FB
:103DC00010BD0000003C0040B40200200C4810B5BB
:103DD0000A49016047214160002140F2E732C0E911
:103DE00002120161416180218161FEF7EBFD002833
:103DF00003D0BDE81040FDF770B910BD004401408C
:103E00009803002010B592B01C210BA8FCF77DFA96
:103E10002C216846FCF779FA1F481E4900240160EE
:103E20004721C0E9011440F2E731C0E903144461BD
:103E30008461FEF7C7FD08B1FDF74FF91648FFF79B
:103E40003CF808B1FDF749F96020CDE90B040D9469
:103E50000E940F94109400220BA90F481194FEF7B2
:103E600098FF08B1FDF739F900944FF40050CDE9FF
:103E700004400194029403940694694606480A9407
:103E8000FEF736FD08B1FDF728F90348FEF746FFB7
:103E900012B010BD00480140D803002010B588B012
:103EA0000024184805940694039404940094019403
:103EB0001349029401604821C0E901144FF47A715A
:103EC000C0E9031444618461FEF77CFD08B1FDF78D
:103ED00004F94FF48050039003A90A48FEF7DCFD73
:103EE00008B1FDF7FAF80094019469460548029478
:103EF000FEF742FD002801D0FDF7EFF808B010BD35
:103F0000002C01401803002010B58EB00024079447
:103F1000089409940A940B940C941C2168460D94FF
:103F2000FCF7F3F91D484FF0804101604721C0E9DB
:103F3000011440F2E731C0E903148461FEF742FD49
:103F400008B1FDF7CAF84FF48050079007A913484D
:103F5000FEF7A2FD08B1FDF7C0F81048FEF7ADFF6F
:103F600008B1FDF7BAF80B940BA90C480D94FEF7B5
:103F700003FD08B1FDF7B1F86020CDE9000402941B
:103F80000422694605480494FEF703FF08B1FDF7D3
:103F9000A4F80248FEF7C2FE0EB010BD5803002080
:103FA0000D4810B50B4901604FF4612141600021BB
:103FB00081600C22C160C0E904128161C1610162AB
:103FC0004162FFF7ABF8002803D0BDE81040FDF7D1
:103FD00084B810BD0038014018040020FEE7704787
:103FE0000907090E002806DA00F00F0000F1E020B2
:103FF00080F8141D704700F1E02080F8001470472D
:1040000030B4034C8466034CC46630BC01F07EBF00
:104010000D5F00081B5F00087047F8B515460E4697
:104020000B460092044600224FF4C05100F02AF8DB
:1040300088B93346002280212046009500F071F8AF
:1040400048B9334600224FF4C0612046009500F085
:1040500019F8002804D0206E40F0200020660320CC
:10406000F8BD000001B582B04FF47A7000900123D2
:1040700001AA02A90248FEF719FBBDF804000EBD13
:10408000B40200202DE9F8431D4617460E460446AB
:104090004FF4C068DDF820903CE0464505D127B9D3
:1040A000007B8DF800009DF80000681C32D02DB117
:1040B000FDF7D8FCA0EB0900A8422BD3206841688B
:1040C00021F0E00141606068B0F5827F0BD1A0680B
:1040D000B0F5004F02D0B0F5806F04D120680168C0
:1040E00021F040010160A06AB0F5005F09D12068AD
:1040F000016821F4005101602068016841F4005119
:104100000160012084F85D00002084F85C00032039
:10411000BDE8F883206881683140B942BDD10020F4
:10412000F6E72DE9F0411D4617460E460446DDF838
:10413000188034E0681C32D02DB1FDF793FCA0EB61
:104140000800A8422BD32068416821F0E0014160BB
:104150006068B0F5827F0BD1A068B0F5004F02D047
:10416000B0F5806F04D12068016821F04001016042
:10417000A06AB0F5005F09D12068016821F4005100
:1041800001602068016841F400510160012084F859
:104190005D00002084F85C000320BDE8F081206809
:1041A000806836EA000004D00020B842C2D1002066
:1041B000F3E70120F9E7704710B59FED271A044691
:1041C0002DED068BB0EE60AAC0EE0A0A81EE200A41
:1041D00001F074FADFED21AAB0EE408AB0EE6A0A6F
:1041E00001F06AF9B0EE009AF7EE008A20EE090AB3
:1041F000F0EE689AB5EEC0AA40EE089A48EE089A2A
:10420000F1EE10FA25D928EE080AC0EE290AC4ED0D
:10421000030A20EE890A84ED040AB0EE680AC4EDB0
:10422000050A18EE080AC4ED008A20EE090AC0EE5D
:10423000290AB0EE6A0AC4ED010A01F03DF920EE48
:10424000090A40EE488A48EE088A88EEA90A84EDF9
:10425000020ABDEC068B10BDDB0F4940DB0F493F66
:1042600010B59CB028210DA8FCF74FF8142117A811
:10427000FCF74BF834216846FCF747F801200104AD
:10428000CDE90D010F900224119014944FF4E01029
:10429000CDE915100DA8FDF7B3FE0F20CDE91704E9
:1042A00000244FF48060CDE91940022117A81B9427
:1042B000FDF780FD05480A940090029408940B9441
:1042C0006846FDF77DFC1CB010BD00000110180011
:1042D0001448016841F4700101601348016841F01D
:1042E000010101604168114A114041600168104AB2
:1042F00011400160016821F480210160416821F4CE
:10430000FE014160C16A21F00F01C162016B094ADF
:1043100011400163002181600249C00380390860B7
:104320007047000088ED00E0001002400CC07FF8EC
:10433000FFFFF6FECCFC00FF10B50448FEF72BFC97
:10434000BDE810400248FEF726BC0000180300201C
:10435000980300200148FEF71EBC00001005002055
:10436000F0B50268184B4FF08047984201D0B84230
:1043700003D122F070044A682243144C144D154EA8
:10438000984207D0B84205D0A04203D0A84201D03D
:10439000B04203D122F44077CA683A434F6922F011
:1043A00080023A4302608A68C2620A688262984266
:1043B00005D0A04203D0A84201D0B04201D1096982
:1043C000016301214161F0BD002C0140004001402A
:1043D000004401400048014010B50123046A8B40AD
:1043E0009C430462036A8A401343036210BD10B504
:1043F000846842EA032224F47F440A432243826011
:1044000010BD826822F070020A4342F00701816009
:1044100070470000F0B5026A22F001020262056AEC
:1044200043688269184C25F0020522400C6822F08E
:10443000030214438A68164E2A43144D154FDFF8C1
:1044400058C0A84205D0B04203D0B84201D0604560
:1044500006D122F0080ECA6842EA0E0222F00402D7
:10446000A84205D0B04203D0B84201D0604505D182
:104470004D6923F440731D438B692B434360846172
:10448000496841630262F0BD8FFFFEFF002C0140CE
:1044900000400140004401400048014030B5026A3C
:1044A00022F010020262046A42688369164D2B40B2
:1044B0000D6823F4407343EA052524F020038C683B
:1044C00043EA0413114CA04207D1CC6823F08003C7
:1044D00043EA041323F0400308E00D4CA04205D04A
:1044E0000C4CA04202D00C4CA04207D14C6922F4E3
:1044F000406242EA84028C6942EA84024260856139
:1045000049688163036230BDFF8FFFFE002C0140CC
:1045100000400140004401400048014030B5026ABB
:1045200022F480720262046A4268C369164D2B400D
:104530000D6823F003031D4324F400738C6843EAE1
:104540000423124CA04207D1CC6823F4006343EA51
:10455000042323F4806308E00D4CA04205D00D4CE9
:10456000A04202D00C4CA04207D14C6922F4405228
:1045700042EA04128C6942EA04124260C561496849
:10458000C163036230BD00008FFFFEFF002C0140BD
:1045900000400140004401400048014030B5026A3B
:1045A00022F480520262046A4268C369114D24F405
:1045B00000542B400D6823F4407343EA05238D68B3
:1045C00044EA05340C4DA84208D00C4DA84205D051
:1045D0000B4DA84202D00B4DA84204D14D6922F4E4
:1045E000804242EA85124260C36149680164046204
:1045F00030BD0000FF8FFFFE002C01400040014055
:10460000004401400048014030B5026A22F4803283
:104610000262046A4268436D0F4D2B400D681D43D2
:1046200024F400330C8943EA04430C4CA04208D024
:104630000B4CA04205D00B4CA04202D00A4CA04229
:1046400004D14C6922F4803242EA0422426045657A
:1046500049688165036230BD8FFFFEFF002C014079
:1046600000400140004401400048014030B5026A6A
:1046700022F480120262046A4268436D104D24F4F1
:1046800000142B400D6843EA05230D8944EA0554C4
:104690000C4DA84208D00C4DA84205D00B4DA842A5
:1046A00002D00B4DA84204D14D6922F4802242EA87
:1046B0008522426043654968C165046230BD0000DF
:1046C000FF8FFFFE002C01400040014000440140EC
:1046D0000048014010B5036A046A24F00104046232
:1046E000846924F0F00444EA021423F00A020A4325
:1046F0008461026210BD10B5036A23F010030362E7
:104700008369046A23F4704343EA023224F0A0036D
:1047100043EA01118261016210BD90F82410C907BB
:1047200006D001684A68836A22F400321A434A605C
:1047300090F82410890706D501684A68C36A22F4F4
:1047400080321A434A6090F82410490706D5016860
:104750004A68036B22F480221A434A6090F82410BE
:10476000090706D501684A68436B22F400421A43E0
:104770004A6090F82410C90606D501688A68836BE0
:1047800022F480521A438A6090F82410890606D5D4
:1047900001688A68C36B22F400521A438A6090F859
:1047A0002410490611D501684A68036C22F480126E
:1047B0001A434A60016CB1F5801F06D101684A684E
:1047C000436C22F4C0021A434A6090F82410090690
:1047D00006D501684A68806C22F4002202434A60D0
:1047E0007047F8B500260446C666FDF73BF9054656
:1047F000206800686FF07E47000708D52B4600222E
:104800004FF400112046009700F0A4F960B9206829
:10481000006840070AD52B4600224FF4800120464D
:10482000009700F097F908B10320F8BD202084F824
:10483000690084F86A0084F868600020F8BD10B54B
:10484000406A0021A0F85A10A0F85210FEF7C4FBED
:1048500010BD70B5446A94F869000025212808D17C
:1048600020688068000604D5A4F85250204600F065
:1048700054F894F86A00222808D12068806840061D
:1048800004D5A4F85A50204600F02CF8E06E40F011
:104890001000E0662046FEF79FFB70BD10B5014694
:1048A000406A09680968890614D40021A0F85A10E2
:1048B00001680A6822F480720A6001688A6822F03E
:1048C00001028A6001688A6822F040028A60202121
:1048D00080F86A10FEF706FD10BD10B5406AFEF7BD
:1048E00002FD10BD01680A6822F490720A60016836
:1048F0008A6822F001028A60202180F86A107047DD
:1049000010B501680A6822F040020A60202180F890
:104910006910FEF7E9FC002010BD01680A6822F06A
:10492000C0020A60202180F86910704710B5B0F805
:104930005C2090F86A300168222B05D0886940F02D
:1049400008008861022010BD898C8368B3F5805F00
:1049500001D103696BB11140426D531C4365117065
:10496000B0F85A10491E0904090CA0F85A1007D0D3
:1049700015E0436D11401980416D891C4165EFE7D9
:1049800001680A6822F490720A6001688A6822F05D
:1049900001028A60202180F86A10FEF7A3FC002043
:1049A00010BD00002DE9F041044610202369A268E3
:1049B000E6691A436369002133431A4323680D46AD
:1049C0001E68444F3E4016431E6022685368E668E6
:1049D00023F4405333435360236AA2691A43236884
:1049E0009E6826F4306616439E603B4B22689A42CE
:1049F00010D13A4B1B6B13F0030311D0012B05D0E0
:104A0000022B05D0032B0CD102200AE0042008E081
:104A1000082006E0324B9A4202D0324B9A4200D133
:104A20000020E6694FF400439E4226D109281DD29A
:104A3000DFE800F00508121C151C1C1C1800FDF70F
:104A40007BFA01E0FDF790FA4100606801EB50014C
:104A5000B1FBF0F081B20AE023496068F6E7FDF7A8
:104A60009BFAF1E74FF480316068EFE7012521F010
:104A70000F00C1F3420108431CE0092825D2DFE8FA
:104A800000F005080B24102424241C00FDF754FA20
:104A900009E0FDF769FA06E01449606801EB50018E
:104AA0000EE0FDF779FA0146606801EB5001B1FBB9
:104AB000F0F080B22168C86008E0606803EB500144
:104AC000B1FBF0F080B2D06000E001252846BDE8DF
:104AD000F0810000F369FFEF003801400010024050
:104AE00000440040004800400024F40000127A0016
:104AF00090F86910212901D002207047B0F85210B7
:104B000021B18168B1F5805F0BD00CE001680A68C3
:104B100022F080020A600068016841F040010160F3
:104B20000CE0016961B1C16C4A1CC2640268097879
:104B3000A2F8281030F8521F491E0180002070474B
:104B4000C16C02680988C1F308011185C16C891C18
:104B5000C164EFE72DE9F041984617460E4604463A
:104B6000069D1DE0681C1BD02DB1FCF77BFFA0EB60
:104B70000800A84214D92068016821F4D0710160AE
:104B80002068816821F001018160202084F869009B
:104B900084F86A00002084F868000320BDE8F081F2
:104BA0002068C06936EA000004D00020B842D9D09D
:104BB0000020F3E70120F9E710B50448FEF70EFAEC
:104BC000BDE81040014800F023B8000018040020A0
:104BD00010B500680849884202D10848FEF7CEFFA8
:104BE00016210648FBF791FBBDE810401622034949
:104BF0000348FEF72FBB000000380140500500209D
:104C0000180400200148FCF765BB00008C0200205E
:104C100010B504460068C169C943C90609D410210A
:104C200001622046FEF7AEF92046BDE81040FFF7CE
:104C3000CFBF10BDFEE703B401984100009850EAD1
:104C4000C12018BF04204A0D18BF40F0010040F2F7
:104C5000FF72B2EB515F08BF40F00200012808BFAD
:104C6000052002B070474100080218BF04200A0E58
:104C700018BF40F001004FF07F4232EA010108BF47
:104C800040F00200012808BF052070470000000026
:104C900070B5C1482DED020B2DED0E8B82B0119D2C
:104CA00025F000449FEDBEDB9FEDBFEB84423EDB71
:104CB000A4F140511098A1F17F6108430FD0BC4886
:104CC000844202DC28D1109830B39DED100B02B065
:104CD000BDEC0E8B02B0BDE8704000F029BE9DED2A
:104CE000100B53EC1D2B51EC100BFBF7C0FB9DED93
:104CF000100B41EC180B53EC1E2B51EC100BFBF777
:104D0000B6FB53EC182BFBF70BFB41EC100B02B07E
:104D1000BDEC0E8B02B070BD012000F00BFF02B0A5
:104D2000BDEC0E8B02B0BDE8704000F015BEA1488E
:104D30009FEDA18B844256DA9DED100BB4F1795FA3
:104D40000ADA51EC100BFFF776FF042808BF00F0D9
:104D500013FE9DED100BDAE753EC102B51EC100B0A
:104D6000FBF785FB41EC190B95480621B0EE490A8B
:104D7000F0EE690A784400F05FFD53EC192B51EC1A
:104D8000100BFBF774FB41EC1A0B8E48B0EE490A8E
:104D9000F0EE690A0421784400F04EFD53EC192B23
:104DA00051EC100BFBF763FB53EC182BFBF7B8FA35
:104DB00041EC100B51EC1A0B53EC102BFBF7C9FB19
:104DC000CDE900019DED000B53EC102B9DED100B78
:104DD00051EC100BFBF74BFB9DED101B53EC112B13
:104DE000FBF79EFAD2E09DED100B51EC100B00F09A
:104DF000FFFE53EC182BFBF737FB9FED730BCDE950
:104E0000000153EC102B9DED000B51EC100BFBF748
:104E10002EFB41EC190B6E480621B0EE490AF0EE6C
:104E2000690A784400F008FD53EC192B51EC100B83
:104E3000FBF71DFB41EC1B0B6648B0EE490AF0EE98
:104E4000690A0421784400F0F7FC53EC192B51EC6B
:104E5000100BFBF70CFB53EC182BFBF761FA41EC42
:104E60001C0B51EC190B01F0C5F841EC180B5A481A
:104E70009FED5BABA04222DC53EC1C2B51EC1B0BD7
:104E8000FBF767FBCDE900019DED000B51EC180B22
:104E900053EC102BFBF7EBFA53EC182BFBF740FA13
:104EA00053EC1A2BFBF7E3FA53EC1D2BFBF7D9FA63
:104EB00053EC1E2BFBF7D8FA41EC100B5FE08DEDA5
:104EC000008B002000909DED000B51EC180B53EC73
:104ED000102BFBF725FA9DED000B41EC1E0B53EC5C
:104EE000102B51EC100BFBF7C2FA53EC192BFBF70C
:104EF000BBFA53EC1E2BFBF72CFB41EC190B53ECCC
:104F00001C2B51EC1B0BFBF724FB41EC1B0B53EC54
:104F10001A2B51EC190BFBF7AAFA53EC1D2BFBF7DC
:104F2000A3FA41EC190B53EC1A2B51EC180BFBF7BD
:104F30009EFA53EC1B2BFBF79AFA53EC192BFBF759
:104F400090FA9DED000B41EC180B53EC1A2B51EC31
:104F5000100BFBF78CFA9FED249B53EC192BFBF7FE
:104F600083FA41EC100B51EC180B53EC102BFBF7B0
:104F700078FA53EC192BFBF777FA41EC100B002D64
:104F80003FF7C5AE51EC100B81F0004141EC100B26
:104F9000BDE60000000000000000F03F000000003F
:104FA000075C143326A6913C182D4454FB21F93F8D
:104FB0000000F07F0000E03F000000000000F03F34
:104FC000D0130000DE130000000000000000E03FEE
:104FD00022130000301300003333EF3F00000000C5
:104FE0000000000000000040182D4454FB21E93F60
:104FF00070B59B482DED020B2DED068B079D25F01E
:105000000044A04218DC9748844202DC0AD106988A
:1050100040B19DED060BBDEC068B02B0BDE87040C3
:1050200000F086BC002DCCBF9FED8F0B9FED900B49
:10503000BDEC068B02B070BD8F48A04215DD8F48D5
:10504000A042D8BF4FF0FF3458DD9DED060B51EC68
:10505000100BFFF7F0FD042808BF00F08DFC9DED5C
:10506000060BBDEC068B02B070BD9DED060B51EC3E
:10507000100B00F0BDFDCDE9060181489FED828B4C
:10508000A0423CDD8248A0421FDD00249FED82ABA0
:105090009DED060B53EC1A2B51EC100BFBF740F96E
:1050A0009DED060B41EC190B53EC1A2B51EC100B38
:1050B000FBF7DDF953EC182BFBF7D3F953EC192B65
:1050C000FBF747FACDE9060149E09DED060B012407
:1050D00053EC182B51EC100BFBF722F99DED060B4E
:1050E00041EC190B53EC182B51EC100BFBF7B9F9F1
:1050F00053EC192BFBF72DFACDE906012FE0684898
:10510000A0421FDD02249FED689B9DED060B53EC32
:10511000192B51EC100BFBF7AAF953EC182BFBF7EA
:10512000FFF89DED060B41EC180B53EC192B51ECDD
:10513000100BFBF796F953EC182BFBF70AFACDE9A5
:1051400006010CE09DED060B032453EC102B9FEDA4
:10515000580B51EC100BFBF7FCF9CDE906019DED66
:10516000060B53EC102B51EC100BFBF780F941ECC4
:10517000180B53EC182BFBF77AF941EC190B4E483E
:105180000621B0EE490AF0EE690A784400F054FBBB
:1051900053EC182B51EC100BFBF769F941EC180B91
:1051A0004648B0EE490AF0EE690A0521784400F05D
:1051B00043FB53EC192B51EC100BFBF758F941EC66
:1051C000100B51EC180B53EC102B002C0EDAFBF7E4
:1051D000A7F89DED061B53EC112BFBF748F99DED4D
:1051E000061B53EC112BFBF73FF935E0FBF798F862
:1051F0009DED061B53EC112BFBF739F941EC100B1D
:105200002F48784400EBC40090ED001B51EC100BCC
:1052100053EC112BFBF725F99DED061B53EC112BDD
:10522000FBF71FF941EC100B2648784400EBC40053
:1052300090ED001B51EC100B53EC112BFBF714F904
:1052400041EC100B002DA2BFBDEC068B02B070BD6F
:1052500051EC100B81F0004141EC100B01E7000014
:10526000000010440000F07F182D4454FB21F93F4A
:10527000182D4454FB21F9BF0000DC3F0000203E04
:105280000000F33F00000000000000000000F03FBD
:105290000000E63F000000000000000000000040A9
:1052A0000080034000000000000000000000F83F04
:1052B000000000000000F0BF721000002810000085
:1052C000B20F00006A0F000070B56B4E2DED040B9D
:1052D0002DED028B82B0DDF81CC0DDE905235C42B8
:1052E0002CF000411C4341EAD474049D22F000409C
:1052F000B44205D86C422C4340EAD474B4420BD972
:105300009DED061B9DED040B02B0BDEC028B04B0BD
:10531000BDE8704000F016BBACF14054A4F17F64CE
:105320001C430BD0022404EAAC7444EAD274054353
:105330009FED538B9FED542B07D015E09DED040B93
:1053400051EC100B00F014FC42E0002C11BF012CBA
:105350009DED040B02B0BDEC028B04BF04B070BD28
:10536000022C38D0032C3BD00B439FED491B9FED03
:105370004A0B0AD0B14218D1B04209D121F0804184
:1053800020F08040079105900FE0002A15DA10E028
:10539000434B7B44002C08BF93ED000B0DD0012C38
:1053A00010D0022C17D0032C1AD0B0421DD1002AE5
:1053B00003DAB0EE410AF0EE610A02B0BDEC028BF6
:1053C00004B070BD93ED000B51EC100B81F0004167
:1053D00041EC100BF1E7B0EE480AF0EE680AECE79A
:1053E000B0EE420AF0EE620AE7E7401A00153C28E8
:1053F000C8BF8DED000B19DCBCF1000FBEBF10F172
:105400003C0F9FED290B8DED000B0FDB9DED060B87
:1054100053EC102B9DED040B51EC100BFBF799F89E
:1054200000F0E6FB00F0A4FBCDE90001002C08BF72
:105430009DED000BC1D0012C10D0022C9FED1C0B58
:1054400053EC102B9DED000B51EC100B0DD0FBF726
:1054500008F853EC182BFBF704F8B9E7019880F033
:10546000004001909DED000BA7E7FAF7FAFF53EC1F
:10547000182BFAF7F9FFABE70000F07F00000000FF
:10548000182D4454FB210940182D4454FB2109C018
:10549000182D4454FB21F9BF182D4454FB21F93F2A
:1054A0009A0E000000000000000000000000000054
:1054B000075C143326A6A13C10EE101A08B5444A26
:1054C0006846B2EB410F28D94FF0E640B0EB410FF0
:1054D00094BF00204FF0FF3000900098002861DB5F
:1054E00060EE000A10F0010F45D010F0020FDFED62
:1054F000391A9FED391A00EEE11ADFED381A40EE45
:10550000811A21EEA01AF0EE400A40EE010A08BF0F
:10551000F1EE600AB0EE600A08BD314B21F00042A6
:1055200093423CD911F0004FDFED2E0A20EE201AF5
:10553000DFED2D0A19BF31EE601A71EE200A31EE4F
:10554000201A71EE600ABDEEE01A11EE100A9FED0E
:10555000271A00F0030000EEC10A9FED251A009003
:1055600000EEC10A9FED231A00EEC10A9FED221A38
:1055700000EEC10AB1E79FED211A9FED210A10F05C
:10558000020F00EE810A9FED1F1A00EE801AB7EE9F
:10559000000A00EE810A18BFB1EE400A08BD00F013
:1055A0000FFA9AE710EE100A4000B0F17F4F3CBFAF
:1055B000B7EE000A08BD07D14FF0010000F0BAFABB
:1055C000BDE8084000F0ECB9BDE8084000F0E4B9DF
:1055D000B61F927E336D4C39DA82083CA0AA2ABEEF
:1055E000490E494683F9223F0000004B0000C93FA5
:1055F00000A0FD390020A2331A61342CB93AB2BAA6
:10560000CA9F2A3DDDFFFFBE00B52DED048BB0EE35
:10561000409AF0EE609A83B051EC190BFBF7FDF85D
:1056200041EC180B18EE100A18EE901A8DED008B55
:10563000002818BF0120084320F00040C0F17F601F
:1056400000F1E040C00F14D019EE101A19EE900AC4
:105650008DED009B002918BF0121084320F0004078
:10566000C0F17F6000F1E040C00F04BF012000F0F6
:1056700061FAB0EE480A03B0F0EE680ABDEC048BA4
:1056800000BD10B52DED028BB1EEC08A18EE100AE8
:1056900020F00040C0F1FF40C00F0AD010EE100A09
:1056A00020F00040C0F1FF40C00F04BF012000F017
:1056B00041FAB0EE480ABDEC028B10BD00B510EE09
:1056C000101A2DED028B81B04D4A6846B2EB410FA6
:1056D0003CD94FF0E640B0EB410F94BF00204FF0B3
:1056E000FF3000900098B0EE408A00285FDB28EE83
:1056F000080ADFED440A9FED441A00EE201ADFEDA0
:10570000430A40EE010A9FED421A00EE201ADFED37
:10571000410A10F0010F40EE010A9FED3F1A00EE22
:10572000201A61EE000AB0EE480A08EE200A02BF15
:1057300001B0BDEC028B00BDBFEE001A01B0C1EE9E
:10574000000ABDEC028BB0EE600A00BD334B21F0C5
:105750000042934228D911F0004FDFED310A20EECC
:10576000201ADFED300A19BF31EE601A71EE200AFF
:1057700031EE201A71EE600ABDEEE01A11EE100A49
:105780009FED291A00F0030000EEC10A9FED271AD1
:10579000009000EEC10A9FED261A00EEC10A9FEDAF
:1057A000251A00EEC10A9DE700F00AF99AE718EE03
:1057B000100A4000B0F17F4F0DD218EE100AFFF72B
:1057C00052FA042808BF00F0F3F8B0EE480A01B01E
:1057D000BDEC028B00BD09D1012000F0ABF901B096
:1057E000BDEC028B5DF804EB00F0DAB801B0B0EE6E
:1057F000480ABDEC028B5DF804EB00F0CDB8000068
:10580000B61F927EBBE9223C0C6D063B8A76CE3CED
:10581000ACB5593D35A1083E29AAAA3E490E4946D4
:1058200083F9223F0000004B0000C93F00A0FD3972
:105830000020A2331A61342C70B504462DED028B82
:105840004D1E00EBC500B0EE408AF0EE608A90ED90
:10585000000B35F0060017D053EC182B51EC100B51
:10586000FAF705FE41EC100B6D1E04EBC50090ED40
:10587000001B51EC100B53EC112BFAF751FD41ECCE
:10588000100B35F00600E7D1022D36D0042D1CD0C8
:10589000062D1CBFBDEC028B70BD53EC182B51ECD8
:1058A000100BFAF7E4FD94ED0A1B53EC112BFAF7F9
:1058B00037FD53EC182BFAF7DAFD94ED081B53EC87
:1058C000112BFAF72DFD41EC100B53EC182B51EC7A
:1058D000100BFAF7CCFD94ED061B53EC112BFAF7E5
:1058E0001FFD53EC182BFAF7C2FD94ED040B53EC9B
:1058F000102BFAF715FD41EC100B53EC182B51EC63
:10590000100BFAF7B4FD94ED021B53EC112BFAF7D0
:1059100007FD53EC182BFAF7AAFD94ED001B53EC8E
:10592000112BFAF7FDFCBDEC028B41EC100B70BDA6
:1059300010B553EC102B51EC100BFAF7F1FC41ECC5
:10594000100B10BD10B553EC112B51EC100BFAF7E6
:10595000E7FC41EC100B10BD9FED050B10B553ECAF
:10596000102B51EC100BFAF7F4FD41EC100B10BDAD
:1059700000000000000000009FED050B10B553EC87
:10598000102B51EC100BFAF772FD41EC100B10BD0F
:10599000000000000000001030EE000A7047000018
:1059A000DFED020A80EEA00A704700000000000050
:1059B0009FED020A20EE000A704700000000001070
:1059C0002DE9F0014FF07F42B2EB410F9FBF4FF046
:1059D000FF310160BDE8F00170474FF0004242EA3C
:1059E0000123C1F3C752783A551112F01F0C434CF2
:1059F000CCF120067C44C1F3C752A2F178024FEAF1
:105A0000621204EB820254F8254008BFD2E9015625
:105A100012D0556804FA0CF425FA06F73C4397684F
:105A200005FA0CF527FA06F8D26807FA0CFCF240E2
:105A300045EA08054CEA0206A4FB034CA5FB035209
:105A4000A6FB03631D449D4234BF012600261319A3
:105A5000334416B1934202D903E0934201D20122AA
:105A600000E00022624402F1200C9206DC0C42EAC3
:105A7000443200EE102A5B03DFED210AF8EEC01A73
:105A800000EE103A4FEA9C1C11F0004FB8EE400AAD
:105A9000C0F800C020EE201A00EE105ADFED190AFF
:105AA000B8EE400A20EE200A71EE810A70EE800AFC
:105AB00010EE902A02F500626FF30B0200EE902ABE
:105AC00070EEE11A31EEC11ADFED101A30EE411A14
:105AD0009FED0D0A20EE800A01EE210A9FED0C1ABF
