:020000040800F2
:10000000982300209D01000853570008493D00082F
:1000100051570008A7160008A96300080000000057
:100020000000000000000000000000002B59000844
:100030004D190008000000008D570008B5010008A8
:10004000B7010008B7010008B7010008B7010008B0
:10005000B7010008B7010008B7010008B7010008A0
:10006000B7010008B7010008B7010008B701000890
:10007000B7010008B7010008F917000805180008C3
:10008000B7010008B7010008B7010008796300084C
:10009000B7010008B7010008B7010008B701000860
:1000A000B7010008AD5A0008B7010008B701000801
:1000B000B70100080000000000000000B7010008C0
:1000C000B7010008B7010008B701000800000000F0
:1000D000B70100082D630008B7010008B701000848
:1000E000B7010008B7010008B701000800000000D0
:1000F0000000000000000000000000000000000000
:10010000000000000000000000000000B70100082F
:100110000000000000000000C95A000800000000B4
:1001200000000000000000000000000000000000CF
:1001300000000000000000000000000000000000BF
:10014000B7010008B701000800000000000000002F
:10015000000000000000000000000000000000009F
:10016000B7010008B7010008B7010008B70100088F
:10017000B7010008000000000000000000000000BF
:1001800000000000B7010008DFF80CD000F026FFE7
:1001900000480047C56D00089823002006488047A6
:1001A00006480047FEE7FEE7FEE7FEE7FEE7FEE75C
:1001B000FEE7FEE7FEE7FEE7455A00088901000872
:1001C00070B405880E884468D1F804C05368B542FD
:1001D00008D140884988884201BF11888D425188E2
:1001E000884203D070BC6FF00200704705FB00F13D
:1001F000880827D094ED001ADCED000A94ED010A7E
:10020000DCED011A31EE201AD4ED020A70EE211A4B
:100210009CED020A83ED001AC3ED011A94ED031A56
:10022000DCED031A30EE800A401E71EE210A83EDE8
:10023000020A04F11004C3ED030A03F110030CF1E8
:10024000100CD7D111F0030030D0B0F1004F30D2F4
:1002500000282BDD211F1B1FACF1040210F0010F41
:100260000AD091ED010AD2ED010A091D121D30EEEE
:10027000200A83ED010A1B1D400817D091ED010AE9
:10028000D2ED010A401E30EE200A83ED010A91ED05
:10029000020AD2ED020A01F1080102F1080230EE71
:1002A000200A83ED020A03F10803E7D170BC0020A5
:1002B0007047B4EC010A401EFCEC010A30EE200A43
:1002C000A3EC010AF5D1F1E7018042804360704759
:1002D0002DE9F34F84B0049840680090486801907D
:1002E0000498B0F800E04588DFEDFE0A0020029097
:1002F000B0EE600AAE4506D108884988884204BF3E
:100300007146864504D06FF0020006B0BDE8F08F5C
:1003100001985FEA010C18BFB7EE001A3DD000BF8C
:10032000BEEB0C0117D0B1F1004F80F01F82002905
:1003300011DD021F11F0010F1CBFC2ED010A121DD9
:100340004B1006D0C2ED010AC2ED020A08325B1E54
:10035000F8D100EB8100BCF10102A0EC011A19D028
:10036000B2F1004F80F00882002A13DD031F12F063
:10037000010F1CBFC3ED010A1B1D511008D000BFA7
:10038000C3ED010AC3ED020A491E03F10803F7D1C8
:1003900000EB8200BCF1010CC2D14FF000080395C4
:1003A000002D14BFB0EE602A002000F0BF8100BF16
:1003B000009908FB05F001EB800B0199DBED002AA9
:1003C00001EB80000346F0EE421AC64552D9AEEB6F
:1003D0000802ABEB850112F0010F17D001EB85018C
:1003E00091ED000AB5EEC00AF1EE10FA07DDB4EEA9
:1003F000E10AF1EE10FA09DDF0EE401A06E0B1EE86
:10040000400AF4EEC01AF1EE10FAF5D3521031D0D2
:1004100001EB850C9CED000AB5EEC00AF1EE10FA76
:1004200005DDB4EEE10AF1EE10FA09DD06E0B1EE09
:10043000400AF4EEC01AF1EE10FA01D2F0EE401AC2
:1004400001EBC50191ED000AB5EEC00AF1EE10FA1C
:1004500005DDB4EEE10AF1EE10FA09DD06E0B1EED9
:10046000400AF4EEC01AF1EE10FA01D2F0EE401A92
:10047000521ECDD1F5EEC01AF1EE10FA00F07381E4
:10048000F5EEC02A0126F1EE10FA0099D4BFB1EEC4
:10049000620AB0EE620AB4EE610AF1EE10FA1CBF15
:1004A000AEEB0802B2F1010C47D005FB08F201EBFC
:1004B000820292ED001A00BFB0EE410A05FB06F47D
:1004C000B5EEC00A00EB8404F1EE10FACCBFF0EEFA
:1004D000400AF1EE400AF4EE610AF1EE10FA28D17A
:1004E000B5EB080C11D0BCF1004F7DD2BCF1000F70
:1004F0000BDD00BF92ED000AD1ED000ABCF1010C4A
:10050000E2EC010AA1EC010AF4D129000ED0B1F10C
:10051000004F6AD2002909DD94ED000AD0ED000AEF
:10052000491EE4EC010AA0EC010AF5D10120029079
:100530000BE0761CBCF1010CBED10298012804D05E
:10054000F5EEC02AF1EE10FA7ED09BED000AB5EB75
:1005500008009A465946064622D0B0F1004F74D2A0
:1005600000281DDD091F10F0010F06D0F0EE400A33
:1005700080EEA01A81ED011A091D401010D000BFB5
:10058000D1ED010A401E80EE801A81ED011A91ED35
:10059000021AC1EE000AC1ED020A01F10801EFD111
:1005A000280026D0B0F1004F7ED2002821DDAAF12C
:1005B000040110F0010F06D0D1ED010A80EE801A7F
:1005C00081ED011A091D401013D000BFD1ED010AC1
:1005D000401E80EE801A81ED011AD1ED020A80EEF4
:1005E000801A81ED021A01E0CBE0D6E001F10801AA
:1005F000ECD1DDE900124FF000095FEA0E0773D07D
:10060000C14504BF01EB860102EB850274D091ED78
:10061000000ADC465046331E35D01C46B6F1004F6A
:100620007ED2002C2FDD0B1FABF1040C16F0010F56
:100630000FD0F0EE400ADCED011AB0EE601A00EEC9
:10064000E11A83ED011A01E08DE0B1E01B1D0CF110
:10065000040C741015D000BFD3ED010A9CED011AF3
:1006600040EE410AC3ED010AD3ED020A9CED021AE5
:100670000CF1080C40EE410AC3ED020A0833641E77
:10068000EAD101EB86012B0036D0B3F1004F72D2D4
:10069000002B31DDA2F1040CAAF1040013F0010FCC
:1006A0000CD0DCED010A00E08BE090ED011A001D9A
:1006B00040EE410ACCED010A0CF1040C5C1019D09B
:1006C000DCED010A90ED011A40EE410ACCED010A81
:1006D000DCED020A90ED021A083040EE410ACCED42
:1006E000020A03E0000000000DE005E0641E0CF1CA
:1006F000080CE5D102EB830201EB88017F1E09F1B2
:1007000001097FF47DAF009808F10108001D0090F9
:100710000398401E03907FF44BAE0299012900E03C
:1007200058E004BF06B0BDE8F08F00BFB5EEC00AC8
:10073000F1EE10FA7FF4E9AD04990EFB05F3002BFE
:100740004A684FF000010BD902EB810C9CED000AC6
:10075000B5EEC00AF1EE10FA02D1491C8B42F3D873
:100760008B427FF4D2AD6FF00400CEE5E0EC010ADD
:10077000491EFBD1EFE538E0E0EC010A521EFBD147
:1007800008E692ED000AD1ED000ABCF1010CE2ECA2
:10079000010AA1EC010AF4D1B7E694ED000AD0ED0C
:1007A000000A491EE4EC010AA0EC010AF5D1BDE6FD
:1007B000D1ED000A401E80EE801AA1EC011AF7D19B
:1007C000EEE6D3ED000A401E80EE801AA3EC011A7B
:1007D000F7D10EE7BCEC011AD1ED000A5B1E40EE2A
:1007E000410AE1EC010AF5D14DE7B0EC011AD2ED76
:1007F000000A5B1E40EE410AE2EC010AF5D17BE7FC
:100800002DE9F04F82B04668536801930588478808
:100810004B88002000900888874201BFB2F800C0D2
:100820006545528893421EBF6FF0020002B0BDE8DA
:10083000F08F9FED412A4FEA970EC7F3400B00BFA0
:10084000DDE9000202EB800A4A6898464FF0000991
:10085000B0EE420AB4465FEA0E0025D092ED001ACF
:10086000DCED001A02EB8302DCED010A01EE810AE5
:1008700092ED001A02EB8302401ED2ED001A02EB49
:10088000830200EE810A9CED021ADCED030A0004EB
:100890000CF1100C000C01EE210A92ED001A02EB93
:1008A000830200EE810AD9D117F0030026D0ACF103
:1008B0000404A2EB830210F0010F08D002EB8302C4
:1008C000D4ED010A92ED001A241D00EE810A5FEAC0
:1008D0000B0013D002EB830CD4ED010A9CED001A3F
:1008E00002EBC302401E00EE810AD4ED020A92ED33
:1008F000001A04F1080400EE810AEBD109F10100AD
:10090000AAEC010A1FFA80F9486800EB8902A8F1F5
:1009100001001FFA80F8B8F1000F99D1009806EB9A
:100920008706184480B20090681E05042D0C87D1FC
:1009300002B00020BDE8F08F0000000070B4058810
:100940000E884468D1F804C05368B54208D1408885
:100950004988884201BF11888D425188884203D05E
:1009600070BC6FF00200704705FB00F1880827D0CB
:1009700094ED001ADCED000A94ED010ADCED011A99
:1009800031EE601AD4ED020A70EE611A9CED020A93
:1009900083ED001AC3ED011A94ED031ADCED031A7E
:1009A00030EEC00A401E71EE610A83ED020A04F1C6
:1009B0001004C3ED030A03F110030CF1100CD7D19E
:1009C00011F0030030D0B0F1004F30D200282BDD01
:1009D000211F1B1FACF1040210F0010F0AD091ED92
:1009E000010AD2ED010A091D121D30EE600A83EDE5
:1009F000010A1B1D400817D091ED010AD2ED010A32
:100A0000401E30EE600A83ED010A91ED020AD2ED3C
:100A1000020A01F1080102F1080230EE600A83EDDA
:100A2000020A03F10803E7D170BC00207047B4EC60
:100A3000010A401EFCEC010A30EE600AA3EC010A38
:100A4000F5D1F1E72DE9F04F02884768B0F8028050
:100A50004888D1F8049082B04FF0000A16468242CE
:100A600007BF098888456FF0020002B018BFBDE8D3
:100A7000F08F4FEA980B02EB42000190C8F3400060
:100A8000CDF8000009EB8A01BBF1000F33D00198CB
:100A900001EB820C01EB80043B46E64601EBC2050C
:100AA0004FEA0B0093ED000A401E81ED000A93ED22
:100AB000010A01EB02118CED000A93ED020A0CEB26
:100AC000021C85ED000A93ED030A05EB021584ED87
:100AD000000A04EB021403F11003E3D10EEB8200D1
:100AE00000EB820000EB8201ABF10100504307EB09
:100AF0000B1701EB001118F0030C21D03B1FA1EBE9
:100B000082011CF0010F06D093ED010A01EB820176
:100B10001B1D81ED000A009880B100BF93ED010A12
:100B200001EB820401EBC20184ED000A93ED020A9D
:100B3000401E81ED000A03F10803EFD107EB8C079B
:100B40000AF101001FFA80FA701E0604360C99D1D2
:100B500002B00020BDE8F08F202A04DB203A21FA01
:100B600002F00021704721FA02F3D040C2F12002C6
:100B7000914008431946704740EA01039B0703D0A0
:100B800009E008C9121F08C0042AFAD203E011F8CC
:100B9000013B00F8013B521EF9D27047D2B201E08E
:100BA00000F8012B491EFBD270470022F6E710B572
:100BB00013460A4604461946FFF7F0FF204610BDCB
:100BC0002DE9FE4F804681EA0300C00F0C460090DD
:100BD00021F0004123F00045B8EB0200A94105D205
:100BE0004046214690461C460B46024623F00040F4
:100BF000104347D0270DC7F30A00C3F30A510290F0
:100C0000401A019040286BDAC3F3130040F4801BB4
:100C10000098924620B10023D2EB030A63EB0B0B42
:100C200001985946C0F14002504600F022F90646AC
:100C30000D4650465946019A00F02AF910EB08007B
:100C40006141002487EA115284EAE7731A4340D0D5
:100C5000009A62B3019A012A4FEA075215DC001B81
:100C600061EB02014FF0004202EA0752CDE9004277
:100C7000001C41F5801132462B4600F061F903B0AB
:100C8000BDE8F08F40462146F9E7001B61EB020109
:100C9000001C41F5801300185B412018A2F50017D5
:100CA00047EB030140EAD570B6196D4111E06D08BC
:100CB0004FEA360645EAC0754FEA0752001B61EB62
:100CC0000201001C41F5801149084FEA300000196B
:100CD000514132462B4603B0BDE8F04F00F021B938
:100CE0000098012240000023D0EB020263EBE07386
:100CF000009821464FEAE074B8EB000061EB040174
:100D0000E9E783F000435BE781F0004158E72DE914
:100D1000FE4F81EA030404F0004421F000410094F6
:100D20004FF0000B23F0004350EA01045ED052EA7A
:100D300003045BD0C3F30A54C1F30A552C44A4F254
:100D4000F3340194A0FB0254C1F3130141F4801168
:100D5000C3F3130343F4801301FB024400FB034E6F
:100D6000840A970A44EA815447EA8357A4FB076838
:100D700002958D0A05FB07854FEA932C04FB0C5462
:100D80002705029D4FEA065847EA1637B5EB0805D6
:100D90006EEB070C870E920E47EA811742EA831228
:100DA000A7FB0201B6EB0B0164EB00042B0D43EA39
:100DB0000C335E1844EB1C50DA465146E7FB020147
:100DC000C5F313044FEA0B3343EA14534FEA0432DA
:100DD000019C43EA0603A4F10C040294009CCDE9B3
:100DE00000B400F0ADF803B0BDE8F08F002001467C
:100DF000F9E70EB5C10F80EAE0700844CA07002188
:100E000040F233438DE80E000A460B4600F098F896
:100E100003B000BD00F0004230F000400AD0C10D28
:100E200001F56071C0F3160042EA0151C2084007A3
:100E30001143704700200146704701F0004330B471
:100E400021F0004150EA010206D00A0DA2F56072BD
:100E5000C1F31301002A02DC30BC00207047440FAC
:100E600044EAC104C100E01830BC00EBC25000F0FD
:100E700021B8202A04DB203A00FA02F10020704752
:100E80009140C2F1200320FA03F3194390407047C8
:100E9000202A06DBCB17203A41FA02F043EAE0733E
:100EA00006E041FA02F3D040C2F12002914008432B
:100EB000194670470029A8BF7047401C490008BF69
:100EC00020F00100704710B4B0FA80FC00FA0CF07A
:100ED00050EA010404BF10BC704749B1CCF12004B2
:100EE00021FA04F411FA0CF118BF0121214308433F
:100EF000A3EB0C01CB1D4FEA00614FEA102042BF6B
:100F0000002010BC704700EBC35010440029A4BF60
:100F100010BC7047401C490008BF20F0010010BC05
:100F2000704710B5141E73F1000408DA401C41F13B
:100F3000000192185B411A4301D120F0010010BD5D
:100F40002DE9F04D92469B4611B1B1FA81F202E0D3
:100F5000B0FA80F220329046FFF78BFF04460F462E
:100F600040EA0A0041EA0B0153465A46084313D0AF
:100F7000114653EA010019D0C8F140025046FFF76C
:100F8000EBFD05460E46504659464246FFF771FFB7
:100F9000084305D0012004E020463946BDE8F08D25
:100FA0000020054346EAE0762C4337430A98630560
:100FB000E40AA0EB08000022FD0A44EA47540A3084
:100FC00002D500200146E9E7010510196941DDE974
:100FD000084500196941BDE8F04DA2E7064C074DF0
:100FE00006E0E06840F0010394E8070098471034F9
:100FF000AC42F6D3FFF7CCF8D8730008F8730008BA
:1010000070B58C1810F8015B15F0070301D110F8CA
:10101000013B2A1106D110F8012B03E010F8016BF7
:1010200001F8016B5B1EF9D12B0705D40023521E7A
:101030000DD401F8013BFAE710F8013BCB1A921CE2
:1010400003E013F8015B01F8015B521EF9D5A142E0
:10105000D8D3002070BD000070B5684D68492DEDF3
:10106000048BB5F9000000EE100A6648B8EEC00A1D
:1010700004F09CF9634A6249E43282ED000AB5F952
:10108000020000EE100AA2F1CC00B8EEC00A04F093
:101090008DF982ED010AB5F90400594900EE100AF4
:1010A0005848B8EEC00A303004F080F9554982ED56
:1010B000020A783992ED000A01F1300004F076F965
:1010C000504EB436A6F5967186ED000A92ED010AEF
:1010D00001F1480004F06AF986ED010AA6F596715F
:1010E00092ED020A01F1600004F060F9464886EDD5
:1010F000020AB0EE408A90ED000A4448444CD0ED1C
:10110000000A70EE600AB0EEE00A10EE100AB0F1CC
:10111000804F1CDD10EE900AFFF77CFE9FED3D1B1B
:1011200053EC112BFFF7F3FD9FED3C1B53EC112B00
:10113000FFF7EDFD41EC190BE068FFF76BFE53EC98
:10114000192BFFF73DFDFFF778FEA06003E094ED5B
:10115000030A84ED020A94ED030A324A84ED020A7E
:10116000D6ED000A94ED001A38EE400A254970EEDB
:10117000C10A6039C2ED000AD6ED010A94ED011AE8
:1011800070EEC10AC2ED010A82ED020AB5F906004D
:1011900000EE100A01F1A800B8EEC00A04F006F94A
:1011A000184BC433A3F5927183ED000AB5F908001A
:1011B00000EE100A01F1C000B8EEC00A04F0F6F823
:1011C00083ED010AB5F90A000E4900EE100A6039F4
:1011D00001F1D800B8EEC00A04F0E8F883ED020A85
:1011E000D3ED000AC2ED040AD3ED010AC2ED050AEF
:1011F00082ED060ABDEC048B70BD00006006002085
:10120000F40000203C080020280000202C000020D2
:1012100030090020B81E85EB51B88E3F000000E079
:101220004D6230405C0700203EB5012211024FF0B4
:10123000904001F0C1F8012000F0ECFF04227D2174
:10124000012000F0A3F8372000F0E4FF00227C2109
:10125000012000F09BF82F48D0E90112CDE90012DF
:1012600000680290372000F0D5FF0021084600F00A
:101270005DF80F2817D100244FEA0D0505EB440057
:1012800015F814104278002000F080F8012000F0DA
:10129000C1FF641CE4B2042CF0D30021012000F053
:1012A00045F81E2801D000203EBD00240DF10805A0
:1012B00005EB440015F814104278012000F066F8A0
:1012C000012000F0A7FF641CE4B2022CF0D300213F
:1012D000114802F0BFFAB1EE041AF1EE040A9FEDD4
:1012E0000F0A4FF448734FF47A7200210C4804F04F
:1012F00041FA0C48F3EE0B0A90ED000A084805F09D
:1013000001FEBCEEC00A084910EE100A0860012078
:101310003EBD0000EC720008B80400200000C84286
:10132000B80A002028000020344801402DE9F0418F
:1013300041F080044FF09046FF2710B1012822D1E0
:101340000CE000222021304601F036F847EA042064
:1013500004F042FA0122C5B2202111E04FF4807856
:1013600000224146304601F027F847EA042004F005
:1013700033FA4FF6FF7004F02FFA050A01224146B6
:10138000304601F019F82846BDE8F0812DE9F0411A
:101390001546040001F07F064FF090474FF4807827
:1013A0004FF0000210D04146384601F005F845EAFA
:1013B000062004F011FA4FF001023CB141463846D4
:1013C000BDE8F04100F0F8BF2021EDE72021F6E76D
:1013D0002DE9FF414FF0904600222021304600F0D9
:1013E000EBFF48F2FF2004F0F7F9ADF8000001240C
:1013F0006F464FF6FF75284604F0EEF927F8140003
:10140000641CE4B2042CF6D301222021304600F003
:10141000D3FF4FF4807800224146304600F0CCFFE5
:1014200049F2FF2004F0D8F9002402AF284604F066
:10143000D3F927F81400641CE4B2032CF6D301227C
:101440004146304600F0B8FFBDF80220BDF800006C
:1014500002F47F41C0B201431148D2B20180BDF80D
:10146000041001F47F4313434380BDF80620C9B242
:1014700002F47F420A438280BDF808100A0242EA61
:101480001121C180BDF80A100A0242EA112101812E
:10149000BDF80C100A0242EA11214181BDE8FF812A
:1014A0006006002070B54FF480754FF09046002222
:1014B0002946304600F080FF4AF2FF2004F08CF904
:1014C0004FF6FF7004F088F90446012229463046A1
:1014D00000F072FF200AC4F3421101EBC000B0F526
:1014E000806F01D3A0F50060FFF783FC9FED081B20
:1014F00053EC112BFFF70BFC9FED071B53EC112B4B
:10150000FFF75EFBFFF799FC0549086070BD00001E
:10151000000000000000C03F000000000000374055
:101520002800002010B5FFF753FFFFF7BBFFFFF7C0
:1015300093FD1B48DFED190A90ED000A194805F0EC
:10154000E1FCB5EEC00A1848F1EE10FA80ED010A90
:1015500003D29FED160A80ED010A154ABCEEC00ABF
:10156000126810EE101A51631249002291ED020A1E
:10157000114980ED000AA1F1500000F05EFA0E4919
:101580000422A1F14C0000F058FA0B49BDE81040CC
:101590000822A1F1480000F050BA000000002042EB
:1015A00028000020B80A0020E80000200000000009
:1015B000B804002044070020AC070020B6EE000A63
:1015C000D2ED020AF0EE401A92ED031A40EEE01A54
:1015D00090ED002AD2ED012AD0ED013A22EEA03A98
:1015E00041EE411A21EE822AD2ED001A01EEC13AF3
:1015F00022EE811A01EEA01A03EE232AD0ED020A90
:10160000F0EE001A01EE202A62EE210AC1ED000A76
:1016100092ED011AD2ED023A92ED002AD2ED030AC0
:1016200061EE232A90ED003A90ED014A42EE202A25
:1016300062EE832AB0EE403A01EE413A00EEE03A23
:1016400063EEA00A42EE410A43EE042A90ED021A2C
:1016500040EE812A62EEA10AC1ED010A92ED011A63
:10166000D2ED032AD2ED020A92ED003A21EE222AAF
:1016700060EEA22AD0ED003A01EE410A03EE602AA4
:1016800043EE012A90ED013A00EEE00A22EE232A11
:10169000D0ED020A02EE832A00EE202A22EE210A71
:1016A00081ED020A7047FEE710B50B48DFED0B0A2B
:1016B0002DED028B9FED0A8AB0EE480A04F036F950
:1016C000B0EE480ABDEC028BF3EE0E0A0248BDE80C
:1016D0001040183004F02AB9C40700200000484226
:1016E00000007A449FED0A1A80ED001A80ED051A79
:1016F00080ED090AC0ED0A0AB7EE000A80ED070A7C
:1017000080ED081A80ED0B0A80ED011A7047000089
:10171000000000002DE9F0410C46054601F10C03E4
:10172000012202210C30FEF7CFFD04F11403012247
:10173000022105F11400FEF7C7FD04F11C0301228C
:10174000022105F11C00FEF7BFFD022205F1240075
:1017500004F1740311460746FEF7B6FD022205F1B7
:101760002C0004F1840311468046FEF7ADFD0222F1
:1017700004F19403114605F14400FEF7A5FD022291
:1017800004F1A403114605F14C00FEF79DFD022271
:1017900004F14403114605F15400FEF795FD0222C1
:1017A00004F12403114605F15C00FEF78DFD0222D1
:1017B00004F13403114605F16400FEF785FD0222B1
:1017C00005F1340004F1540311460646FEF77CFD92
:1017D00031463846FFF736F904F16403022205F179
:1017E0003C0011460446FEF76FFD21464046BDE829
:1017F000F041FFF727B90000014800F057BC000096
:10180000AC050020014800F051BC00006805002034
:10181000054A016811441422B1FBF2F18900016408
:101820000249C16370470000F8FFFDBF000002409D
:1018300030B590F840500124AC40C56B6C60046832
:1018400063604368102B036803D099600068C2602E
:1018500030BD9A600068C16030BD0000074808B51F
:1018600040680090014606480269914202D2C16870
:10187000491CC1600099016108BD0000001000E032
:10188000A800002000B50E492DED028B81B04968FB
:1018900000910168009A511A00EE101A0949F8EEF9
:1018A000400A91ED000A0260B8EE400A80EE808A9C
:1018B000FFF7D4FF01B0B0EE480ABDEC028B00BDCB
:1018C000001000E0A80000200D490A6842F0807274
:1018D0000A600C4900224A600B6843F001030B6068
:1018E00009494FF47A734843B0FBF3F30749C1E960
:1018F0000003054BB0FBF3F0C1E9020270470000A2
:10190000FCED00E0001000E040420F00A8000020C5
:1019100010B50548002404210470044801F09AFF22
:101920004FF08040846310BDF00000203804002098
:101930004FF47A7010B5C1068863C82000F06AFCC5
:1019400001490120087010BDF00000207047B6EE7C
:10195000000AD2ED020AF0EE401A92ED031A40EEB0
:10196000E01A90ED002AD2ED012AD0ED013A22EEE4
:10197000A03A41EE411A21EE822AD2ED001A01EE80
:10198000813A22EE811A01EEE01A03EE232AD0ED0D
:10199000020AF0EE001A01EE202A62EE210AC1EDE1
:1019A000000A92ED011AD2ED023A92ED002AD2ED30
:1019B000030A61EE232A90ED003A90ED014A42EECF
:1019C000602A62EE832AB0EE403A01EE413A00EE20
:1019D000E03A63EEA00A42EE010A43EE042A90EDDB
:1019E000021A40EE812A62EEA10AC1ED010A92EDCF
:1019F000011AD2ED032AD2ED020A92ED003A21EE4D
:101A0000222A60EEA22AD0ED003A01EE410A03EE4E
:101A1000202A43EE412A90ED013A00EEE00A22EE40
:101A2000232AD0ED020A02EE832A00EE202A22EEBB
:101A3000210A81ED020A7047704703788B541144E4
:101A400043784B7082788A70C078C8707047F0B560
:101A500090F820500468A468012D05D0022D03D011
:101A6000416A41F4802153E014F0406F01D1E50058
:101A70004BD5C4F30164022C03D9416A41F400013F
:101A800046E00125A5401D608D684FF4C0739DB1EF
:101A9000CE6835434E6845EAC605066803EB041771
:101AA000F5514FF4C275076805EB04150E697E51B8
:101AB000097D012905D009E00E88CD6845EA465523
:101AC000EBE701684E5946F480764E511179D2F811
:101AD00005504FF4C67641EA0525016806EB041669
:101AE0008D511178D2F801204FF4C47541EA0221DA
:101AF000026805EB04155151006803EB04114258CC
:101B000042F0010242500020F0BD416A41F4001150
:101B100041620120F0BD000010B590F8203002684D
:101B2000012B07D0022B05D0416A41F4802141628C
:101B3000012010BDD2F8000240F00100C2F80002FE
:101B4000087D00F01F0301209840D2F81C32834327
:101B5000C2F81C32CB69B3B9D2F80C328343C2F855
:101B60000C328C894B6864F31F434C6902EBC4044C
:101B7000C4F840320C890B6864F31F434C6902EBD4
:101B8000C404C4F84432CB69012B16D1D2F80C320C
:101B90000343C2F80C320C884B6864F31F434C6952
:101BA00002EBC404C4F840320C89CB6864F31F43D1
:101BB0004C6902EBC404C4F844328B69002BD2F8A0
:101BC00004320FD053EA0003C2F804320B69002B31
:101BD000D2F8143208D00343C2F81432096A01293A
:101BE00004D008E08343EFE78343F5E7D2F81C1203
:101BF0000143C2F81C12D2F8000220F00100C2F822
:101C00000002002010BD70470246002092F820100C
:101C1000012901D002290CD111688A68520100D52E
:101C200001208A68120100D5401C8968C90000D5CE
:101C3000401C70472DE9F05F0546006800244669A6
:101C4000D0F804908768D0F80CB0D0F810A0D0F885
:101C50001880F10748D0F90714D001218160B80736
:101C600003D5284600F0DFF90CE0780702D54FF4E1
:101C7000006407E0380702D54FF4805402E028469C
:101C800000F0D0F9F80516D529684FF48070886007
:101C9000B80503D5284600F0C8F90CE0780502D550
:101CA00044F4005407E0380502D544F4804402E0CF
:101CB000284600F0B9F9F80316D529684FF48030AA
:101CC0008860B80303D5284600F0B1F90CE078032A
:101CD00002D544F4004407E0380302D544F48034CC
:101CE00002E0284600F0A2F9300707D55FEACB6092
:101CF00004D52968102044F40074C86070074FF0C0
:101D0000080707D55FEA0B7004D52868C760284626
:101D100000F056F9B00706D52868C068800702D0E1
:101D2000284600F04EF9700607D55FEACA6004D570
:101D30002968102044F480640861B00607D55FEA82
:101D40000A7004D528680761284600F03BF9F006C0
:101D500006D528680069800702D0284600F033F9CC
:101D6000B00308D55FEAC96005D52968102048602E
:101D7000284600F029F9F00307D55FEA097004D579
:101D800028684760284600F053F9300446D55FEADA
:101D9000497040D5F00504D55FEAC87001D044F021
:101DA0000104B00504D55FEA887001D544F002044F
:101DB000700504D55FEA487001D544F0040430058D
:101DC00029D518F0700F26D008F07000402815D0E3
:101DD00006DC102809D020280AD0302816D10AE0C5
:101DE00050280ED0602811D10EE044F008040DE018
:101DF00044F010040AE044F0200407E044F04004FA
:101E000004E044F0800401E044F4807428688169AF
:101E100021F070018161296804204860002C05D000
:101E2000686A204368622846FFF7EDFEBDE8F09F30
:101E300070B5040003D094F8200010B104E0012034
:101E400070BD204600F082F82068016821F0020190
:101E5000016000F0B7FA0546052604E000F0B2FA8A
:101E6000401B0A2811D8206840688007F6D42068F3
:101E7000016841F00101016000F0A4FA05460BE0A1
:101E800000F0A0FA401B0A2806D9606A40F400302E
:101E9000606284F82060D2E720684068C007EFD015
:101EA000207E0128206801683DD021F0800101607A
:101EB000607E01282068016838D021F0400101606F
:101EC000A07E01282068016833D021F02001016044
:101ED000E07E0128206801682ED041F010010160E9
:101EE000207F01282068016829D021F008010160C5
:101EF000607F01282068016824D021F0040101607E
:101F0000D4E902010843D4E904121143084361688B
:101F1000491E08432168C86100206062012084F8DE
:101F20002000002070BD41F08001C0E741F0400179
:101F3000C5E741F02001CAE721F01001CFE741F0E9
:101F40000801D4E741F00401D9E7000010B586B0DC
:101F5000044614216846FEF728FE17492068884287
:101F600027D11648C16941F00071C161C16901F012
:101F700000710591416941F4003141614069694650
:101F800000F4003005904FF4C05000900220019002
:101F9000002002900320039009200490C00600F066
:101FA0004BF900221146132000F088FA132000F0AC
:101FB00079FA06B010BD0000006400400010024035
:101FC00070477047704770477047000070B504460F
:101FD00090F82000012804D0606A40F4002060627C
:101FE00018E0022084F820002068016821F0010137
:101FF000016000F0E7F905460EE000BF00F0E2F9ED
:10200000401B0A2808D9606A40F40030606205204D
:1020100084F82000012070BD20684068C007EDD121
:10202000606270BD70477047704770477047704777
:10203000704701680A6822F00E020A6001680A68A7
:1020400022F001020A6090F84020C36B012101FADE
:1020500002F25A6080F82110002180F82010084612
:10206000704710B590F821100024022903D00421F4
:102070008163012418E001680A6822F00E020A60F8
:1020800001680A6822F001020A6090F84020C36BE0
:10209000012101FA02F25A6080F82110002180F833
:1020A0002010416B01B18847204610BDF0B4C16BD0
:1020B0000D6801680C68066C042202FA06F32B42D4
:1020C0000FD063070DD50B689B0603D40B6823F074
:1020D00004030B6090F840108A40C16B4A60C16AEB
:1020E0001BE0022303FA06F72F424FF0000C4FF0DB
:1020F000010216D0A70714D50C68A40605D40C68F5
:1021000024F00A040C6080F8212090F840108B40E5
:10211000C16B4B6080F820C0816A002918D0F0BCE8
:1021200008470823B3402B4212D0230710D50B6871
:1021300023F00E030B6090F84010C36B02FA01F11C
:102140005960826380F8212080F820C0016BE4E7A9
:10215000F0BC704770B5040021D0022084F8210043
:102160002268116843F6F0708143D4E901031843F3
:10217000D4E903352B43184363691843A369184313
:10218000E3691843084310602046FFF741FB002035
:10219000A063012184F8211084F8200070BD012083
:1021A00070BD70B5044690F82000002501280CD0C1
:1021B000012084F8200094F821600020012E06D030
:1021C00084F820000225284670BD022070BD02263A
:1021D00084F82160A0632068066826F00106066086
:1021E0002046FFF725FBE06A00282068016802D03E
:1021F00041F00E0106E041F00A010160206801682B
:1022000021F0040101602068016841F001010160D2
:10221000D9E7000070B5044600F0D4F80546601C0C
:1022200002D004480078044400F0CCF8401BA042DF
:10223000FAD370BD040000202DE9F84FDFF860B13B
:1022400000234FF0010C4FF0030A4FF00F090BF180
:10225000040E9DE00CFA03F6344022007ED04C6858
:10226000022C01D0122C0ED1DC0800EB8408D8F827
:1022700020405D07EF0E09FA07F5AC430D69BD403C
:102280002543C8F8205007685D0091F804800AFAD9
:1022900005F408F00308A74308FA05F848EA070818
:1022A000C0F800804F68012F05D0022F03D0112FF6
:1022B00001D0122F11D18768D1F80C80A74308FAFA
:1022C00005F848EA0708C0F808804768B7430E7960
:1022D000C6F300169E403E434660C668A6438C681F
:1022E000AC403443C4604C68E40050D52D4CA56923
:1022F00045F00105A561A46923F0030504F001047C
:102300000094294C2E19B4689D072F0F09FA07F580
:10231000AC43B0F1904F04D0244DA84203D1012525
:102320000CE000250AE0224DA84201D1022505E07B
:10233000204DA84201D1032500E00525BD402543DD
:10234000B560DBF800405D464E689443F60300D567
:1023500014432C607546DEF8004000E017E04E683C
:102360009443B60300D514432C600D4D08352C68FA
:102370004E689443F60200D514432C60084D0C358A
:102380002C684E689443B60200D514432C605B1C45
:102390000A681446DA407FF45DAFBDE8F88F0000AC
:1023A0000004014000100240000001400004004809
:1023B00000080048000C00480AB181617047816242
:1023C000704700000148806870470000040000204A
:1023D000024881680278114481607047040000203F
:1023E000074810B5016841F010010160032000F0BA
:1023F00085F8002000F006F800F03EF8002010BD3F
:102400000020024000B5014687B00022362000F0CF
:1024100055F8362000F046F81348C16941F0100124
:10242000C161C06905A900F010000690684600F07F
:1024300013FA00F031FA0D494000B0FBF1F10D48FC
:102440000B4A491E0260416040F2E7320021C0E9B8
:102450000321816000F066FF10B1012007B000BDCC
:10246000044800F0BDFFF9E70010024040420F00B1
:1024700000100040F0050020094808B5816941F0CE
:1024800001018161816901F001010091C16941F09F
:102490008051C161C06900F08050009008BD00000B
:1024A0000010024000F01F0201219140400980000D
:1024B00000F1E020C0F8001170470000F0B40E4BAE
:1024C0001B680C46C3F30223C3F10705042D00D992
:1024D0000425191D072901D2002300E0DB1E012677
:1024E00006FA05F1491E214099409E40761E16408D
:1024F0003143F0BC03F02EB90CED00E0064900F0CA
:10250000070208684FF6FF03184040EA0220034A1A
:1025100010430860704700000CED00E00000FA0571
:102520002DE9F84F05460068774CC0036FD5E06988
:102530000026C00008D4E06940F08050E061E06906
:10254000012600F08050009070480168C90512D43F
:102550000168804641F480710160FFF733FF074650
:1025600005E000BFFFF72EFFC01B642835D8D8F860
:102570000000C005F6D5206A10F4407053D0A98839
:1025800001F4407181424ED0206A4FF4803191FABB
:10259000A1F2B2FA82F297005D4A4FF001081744A7
:1025A00020F44070C7F8008491FAA1F1B1FA81F1EA
:1025B00002EB81010023C1F800342062C00732D051
:1025C000FFF700FF074641F2883A4FF0020907E0A3
:1025D000FFF7F8FEC11B514502D90320BDE8F88F73
:1025E00099FAA9F1B1FA81F141F040014846B8EBFE
:1025F000511F01D121680CE090FAA0F1B1FA81F1EC
:1026000041F04001B0EB511F02D1216A01E015E019
:10261000616A99FAA9F0B0FA80F000F01F0008FA98
:1026200000F21142D4D0206A696820F44070084357
:1026300020621EB1E06920F08050E0612878C00778
:1026400005D0206BA96820F0030008432063287898
:10265000800605D5206BE96820F010000843206350
:102660002868800305D56068296B20F48000084342
:1026700060602878400605D5206B296920F020008D
:10268000084320632888000405D5206B696920F081
:102690004000084320632888800505D56068E96903
:1026A00020F40000084360602878000605D5E06A41
:1026B000A96920F4F8700843E0622888C00405D5B1
:1026C000206B296A20F48070084320632868400347
:1026D00005D5206B696A20F4806008432063286870
:1026E000000305D5206BA96A20F40060084320632D
:1026F0002868C00205D5206BE96A20F40050084321
:10270000206300206AE700000010024000700040D3
:10271000000042422DE9F0470F46050069D04A4EBD
:10272000306800F00700B84209D2306820F0070096
:1027300038433060306800F00700B84259D128783B
:10274000424C800705D56068A96820F0F000084376
:1027500060602878C0073DD06968012001290DD04C
:10276000022923D05FF0020393FAA3F2B2FA82F2B5
:1027700042F02002520904D0226803E04FF40033F3
:10278000F2E7626A93FAA3F3B3FA83F303F01F0349
:10279000984002422DD0606820F00300084360603A
:1027A000FFF710FE804641F288390CE04FF00073CD
:1027B000DAE700BFFFF706FEA0EB0801494502D9A2
:1027C0000320BDE8F0876068696800F00C00B0EB9A
:1027D000810FEFD1306800F00700B8420BD93068A4
:1027E00020F0070038433060306800F00700B8423E
:1027F00001D00120E5E72878400705D56068E96841
:1028000020F4E060084360602878000706D560681F
:10281000296920F4605040EAC100606000F06CF863
:102820006168F02292FAA2F201F0F001B2FA82F2AB
:10283000D140074A515CC840064908600020FFF7B4
:10284000E1FD0020BDE70000002002400010024032
:10285000B4720008000000200F2202600C4A536886
:1028600003F003034360536803F0F003836053688D
:1028700003F4E063C36052684FF4E06303EAD202FA
:1028800002610448006800F007000860704700001B
:1028900000100240002002400848094900684968C9
:1028A0004FF4E06292FAA2F201F4E061B2FA82F22D
:1028B000D140044A515CC84070470000000000202D
:1028C00000100240C47200080848094900684968BD
:1028D0004FF4605292FAA2F201F46051B2FA82F21D
:1028E000D140044A515CC8407047000000000020FD
:1028F00000100240C4720008154B10B55A68154804
:1029000002F00C01042902D0082901D0401010BDAA
:102910004FF4701494FAA4F402F47011B4FA84F42D
:10292000E1400D4CDB6A615C0F2494FAA4F403F0DF
:102930000F03B4FA84F4E340074C1034D203E35C91
:1029400003D5B0FBF3F0484310BD0448484310BD25
:10295000001002400024F400CC72000800093D0081
:102960002DE9F84F040071D02078FB4DC0074FF0DF
:10297000010625D068687704C0F38100012807D0DC
:102980006868C0F3810002281BD16868C00318D5AD
:1029900097FAA7F0B0FA80F040F02000400901D08B
:1029A000286800E0686A97FAA7F1B1FA81F101F0AE
:1029B0001F0106FA01F1084265D060680028D2D0F4
:1029C00061E06068B0F5803F0BD010B1B0F5A02F8A
:1029D00017D0286820F480302860286820F48020F0
:1029E00002E0286840F480302860E86AA16820F09E
:1029F0000F000843E862606820B3FFF7E3FC8046FD
:102A00000AE0286840F480202860EAE7FFF7DAFC53
:102A1000A0EB0800642872D897FAA7F0B0FA80F00B
:102A200040F02000400901D0286800E0686A97FA69
:102A3000A7F1B1FA81F101F01F0106FA01F1084294
:102A4000E4D020E0FFF7BEFC804607E0C7E000BF0F
:102A5000FFF7B8FCA0EB08006428DCD897FAA7F0D1
:102A6000B0FA80F040F02000400901D0286800E072
:102A7000686A97FAA7F1B1FA81F101F01F0106FA2D
:102A800001F10842E4D12078DFF8D08280074FF0CE
:102A9000000A4FF0020759D568684FF0F80B10F0A4
:102AA0000C0F07D06868C0F3810002281BD168684A
:102AB000C00318D497FAA7F0B0FA80F040F02000D5
:102AC000400901D0286800E0686A97FAA7F1B1FAD6
:102AD00081F101F01F0106FA01F108422BD02069B3
:102AE00001287CD127E0206988B396FAA6F0B0FAD5
:102AF00080F048F82060FFF765FC814606E055E16C
:102B0000FFF760FCA0EB0900022884D897FAA7F031
:102B1000B0FA80F040F02000400901D0286800E0C1
:102B2000686A97FAA7F1B1FA81F101F01F0106FA7C
:102B300001F10842E4D028689BFAABF26169B2FA6D
:102B400082F220F0F80091400843286025E0FFE77A
:102B500096FAA6F1B1FA81F148F821A0FFF732FC0C
:102B6000814605E0FFF72EFCA0EB09000228CCD837
:102B700097FAA7F0B0FA80F040F02000400901D0A9
:102B8000286800E0686A97FAA7F1B1FA81F101F0CC
:102B90001F0106FA01F10842E4D1207800076AD546
:102BA000A069A0B396FAA6F0B0FA80F008EB800016
:102BB000C0F88064FFF706FC814605E0FFF702FCE1
:102BC000A0EB09000228A0D897FAA7F0B0FA80F08D
:102BD00040F06000B6EB501F02D128680CE077E1AE
:102BE00097FAA7F0B0FA80F040F06000B7EB501F02
:102BF00001D1286A00E0686A97FAA7F1B1FA81F179
:102C000001F01F0106FA01F21042D7D033E0FFE7CE
:102C100096FAA6F0B0FA80F008EB8000C0F880A425
:102C2000FFF7D0FB814605E0FFF7CCFBA0EB0900E6
:102C300002289CD897FAA7F0B0FA80F040F0600024
:102C4000B6EB501F01D128680BE097FAA7F0B0FA55
:102C500080F040F06000B7EB501F01D1286A00E01F
:102C6000686A97FAA7F1B1FA81F101F01F0106FA3B
:102C700001F21042D8D12078400774D5E8694FF0AE
:102C80000009C00009D4E86940F08050E861E869B3
:102C90004FF0010900F08050009031480168C905EB
:102CA00012D4016841F480710160FFF78BFB834609
:102CB00006E000BFFFF786FBA0EB0B00642875D889
:102CC00027480068C005F5D5E06801280AD008B19A
:102CD000052811D0286A20F001002862286A20F017
:102CE000040002E0286A40F001002862E068C8B3EE
:102CF000FFF768FB83460DE0286A40F00400286275
:102D0000F0E700BFFFF75EFBA0EB0B0141F288305C
:102D100081424BD897FAA7F0B0FA80F040F040001B
:102D2000B6EB501F01D128680BE097FAA7F0B0FA74
:102D300080F040F04000B7EB501F01D1286A00E05E
:102D4000686A97FAA7F1B1FA81F101F01F0106FA5A
:102D500001F21042D6D035E000100240000042429D
:102D60000070004000E034E0FFF72CFB834607E0F2
:102D7000FFF728FBA0EB0B0141F28830814215D808
:102D800097FAA7F0B0FA80F040F04000B6EB501F81
:102D900001D128680CE097FAA7F0B0FA80F040F073
:102DA0004000B7EB501F02D1286A01E083E0686A57
:102DB00097FAA7F1B1FA81F101F01F0106FA01F2C9
:102DC0001042D5D1B9F1000F03D0E86920F080504E
:102DD000E861E06980B36968C1F38101022977D0B5
:102DE0004FF080714F00022809D091FAA1F0B0FA9B
:102DF00080F048F820A0FFF7E5FA04465EE0504670
:102E00008A4691FAA1F1B1FA81F1C14648F8210050
:102E1000FFF7D8FA804605E0FFF7D4FAA0EB0800E8
:102E2000022848D897FAA7F0B0FA80F040F02000C6
:102E3000400902D0286801E056E0686A97FAA7F1D5
:102E4000B1FA81F101F01F0106FA01F10842E3D164
:102E5000D4E908100843696821F4741108436860D4
:102E60009AFAAAF0B0FA80F049F82060FFF7AAFABF
:102E7000044604E0FFF7A6FA001B02281BD897FAC5
:102E8000A7F0B0FA80F040F02000400901D0286897
:102E900000E0686A97FAA7F1B1FA81F101F01F0129
:102EA00006FA01F10842E5D01EE000BFFFF78AFAFA
:102EB000001B022802D90320BDE8F88F97FAA7F07B
:102EC000B0FA80F040F02000400902D0286801E00C
:102ED0000CE0686A97FAA7F1B1FA81F101F01F01DD
:102EE00006FA01F10842E1D10020E5E70120E3E71D
:102EF0002DE9F041040005D00025A56294F85D009D
:102F000018B107E00120BDE8F08184F85C5020464C
:102F100000F04AF8022384F85D302068016821F04F
:102F200040010160E0684FF4E066B04201D9002141
:102F300001E04FF48051B0F5706F02D0B04200D084
:102F4000A562276B012227B9B04201D9236300E0B3
:102F50002263D4E901031843D4E904363343184308
:102F6000238B03F400731843E3691843236A18435F
:102F7000A36A184323681860636B606AA6691843E4
:102F80000427E36807EA16463343184308432168D9
:102F900048602068C16921F40061C161256684F838
:102FA0005D200020AFE7000010B586B00446142174
:102FB0006846FDF7FAFD1249206888421ED1114883
:102FC000C16941F40041C161C16901F40041059149
:102FD000416941F4802141614069694600F48020E3
:102FE00005903820009002200190002002900320DC
:102FF0000390062004900448FFF71EF906B010BDA8
:10300000003C004000100240000400482DE9F05F41
:10301000044690F85C0000260A9F994692460D46A9
:103020004FF0010801280ED0012084F85C00FFF762
:10303000C9F9834694F85D00616801280CD0B1F5A8
:10304000827F07D102E00220BDE8F09FA16809B9A4
:10305000042801D00226F0E0002D79D0BAF1000F4B
:10306000FBD0B9F1000FF8D094F85D00042802D02D
:10307000052084F85D0000202066C4F840A0A4F874
:103080004690A4F84490A563A4F83E90A4F83C9020
:10309000E0642065E0684FF4E061884203D8B4F84A
:1030A0004600012804D92068426822F4805203E0D7
:1030B0002068426842F480524260206802685206EA
:1030C00003D4026842F040020260E068884260680F
:1030D0003FD910B1E08F012832D1216835F8020BB9
:1030E000C860E08F401EE0872AE000BFB8F1000F03
:1030F0000DD0E08F58B120688168890707D535F871
:10310000021BC160E08F401EE0874FF00008B4F85A
:10311000460068B120688168C90709D0C0682AF8EC
:10312000020BB4F84600401EA4F846004FF0010818
:10313000781C05D0FFF746F9A0EB0B00B84268D227
:10314000E08F0028D2D1B4F846000028CED169E043
:1031500072E010B1E08F01285DD1E08F012806D91F
:10316000216835F8020BC860E08F801E05E02068FA
:1031700015F8011B0173E08F401EE0874BE000BF94
:10318000B8F1000F16D0E08FA0B1206881688907E0
:1031900010D5E18F012905D935F8021BC160E08FF8
:1031A000801E04E015F8011B0173E08F401EE087CC
:1031B0004FF00008B4F8460018B320688168C907CA
:1031C0001FD0B4F84610012911D9C0682AF8020BA3
:1031D000B4F84600801EA4F84600B4F84600012862
:1031E0000DD82068416841F48051416007E0017BBF
:1031F0000AF8011BB4F84600401EA4F846004FF040
:103200000108781C07D0FFF7DDF8A0EB0B00B842EF
:1032100001D3032611E0E08F0028B1D1B4F84600B5
:103220000028ADD15A463946204602F0B0FA08B11E
:1032300020202066206E00B10126012084F85D0068
:10324000002084F85C003046FEE670477047704707
:1032500030B590F83C20012A3AD0012280F83C2079
:10326000CA688C6822F4407222434C6822F480625F
:1032700022430C6822F4006222430C6922F480523B
:1032800022434C6922F4005222438C6A22F4804289
:10329000224322F4004222430C8B22F4702242EAA1
:1032A00004420C4D04680023AC420CD18D8C22F4F6
:1032B000700242EA0552CD6922F080722A43096AFF
:1032C00022F000720A43626480F83C30002030BD76
:1032D000022030BD002C014030B590F83C20012A7E
:1032E0001CD0012280F83C2003685A689C680C4D71
:1032F000AB4203D122F470054A682A4322F07005DC
:103300000A6889682A4324F0800421435A600268CD
:103310009160002180F83C10084630BD022030BD8D
:10332000002C014010B5040003D094F83D0010B10A
:1033300007E0012010BD002084F83C00204600F08A
:103340000DF8022084F83D00211D206802F0C2FB28
:10335000012084F83D00002010BD000008B51C4A83
:1033600001681C48914207D1816941F40061816183
:10337000806900F400600CE0B1F1804F14D0164A6F
:10338000914219D1816941F400318161806900F471
:1033900000300022009011461920FFF78FF8BDE899
:1033A00008401920FFF77EB8C16941F00101C161F1
:1033B000C06900F0010009E0084A914207D1816923
:1033C00041F480218161806900F48020009008BD73
:1033D000002C014000100240004401400048014020
:1033E0000168CA6842F00102CA600068016841F0E1
:1033F000010101600020704770B5044690F83C0060
:10340000012817D0012584F83C50022084F83D00A3
:1034100022689068364E304020F47F409060086803
:10342000502839D00DDC20285BD005DC98B310285B
:1034300043D153E0022070BD302855D040283CD104
:1034400041E0602830D070280CD0B0F5805F03D008
:10345000B0F5005F31D112E020688168244A7032F3
:10346000114016E0CB68D1E90121206802F079FB18
:1034700021688868304040F0770088601DE0CB68A4
:10348000D1E90121206802F06CFB2068816841F4D9
:103490008041816011E01EE0CA684968206802F03E
:1034A000D3FC5021206806E0CA684968206802F011
:1034B000DCFC6021206802F05EFB84F83D500020B7
:1034C00084F83C0070BDCA684968206802F0BCFC02
:1034D00040212068EFE700212068ECE710212068F8
:1034E000E9E720212068E6E730212068E3E70000D3
:1034F00088FFFEFF704770B50446006801694FF011
:103500000005C943890715D4C168C943890711D487
:10351000E91E01610120207720688069800720462C
:1035200002D0FFF7E7FF04E000F0E2F8204600F0E9
:1035300090F9257720680169C943490717D4C16804
:10354000C943490713D46FF00401016102202077B9
:103550002068806910F4407F204602D0FFF7CAFF40
:1035600004E000F0C5F8204600F073F925772068E4
:103570000169C943090716D4C168C943090712D4B0
:103580006FF008010161042020772068C06980077E
:10359000204602D0FFF7AEFF04E000F0A9F8204675
:1035A00000F057F9257720680169C943C90617D487
:1035B000C168C943C90613D46FF010010161082026
:1035C00020772068C06910F4407F204602D0FFF7C2
:1035D00091FF04E000F08CF8204600F03AF92577DE
:1035E00020680169C943C90708D1C168C943C9072F
:1035F00004D1891E0161204600F052F9206801695A
:10360000C943090609D4C168C943090605D46FF046
:10361000800101612046FFF719FE20680169C94356
:10362000C90509D4C168C943090605D46FF480717E
:1036300001612046FFF709FE20680169C943490678
:1036400009D4C168C943490605D46FF0400101613E
:10365000204600F045F920680169C94389060BD46A
:10366000C168C943890607D46FF020010161204673
:10367000BDE87040FFF7EBBD70BD000070B586B0CF
:10368000044614216846FDF790FA25680023164980
:10369000022201244FF09040B5F1804F14D0134E18
:1036A000B5420FD14D6945F400354D61496901F4CA
:1036B0000031059180218DE80E00CDE90334694683
:1036C000FEF7BAFD06B070BD4D6945F400354D6199
:1036D0004969009201F4003105910321CDE90231DD
:1036E000019204946946EBE7001002400048014053
:1036F000704770B5044690F83C000D4601280ED086
:10370000012684F83C60022084F83D000C2A45D054
:1037100007DC5AB1042A1BD0082A78D12CE00220F9
:1037200070BD102A4ED0142A71D15DE0206802F0DD
:103730002BFA2068816941F0080181612068816964
:1037400021F004018161206881692A69114311E037
:10375000206802F05DFA2068816941F400618161AE
:103760002068816921F480618161206881692A690A
:1037700041EA022181614AE0206802F089FA20686A
:10378000C16941F00801C1612068C16921F00401EB
:10379000C1612068C1692A69114311E0206802F003
:1037A000B7FA2068C16941F40061C1612068C1694C
:1037B00021F48061C1612068C1692A6941EA02215E
:1037C000C16124E0206802F0D9FA2068416D41F01F
:1037D000080141652068416D21F0040141652068C0
:1037E000416D2A69114311E0206802F0F9FA20685E
:1037F000416D41F4006141652068416D21F48061B3
:1038000041652068416D2A6941EA0221416584F8D9
:103810003D60002084F83C0070BD10B5040003D06A
:1038200094F83D0010B107E0012010BD002084F89D
:103830003C00204600F00CF8022084F83D00211DD9
:10384000206802F047F9012084F83D00002010BDF7
:103850007047704710B504460068012202F076F9FF
:103860000B482168814208D00A48814205D00A48A5
:10387000814202D00948814203D1486C40F40040A3
:1038800048642068016841F001010160002010BD1A
:10389000002C01400040014000440140004801402C
:1038A00010B5044600680B49884201D1FEF790FD2F
:1038B00009492068884205D1FDF734FEBDE8104073
:1038C00000F032BB0549884203D1BDE8104003F047
:1038D00047BA10BD00100040002C014000440140D8
:1038E0007047704710B5044690F8690021280ED142
:1038F0002068816809060AD5816821F0800181600D
:10390000206E08B1FEF795FB204602F0C0FB94F84C
:103910006A0022280ED12068816849060AD581688C
:1039200021F040018160606E08B1FEF782FB204605
:1039300002F092FB002010BD7047000070B50368D4
:103940000446D869196810F00F0508D1820606D51B
:103950008A0604D52046BDE8704002F0A1BB9A68F3
:10396000002D66D002F0010501F490762E4360D060
:10397000C60707D0CE0505D501261E62E36E43F0CB
:103980000103E366830708D5D30706D02668022320
:103990003362E36E43F00403E366430708D5D207BE
:1039A00006D0236804221A62E26E42F00202E26646
:1039B00002070AD501F020022A4306D02368082214
:1039C0001A62E26E42F00802E266E26E002A29D034
:1039D000800604D5880602D5204602F061FBE06E21
:1039E000000703D42068806840061CD5204602F0FA
:1039F00033FB20688168490611D5816821F04001B8
:103A00008160606E58B11C494163606EFEF729FB0E
:103A1000002807D0606E416BBDE870400847204623
:103A2000FFF78AFF70BD2046FFF786FF0020E066A3
:103A300070BDC5020ED552020CD54FF4801018622D
:103A4000202084F8690084F86A002046BDE87040B0
:103A5000FFF747BF020606D50A0604D52046BDE893
:103A6000704002F0FFBB4006E2D54806E0D5204694
:103A7000BDE8704002F0FEBAB35F000810B5040064
:103A800003D094F8690010B107E0012010BD0020B8
:103A900084F86800204600F027F8242084F86900A4
:103AA0002068016821F001010160204602F034FB2A
:103AB0000128EBD0606A10B1204602F0E8F92068D6
:103AC000416821F4904141602068816821F02A0119
:103AD00081602068016841F0010101602046BDE875
:103AE000104002F038BA0000F0B587B00646142145
:103AF0006846FDF75AF82A49306888424ED129486D
:103B0000816941F480418161816901F480410591BD
:103B1000416941F4802141614069002400F4802022
:103B20000590C02000900220CDE9010403200390FD
:103B30000720049069461C48FEF77EFB1C4D1B487D
:103B40008027C5E90004C5E902472C616C61AC61BE
:103B50002846EC61FEF7FEFA08B1FDF76DFF7566C9
:103B60006E62134D11484435143801C5102091C5BB
:103B70000F4845F8104944306C61AC61EC61FEF7C8
:103B8000E9FA08B1FDF758FF3566002211462520F5
:103B90006E62FEF793FC2520FEF784FC07B0F0BDB3
:103BA0000038014000100240000400485800024064
:103BB0006805002070B5044690F86A00202839D1C5
:103BC000A9B3A2B394F86800012833D0012084F887
:103BD00068006165A4F858200025E566222084F875
:103BE0006A00616E144813468862616E1348C862A9
:103BF000616E13480863606E4563666D21683246E6
:103C00002431606EFEF7CDFA84F8685020680168B0
:103C100041F4807101602068816841F00101816098
:103C20002068816841F040018160002070BDFFE79D
:103C30000120FBE70220F9E7116000084F6000084F
:103C4000C75F0008704770477047000070B50446B2
:103C500000203C4D2074A27B288861684243D4F840
:103C6000F400FCF789FFA17B288841436068FCF7DA
:103C70009CFFA07B10FB00F128884143D4F8180179
:103C8000FCF793FF207BA17B10FB01F128884143C7
:103C9000D4F80C01FCF789FF00202BE0D4F8F410D5
:103CA00001EB800292ED000AB5EEC00AF1EE10FAC7
:103CB0001ED0227C01EB820181ED000A227C616A28
:103CC0008854A169227B01EB8001237C91ED000ADD
:103CD0006169095C12FB03116FF0030202EB8101C1
:103CE000D4F80C21114481ED000A217C491C217477
:103CF000401CC0B2A17B8142D0D8002010E0636A92
:103D0000E2691B5C02EB830292ED000A10FB0101E9
:103D1000D4F81821401C02EB8101C0B281ED000AE9
:103D2000217C8142EBD8C8B224F8780F14F86C0CCF
:103D3000608020816181218361832084618424F8F3
:103D4000301C70BD88020020FEE70000124810B54C
:103D5000416986B041F40031416140694FF09044BF
:103D600000F4003005904FF4C060009001200190F5
:103D700002900320039069462046FEF75DFA012277
:103D800091022046FEF718FB012251022046FEF761
:103D900013FB06B010BD000000100240F0B55A4AF7
:103DA0002DED028B87B007CA04AB83E807005748A4
:103DB000FDF768FD554E564D1C3E05F1500486ED4D
:103DC000080AD6ED090A30EE800A86ED090A95ED5B
:103DD000040A84ED070AD5ED050AC4ED080AD5EDFD
:103DE000060AC4ED090A95ED001A84ED041A95ED52
:103DF000011A84ED051A95ED021A84ED061A02F0F7
:103E000009FC9FED448A20EE080ADFED430A80EEAC
:103E1000201A84ED1A1AD4ED090A94ED080A02F06A
:103E2000F9FB20EE080ADFED3D0A04F1100080EEF8
:103E3000201A84ED1B1A96ED083A90EC060A00F061
:103E400025FA374F20468ECF80E88E00024600F1DB
:103E500044012D482438FDF7B1FB2B48224602F1DE
:103E600050011838FDF7AAFB2748224602F15C01F1
:103E70000C38FDF7A3FB2246694604A8FDF767FD51
:103E800096ED080A00206A4604EB800102EB8003ED
:103E9000D1ED070A93ED001A401CC0B270EEC10AC2
:103EA00094ED101A032860EE801A71EE000A81EE7C
:103EB000A02AD1ED0A1A21EE811AC1EE201A72EE63
:103EC000210AC1ED0A0ADFD3114A503202F134014E
:103ED000A1F10C00FDF772FB1248403590ED6A1A13
:103EE00084ED1E1AD0ED690AC4ED1D0A90ED680A32
:103EF00084ED1C0AD0ED6B1AC4ED1F1A85EC030A81
:103F000007B0BDEC028BF0BD1C7300084C00002014
:103F10007406002000003443DB0F49C0DB0F49402A
:103F2000780C0020280B002010B500F095FDFFF75D
:103F300035FF002208490948FDF77FFD07480422A4
:103F40000549001FFDF779FD04480822BDE810402F
:103F50000149001DFDF771BDB8070020B80600201B
:103F600010B504462DED048BD0F8EC00D0ED009A8E
:103F700090ED019AD0ED028A29EEA90A90ED038A0C
:103F800009EE090A08EEA80A08EE080A02F004FF82
:103F90005FF00000D4F8EC1001EB8001401CD1ED83
:103FA000000AC0B2042860EE800AC1ED000AF1D315
:103FB0003E48D4F8001190ED6F0A60EE090AB6EEA3
:103FC000000A60EE800AC1ED040AD0ED6F0AD4F851
:103FD000001160EEA80A60EE800AC1ED050AD0ED7E
:103FE0006F0AD4F8001120EEA91AFEEE000A21EEA5
:103FF000201A81ED0A1A90ED6F1AD4F8001121EE03
:10400000081A21EE001A81ED0B1A90ED6F1AD4F800
:10401000001121EE081A21EE201A81ED101A90ED00
:104020006F1AD4F8001121EE291A21EE201A81ED21
:10403000111A90ED6F1AD4F8001121EE281A21EE12
:10404000000A81ED160A90ED6F0AD4F8001120EEF7
:10405000090A20EE200A81ED170AD4F8F810D0EDF5
:10406000740A91ED1C0A80EE201A81ED1C1AD4F816
:10407000F810D0ED740A0E4891ED230A80EE201A54
:104080009FED0C0A81ED231AD4F8F8100A6F8242D2
:1040900001DD81ED1C0AD4F8F810D1F88C208242A1
:1040A00001DD81ED230ABDEC048B10BD280B00203F
:1040B00000401C4600401C4670B52C4C01252DEDDF
:1040C000028B04F5D8702570B7EE008A80EC030AE5
:1040D00000209FED270A84ED730A84F83801C4E9B3
:1040E0005000C4E9520011EE900AB0F17E5F01DD8C
:1040F000F0EE481AC4ED741A84ED642A03230022FA
:104100000621201D00F050FD1A4B01221146A3F19B
:104110000800FCF7D9F854F8EC0F9FED170A90222D
:1041200080ED008A54F86409184980ED010A606E38
:1041300080ED020A606E80ED030A1048A06410480A
:10414000E064104820651048606504F85A5C04F883
:10415000595CE06FFCF710FD606F9022BDEC028BA4
:104160000B49BDE87040FCF707BD0000280B00209C
:1041700077CC2B32F00C00200000000095410008A5
:10418000613F0008C9410008A146000828730008E3
:10419000D002002010B50446902254F8F81F0848B9
:1041A000FCF7EAFC48220748616AFCF7E5FC054891
:1041B00061694822BDE810404830FCF7DDBC0000D2
:1041C000D0020020080D002070B50446B0EE000AB1
:1041D00054F8EC0F2B4DD0ED000A60EE800AC5EDCF
:1041E000090AD0ED010A60EE800AC5ED0A0AD0ED99
:1041F000020A60EE800AC5ED0B0AD0ED030A20EE3C
:10420000800A85ED0C0A14F8DE0C14F8E01C10FB93
:1042100001F11D4800884143206AFCF7C6FCD5ED3A
:104220000B1A206AB1EE612A80ED002A206AD5EDD2
:104230000C0AC0ED010A95ED090A206AB1EE401A98
:1042400080ED021A206A95ED0A1A80ED031A206AA1
:1042500080ED061A206A80ED070A206AC0ED080A80
:10426000206AC0ED091A206A80ED0C0A206AB1EEBE
:10427000410A80ED0D0A206A80ED0E2A206AC0ED09
:104280000F0A70BD8C0200208802002070B5F74C28
:104290002DED088BB0EE438AF0EE629AB0EE42AAA2
:1042A000F0EE61AA2078B0EE419AB0EE60BAF0EE7E
:1042B00040BADFEDEF8A58B9B0EE682AF7EE001A7F
:1042C0009FEDEC1ADFEDEC0AB2EE040AFFF7F4FE04
:1042D00084ED6F8A94ED580AE84D90227BEEC00A77
:1042E000E749C4ED5B0A94ED590A3BEE401A84EDB0
:1042F0005C1A94ED5A0A79EE401AB6EE000A60EEA6
:10430000800AC4ED5D1A60EE880AC5ED000A61EE10
:10431000000A21EE800A60EE880A20EE080AC5ED48
:10432000010A85ED020AD4F8040104F58274FCF751
:1043300023FC95ED000A2068B1EE402A80ED012AA9
:1043400095ED011A2068F1EE412AC0ED022AD5ED63
:10435000021A2068F1EE610AC0ED030A206880EDC0
:10436000060A2068C0ED081A2068C0ED092A2068F6
:1043700080ED0C1A2068C0ED0D0A206880ED0F0A50
:104380002068C0ED121A206880ED131A54F8440B0F
:1043900080ED142A74E85201084305D1C4ED5EAAE9
:1043A00084ED5FAAC4ED609A94ED5E0AD4ED640AD0
:1043B00094ED6F1A20EE202A31EE200AC2EE001A88
:1043C00021EE2A2AC2EE002A31EEA22A84ED5E2ACC
:1043D000D4ED5F1A61EEA02AC2EE801A61EE0A2ABD
:1043E00021EE291A82EE803A71EE831AC4ED5F1A2B
:1043F000D4ED602A62EEA02AC2EE800AC1EE002A45
:1044000022EE020A01EEA10A70EEA20AC4ED600AD1
:1044100000EEA00A02F0C0FC85ED030A5FF0000088
:1044200004EB8001D1ED5E0AA16801EB800160EE32
:10443000800A401CC0B2C1ED000A0328F0D394EDFD
:104440005B0AD4ED5C0A20EE000A00EEA00AD4ED6F
:104450005D0A00EEA00A02F09FFCB7EE008A8949CF
:10446000C8EE000AC4ED650A95ED031A10EE900A35
:1044700088EE010A884284ED660A0BDA10EE100A13
:104480008149884206DD10EE100A8049884201DA2F
:10449000012000E0002084F8390194ED6C0AD4ED8D
:1044A0006F0AD4F8180120EE200A80ED000A94ED7E
:1044B0006C0AD4ED6F0AD4F8180120EE200A80EDC2
:1044C000070A94ED6C0AD4ED6F0AD4F8180120EEB7
:1044D000200A80ED0E0A94ED6C0AD4ED6F0AD4F830
:1044E000180120EE200A80ED150A94ED6D0AD4ED36
:1044F0006F0AD4F8180120EE200A80ED1C0A94ED12
:104500006D0AD4ED6F0AD4F8180120EE200A80ED70
:10451000230AD4F81C0194ED6E0A80ED000AD4F849
:104520001C0194ED6E0A80ED040AD4F81C0194ED90
:104530006E0A80ED080A201D00F020FE606890EDF4
:10454000001A84ED541A90ED010A61EE012A84EDFF
:10455000550AD0ED021AC4ED561A90ED032A40EE2A
:10456000002A84ED572AD0ED040A21EE021AC4ED88
:10457000580AD0ED050AC4ED590A00EE211AC4ED1F
:104580005A8AF0EE008AF0EE480A52EEA80A21EEAE
:10459000280A02F03FF89FED3E9AF0EE480A20EE1E
:1045A000090A84ED6A0A94ED541A94ED570A61EEF3
:1045B000011A40EE001A51EEA80AD4ED551A21EE68
:1045C000211AD4ED561A01EE801A21EE280A02F0C3
:1045D00021F820EE090A84ED690A94ED550AD4ED1C
:1045E000570A94ED561A20EE200AD4ED540A00EE34
:1045F000C10AF8EE000A20EE200A01F075FF20EE55
:10460000090A244984ED680A94ED6A0AD4ED760A11
:1046100070EE600A10EE900A884203DDB4F8D4010F
:10462000401E07E010EE900A1B49884204D9B4F8F6
:10463000D401401CA4F8D401B4F9D401DFED171A59
:1046400000EE900AB8EEE01AF0EE400A41EE210AC0
:10465000C4ED6B0A84ED760AF4E95201401C41F185
:104660000001C4E90001BDEC088B70BD280B0020DF
:10467000000000008096184B6F12833A8C020020D5
:10468000287300089A99993ECDCC1441CDCC244191
:10469000E12E654200003443000034C30000B443FF
:1046A0002DE9F84F00F1800104467830054600916D
:1046B000FCF7C8F984F8C800B4F87800A4F8A8009A
:1046C000B4F85A00A4F8AA0004F1A80204F15801B1
:1046D00091468B462846FCF793F884F8C800B4F856
:1046E000A800A4F8B000B4F88200A4F8B20004F165
:1046F000B002904648460099FCF782F884F8C8005A
:10470000B4F89000A4F8A000B4F89200A4F8A200B5
:1047100004F1A002154604F190014046FBF750FD5C
:1047200084F8C80041462846B034FBF7D1FD207616
:10473000E16BBF480126D1ED001AB0EE002AC0EDB2
:104740000D1AD1ED010A0027C0ED0E0A91ED020A03
:10475000B84D80ED0F0A91ED031A80ED101A60EE4E
:10476000812A34F8380C2081668141EEC02AE06F3E
:1047700062EE822AC0ED002A61EEA02A61EEA11A43
:10478000E06F40EE012A40EEE01A22EE822A40EE6F
:10479000401A80ED012AE06FB4F1B00441EE011A35
:1047A000C0ED021AD4F82C0100EB870090ED000A4E
:1047B000B0EEC00A01F00CFE05EB87007F1CFFB2D3
:1047C00080ED610A032FEDD3B4F84800A4F8C000CF
:1047D00004F1C00204F1B801A4F8C26017468A4689
:1047E00004F14800FCF7AAF884F8C800B4F8C00047
:1047F000A4F8A80024F8AA6F4A4639464046FBF7B9
:10480000FFFFA077E681E08A208251463846FCF718
:1048100019F9A077884A49465046FBF7F1FFA0777F
:1048200095ED730AB6EE001AD5ED720A20EE011A64
:10483000AA3CF4EEC10AF1EE10FA01D285F8386113
:10484000F4EEC00A0020F1EE10FA35DD95F83811CB
:1048500089B395F8391139B1D5E95021521C41F18C
:104860000001C5E9502102E00021C5E95011D5E958
:1048700050234FF0320C0021BCEB0202994102D2CE
:1048800085F8380136E06D4D14F80C2F2888424326
:10489000D4E937017434FCF76FF914F8740C10FB89
:1048A00000F228884243D4E91E01FCF765F904F8B8
:1048B000546CBDE8F88FFFE79FED611A20EE011AF6
:1048C000F4EEC10AF1EE10FA0DDD95F8381151B190
:1048D00070EE600A9FED5B1A20EE010A80EE801AEE
:1048E00085ED671A03E0B7EE000A85ED670A00213F
:1048F000C5E9501184F82C00B4F85800A4F8A800B9
:10490000B4F88200A4F8AA004A4658466C340099CC
:10491000FBF776FF04F85C0FA4F1300293464146A2
:104920004846C83CFBF76CFF84F8C80000200DE047
:10493000D4F81C11D5ED670A01EB8001401C91ED04
:10494000000AC0B220EE200A81ED000AB4F89810E7
:10495000B4F89A2051438142EADC04209FED3A0AE0
:10496000002105EB800C00EB400300BF9CED5D1ABD
:10497000D4F81C2103EB0108C1EE000A02EB880207
:10498000491C92ED001AC9B2032960EE810AC2EDFA
:10499000000AEBD3401CC0B20628E1D334F8980FCC
:1049A00052462084668439465846FBF729FF84F82E
:1049B000300095F83801983C50B39FED240ADFEDA4
:1049C000240A0420D4F8BC1095ED6F1A01EB800185
:1049D00021EE001AD1ED001AF4EEC11AF1EE10FA30
:1049E00001DD81ED001AD4F8BC1095ED6F1A01EBD2
:1049F000800121EE201AD1ED001AF4EEC11AF1EE79
:104A000010FA01D281ED001A401CC0B20628D9D399
:104A1000D4F8BC009FED0F0A04F1300280ED030AC8
:104A2000514604F13800FBF7CBFB84F8C80040E79F
:104A30008C020020280B0020E80C002088020020B7
:104A4000CDCCCC3D6666663FDA0FC93F0AD7233C22
:104A50000AD723BC0000000010B5FDF7B3FC00EE40
:104A6000100A2E4A2E48B8EE400A3049324B82EDE9
:104A7000130AD2ED110A70EE600AC2ED120A90ED2F
:104A8000001ADFED280AC1EE201A9FED271A81EEE9
:104A9000812A81ED002A90ED012AC2EE201A81EED2
:104AA000812A81ED012A90ED021AC1EE201ADFED74
:104AB000200A81EEA01ADFED1F0A81ED021AD0ED67
:104AC000041A81EEA01AD3ED041A31EE611A81EDB9
:104AD000041AD0ED051A81EEA01AD3ED051A31EEB5
:104AE000611A81ED051A90ED061AC1EE201AD3ED78
:104AF000060A71EEE00AC1ED060A82ED110A90ED98
:104B0000080AB1EE400A81ED080A90ED090A81ED2C
:104B1000090A90ED0A0A81ED0A0A10BD3000002052
:104B20005C0700206F128341333365427406002016
:104B3000E12E654200A0AA443009002001785529E1
:104B40002AD14178532927D14188DFED140A00EE9C
:104B5000101A1449B8EE400A20EE201A9FED100AF0
:104B600021EE001A30EE411A81ED001A828801EE22
:104B7000102AB8EE411A21EE201A21EE001A81ED1A
:104B8000011AC08801EE100AB8EE411A61EE200A3F
:104B900020EE800A81ED020A704700000000003814
:104BA00000003443440700202DE9F047DFF8DC83A0
:104BB0000D460421A8F800100821A8F8021005737A
:104BC000427383734FF000091E46044680F810902C
:104BD0001746304602F060F931466061FBF7E5FFA9
:104BE000B8F80000704302F057F9A061B8F800105F
:104BF0007143FBF7DAFFB8F80000704302F04CF99C
:104C0000E061B8F800107143FBF7CFFFB8F800007F
:104C1000684302F041F92062B8F800106943FBF7DD
:104C2000C4FF304602F038F931466062FBF7BDFF41
:104C3000B8F80000684302F02FF92060B8F80010BF
:104C40006943FBF7B2FFB8F80000704302F024F9A3
:104C50006060B8F800107143FBF7A7FFB8F80000D8
:104C6000784302F019F9A060B8F800107943FBF717
:104C70009CFFB8F80000684302F00EF9C4F8E800A1
:104C8000B8F800106943FBF790FF217B012204F183
:104C90003000D4F8E830FBF717FBB8F800006843A1
:104CA00002F0FAF8C4F8EC00B8F800106943FBF71A
:104CB0007CFF217B012204F13800D4F8EC30FBF7B3
:104CC00003FB9FB1B8F80000784302F0E5F8C4F8A0
:104CD000F000B8F800107943FBF767FF617B012211
:104CE00004F14000D4F8F030FBF7EEFAB8F8000019
:104CF000704302F0D1F8C4F8F400B8F80010714322
:104D0000FBF753FFA17B012204F14800D4F8F430F3
:104D1000FBF7DAFAB8F800006843684302F0BCF821
:104D2000C4F8F800B8F8001069436943FBF73DFF89
:104D3000217B04F150000A46D4F8F830FBF7C4FA9E
:104D4000B8F800006843684302F0A6F8C4F8FC0015
:104D5000B8F8001069436943FBF727FF217B04F192
:104D600058000A46D4F8FC30FBF7AEFAB8F8000059
:104D70006843684302F090F8C4F80001B8F80000F6
:104D800088346843684302F087F8E067B8F8001099
:104D9000A06F69436943FBF708FFB8F80010E06FA4
:104DA00069436943FBF701FF54F8783FA4F1A00081
:104DB00014F8F41CA4F580740A46FBF785FA217BED
:104DC00004F168000A46D4F80431FBF77DFAAFB16C
:104DD000B8F800006843784302F05EF8C4F80801B0
:104DE000B8F8001069437943FBF7DFFE627B217B53
:104DF00004F17000D4F80831FBF766FAB8F8000047
:104E000047467043684302F047F8C4F80C013888FD
:104E100094346843704302F03FF8E0673988A06F2C
:104E200071436943FBF7C1FE3988E06F6943714301
:104E3000FBF7BBFE14F8882C14F8861CA4F11C00A8
:104E4000A36F943CFBF740FAA27B217B04F1800026
:104E5000D4F81031FBF738FA38886843684302F019
:104E60001BF8C4F81401398869436943FBF79DFEB8
:104E7000217B04F188000A46D4F81431FBF724FAA8
:104E800038887043704302F007F8C4F81801398875
:104E900071437143FBF789FEA17B04F190000A4640
:104EA000D4F81831FBF710FA38886843704301F0E2
:104EB000F3FFC4F81C01398869437143FBF775FEA1
:104EC000A27B217B04F19800D4F81C31FBF7FCF99C
:104ED000207B10FB00F03988484301F0DDFFC4F867
:104EE0002001207B10FB00F03988484301F0D4FFFB
:104EF000C4F82401207B10FB00F03988484301F0FE
:104F0000CBFFC4F82801207B3988484301F0C4FF57
:104F1000C4F82C01207B3988484301F0BDFFC4F858
:104F20003001217B04F1A0000A46D4F82031FBF7C0
:104F3000CBF9217B04F1A8000A46D4F82431FBF711
:104F4000C3F9217B04F1B0000A46D4F82831FBF7FD
:104F5000BBF9217B012204F1B800D4F82C31FBF716
:104F6000B3F9217B012204F1C000D4F83031FBF702
:104F7000ABF904F8289F84F8019084F8029084F833
:104F8000039084F80490BDE8F087000088020020B8
:104F900070B50446C07B0F4D18B12046FEF756FE93
:104FA0000DE0A27B288861684243D4F8F400FBF747
:104FB000E3FDA17B288841436068FBF7F6FD627B37
:104FC0002888A1684243D4F8F000BDE87040FBF7A0
:104FD000D3BD0000880200202DE9F041044690F87E
:104FE0002C0000282BD1B4F89800A4F8A800B4F83D
:104FF0007A10A4F8AA10A4F8B000B4F85A00A4F8E3
:10500000B20004F1A802174604F1780104F19800F7
:10501000FBF7F6FB84F8C80004F1B00204F1580174
:1050200016460D463846FBF7EBFB84F8C80004F142
:10503000500231462846FBF781FC84F8C800BDE8E1
:10504000F0812DE9F041044690F8290000282CD188
:1050500004F1680104F160000F460546FBF7F2FC1D
:1050600084F8C80004F15802164604F1500128469D
:10507000FBF7C6FB84F8C800B4F85800A4F8A800F1
:10508000B4F86A00A4F8AA0004F1A802154639464B
:105090003046FBF7B5FB84F8C800324604F18801BE
:1050A0002846FBF78DF884F8C800BDE8F0812DE9AB
:1050B000F047044690F82A0000285CD104F18001F2
:1050C00004F1780089460546FBF7BCFC84F8C8006B
:1050D000B4F87800A4F8A800B4F85A00A4F8AA001C
:1050E00004F1A80204F1580190460F462846FBF748
:1050F00087FB84F8C800B4F8A800A4F8B000B4F89E
:105100008200A4F8B20004F1B002154649464046B8
:10511000FBF776FB84F8C800B4F89000A4F8A00070
:10512000B4F89200A4F8A20004F1A002164604F11B
:1051300090012846FBF744F884F8C8002946304619
:10514000AA34FBF7C5F8A07734F8520C24F8020C07
:1051500034F8280C2080424649463846FBF750FB7D
:1051600004F81E0FA4F1300229464046C83CFBF764
:1051700047FB84F8C800BDE8F087000070B504461E
:10518000FFF706FFD4F8CC1009B120468847204627
:1051900000F068F8D4F8D01009B1204688472046BE
:1051A000FFF74FFFD4F8D41009B120468847207C80
:1051B0002B4DC0B9E07BB0B1227B28884243D4E9B3
:1051C0003A01FBF7D9FC207B10FB00F22888424310
:1051D000D4E93E01FBF7D0FCD4F8E01009B1204639
:1051E000884700202AE02046FFF761FFD4F8D81056
:1051F00009B120468847204600F06EF8D4F8DC104C
:1052000009B1204688472046FFF7E6FEE4E700BFE5
:1052100010FB0101D4F8F82002EB8101226AD1EDE4
:10522000000A02EB800292ED000AF4EEC00AF1EEF1
:1052300010FA01D281ED000A401CC0B2217B8142EC
:10524000E6D8CAB22888D4F8E81042432068FBF7B1
:1052500093FCD4F8E41009B120468847206870BD5B
:10526000880200202DE9F041044690F8280000282B
:105270002AD1627B04F1300104F1600004F13805A9
:1052800022B3227BA4F8B820012604F1B802A4F8C6
:10529000BA601746FBF7B4FA84F8C800207BA4F87C
:1052A000C000A4F8C26004F1C002164604F1400137
:1052B00004F17000FBF7A4FA04F8C80F2A4631463F
:1052C0003846FAF77DFF2070BDE8F0812A46FBF7EB
:1052D00097FA84F8C800F7E72DE9F041044690F802
:1052E0002B00002838D1B4F87800A4F8B8000125C4
:1052F00004F1B80204F13801A4F8BA5090460F4600
:1053000004F17800FBF77CFA84F8C800B4F8480090
:10531000A4F8C00004F1C002A4F8C25016464146E9
:1053200004F14800FBF70AFB84F8C800B4F89800C1
:10533000A4F8B800A4F8BA504246314604F19800E7
:10534000FBF75EFA84F8C80004F1300241463846A3
:10535000FAF736FF84F8C800BDE8F08110B5DFED3C
:105360000E0A9FED0E0A0E48FCF7BCF90C48F2EE4F
:10537000040A9FED0C0A3038FCF7B4F908480A49D2
:105380009C30FCF7C7F908490548B431BDE8104026
:105390003030FCF7BFB9000000002F44CDCCCC3D2D
:1053A000B0090020CDCC4C3E20010020F0EE400A98
:1053B000C0ED020A91ED030AD1ED041A90ED011A35
:1053C00020EE200A90ED002AD0ED032A01EE810A9A
:1053D000D1ED051A01EE820A91ED012AD0ED041AF1
:1053E00002EE610A91ED022A02EE620A80ED050AE0
:1053F00080ED001AC0ED010AC0ED031A80ED040A29
:10540000704700000F4810B50D490160062141604A
:1054100000214FF440328160C0E9031241610176FE
:10542000012242768176C17601774177FCF700FD53
:10543000002803D0BDE81040FCF7FEBA10BD000004
:10544000006400406C0300200D4808B5416941F03C
:10545000010141614069002200F001000090114605
:105460000E20FDF72BF80E20FDF71CF80022114648
:105470000F20FDF723F8BDE808400F20FDF712B814
:105480000010024030B587B014216846FBF78DFB51
:105490001648416941F480014161416901F480018C
:1054A0000591416941F400314161416901F40031E4
:1054B0000591416941F48021416140694FF4907444
:1054C00000F48020A5050590012221462846FCF71E
:1054D00073FF0120CDE900400020029003200390DB
:1054E00069462846FCF7A8FE07B030BD0010024010
:1054F000124810B5104901604FF4827141600021DB
:105500004FF47062C0E902124FF400720161C0E909
:1055100005120822C0E9072107234162C0E90A13E6
:10552000C0E90C12FDF7E4FC002803D0BDE81040F0
:10553000FCF782BA10BD0000003C0040940300203C
:105540000C4810B50A49016047214160002140F232
:10555000E732C0E902120161416180218161FDF7FA
:10556000E1FE002803D0BDE81040FCF765BA10BD8D
:10557000004401407804002010B592B01C210BA813
:10558000FBF713FB2C216846FBF70FFB1F481E4956
:10559000002401604721C0E9011440F2E731C0E96D
:1055A000031444618461FDF7BDFE08B1FCF744FAC1
:1055B0001648FEF732F908B1FCF73EFA6020CDE953
:1055C0000B040D940E940F94109400220BA90F4815
:1055D0001194FEF78EF808B1FCF72EFA00944FF400
:1055E0000050CDE904400194029403940694694666
:1055F00006480A94FDF72CFE08B1FCF71DFA034893
:10560000FEF73CF812B010BD00480140B80400207D
:1056100010B588B0002418480594069403940494A7
:10562000009401941349029401604821C0E90114D7
:105630004FF47A71C0E9031444618461FDF772FE8E
:1056400008B1FCF7F9F94FF48050039003A90A4818
:10565000FDF7D2FE08B1FCF7EFF90094019469461A
:1056600005480294FDF738FE002801D0FCF7E4F964
:1056700008B010BD002C0140F803002010B58EB01A
:1056800000240794089409940A940B940C941C2108
:1056900068460D94FBF789FA1D484FF08041016080
:1056A0004721C0E9011440F2E731C0E903148461E5
:1056B000FDF738FE08B1FCF7BFF94FF480500790B2
:1056C00007A91348FDF798FE08B1FCF7B5F9104893
:1056D000FEF7A3F808B1FCF7AFF90B940BA90C483F
:1056E0000D94FDF7F9FD08B1FCF7A6F96020CDE9AE
:1056F000000402940422694605480494FDF7F9FF6A
:1057000008B1FCF799F90248FDF7B8FF0EB010BDDB
:10571000380400200D4810B50B4901604FF4612199
:105720004160002181600C22C160C0E904128161E6
:10573000C16101624162FEF7A1F9002803D0BDE812
:105740001040FCF779B910BD00380140F804002082
:10575000FEE770470907090E002806DA00F00F007F
:1057600000F1E02080F8141D704700F1E02080F87F
:105770000014704730B4034C8466034CC46630BCDC
:1057800001F0B4BCED700008FB7000087047F8B57C
:1057900015460E460B460092044600224FF4C051B7
:1057A00000F02AF888B9334600228021204600956F
:1057B00000F071F848B9334600224FF4C06120462A
:1057C000009500F019F8002804D0206E40F0200069
:1057D00020660320F8BD000001B582B04FF47A7056
:1057E0000090012301AA02A90248FDF70FFCBDF8B1
:1057F00004000EBD940300202DE9F8431D46174612
:105800000E4604464FF4C068DDF820903CE0464563
:1058100005D127B9007B8DF800009DF80000681CB9
:1058200032D02DB1FCF7CEFDA0EB0900A8422BD35E
:105830002068416821F0E00141606068B0F5827F36
:105840000BD1A068B0F5004F02D0B0F5806F04D145
:105850002068016821F040010160A06AB0F5005F96
:1058600009D12068016821F40051016020680168B5
:1058700041F400510160012084F85D00002084F8AB
:105880005C000320BDE8F883206881683140B9429C
:10589000BDD10020F6E72DE9F0411D4617460E4622
:1058A0000446DDF8188034E0681C32D02DB1FCF7D6
:1058B00089FDA0EB0800A8422BD32068416821F0A5
:1058C000E00141606068B0F5827F0BD1A068B0F55F
:1058D000004F02D0B0F5806F04D12068016821F03C
:1058E00040010160A06AB0F5005F09D1206801683D
:1058F00021F4005101602068016841F40051016009
:10590000012084F85D00002084F85C000320BDE8DD
:10591000F0812068806836EA000004D00020B84298
:10592000C2D10020F3E70120F9E7704710B59FEDE1
:10593000271A04462DED068BB0EE60AAC0EE0A0AC7
:1059400081EE200A01F036F8DFED21AAB0EE408AA0
:10595000B0EE6A0A00F086FFB0EE009AF7EE008A19
:1059600020EE090AF0EE689AB5EEC0AA40EE089A59
:1059700048EE089AF1EE10FA25D928EE080AC0EE92
:10598000290AC4ED030A20EE890A84ED040AB0EE68
:10599000680AC4ED050A18EE080AC4ED008A20EE74
:1059A000090AC0EE290AB0EE6A0AC4ED010A00F045
:1059B00059FF20EE090A40EE488A48EE088A88EE30
:1059C000A90A84ED020ABDEC068B10BDDB0F49402D
:1059D000DB0F493F10B59CB028210DA8FBF7E5F877
:1059E000142117A8FBF7E1F834216846FBF7DDF82E
:1059F00001200104CDE90D010F90022411901494AF
:105A00004FF4E010CDE915100DA8FCF7A9FF0F2009
:105A1000CDE9170400244FF48060CDE9194002213C
:105A200017A81B94FCF776FE05480A940090029490
:105A300008940B946846FCF773FD1CB010BD000081
:105A4000011018001448016841F470010160134806
:105A5000016841F0010101604168114A1140416053
:105A60000168104A11400160016821F48021016041
:105A7000416821F4FE014160C16A21F00F01C16259
:105A8000016B094A11400163002181600249C00392
:105A9000803908607047000088ED00E00010024087
:105AA0000CC07FF8FFFFF6FECCFC00FF10B50448E9
:105AB000FDF721FDBDE810400248FDF71CBD0000C8
:105AC000F8030020780400200148FDF714BD000011
:105AD000F0050020F0B50268184B4FF0804798425F
