:020000040800F2
:10000000801600209D010008873700087F32000815
:10001000853700084D0D0008DD4300080000000092
:100020000000000000000000000000005F39000830
:10003000410F000800000000C1370008B5010008AA
:10004000B7010008B7010008B7010008B7010008B0
:10005000B7010008B7010008B7010008B7010008A0
:10006000B7010008B7010008B7010008B701000890
:10007000B7010008B7010008A10E0008AD0E000886
:10008000B7010008B7010008B7010008AD43000838
:10009000B7010008B7010008B7010008B701000860
:1000A000B7010008E13A0008B7010008B7010008ED
:1000B000B70100080000000000000000B7010008C0
:1000C000B7010008B7010008B701000800000000F0
:1000D000B701000861430008B7010008B701000834
:1000E000B7010008B7010008B701000800000000D0
:1000F0000000000000000000000000000000000000
:10010000000000000000000000000000B70100082F
:100110000000000000000000FD3A000800000000A0
:1001200000000000000000000000000000000000CF
:1001300000000000000000000000000000000000BF
:10014000B7010008B701000800000000000000002F
:10015000000000000000000000000000000000009F
:10016000B7010008B7010008B7010008B70100088F
:10017000B7010008000000000000000000000000BF
:1001800000000000B7010008DFF80CD000F0C4FA4E
:10019000004800475549000880160020064880475F
:1001A00006480047FEE7FEE7FEE7FEE7FEE7FEE75C
:1001B000FEE7FEE7FEE7FEE7793A0008890100085E
:1001C00001804280436070472DE9F04F0288476804
:1001D000B0F802804888D1F8049082B04FF0000A4D
:1001E0001646824207BF098888456FF0020002B0B8
:1001F00018BFBDE8F08F4FEA980B02EB4200019068
:10020000C8F34000CDF8000009EB8A01BBF1000FF4
:1002100033D0019801EB820C01EB80043B46E646AB
:1002200001EBC2054FEA0B0093ED000A401E81ED81
:10023000000A93ED010A01EB02118CED000A93ED27
:10024000020A0CEB021C85ED000A93ED030A05EB94
:10025000021584ED000A04EB021403F11003E3D14C
:100260000EEB820000EB820000EB8201ABF101009B
:10027000504307EB0B1701EB001118F0030C21D0D2
:100280003B1FA1EB82011CF0010F06D093ED010A88
:1002900001EB82011B1D81ED000A009880B100BFB7
:1002A00093ED010A01EB820401EBC20184ED000A27
:1002B00093ED020A401E81ED000A03F10803EFD11D
:1002C00007EB8C070AF101001FFA80FA701E060482
:1002D000360C99D102B00020BDE8F08F202A04DB53
:1002E000203A21FA02F00021704721FA02F3D040AF
:1002F000C2F120029140084319467047D2B201E092
:1003000000F8012B491EFBD270470022F6E710B51A
:1003100013460A4604461946FFF7F0FF204610BD73
:100320002DE9FE4F804681EA0300C00F0C46009085
:1003300021F0004123F00045B8EB0200A94105D2AD
:100340004046214690461C460B46024623F000409C
:10035000104347D0270DC7F30A00C3F30A51029098
:10036000401A019040286BDAC3F3130040F4801B5D
:100370000098924620B10023D2EB030A63EB0B0BEB
:1003800001985946C0F14002504600F00FF9064668
:100390000D4650465946019A00F017F910EB080037
:1003A0006141002487EA115284EAE7731A4340D07E
:1003B000009A62B3019A012A4FEA075215DC001B2A
:1003C00061EB02014FF0004202EA0752CDE9004220
:1003D000001C41F5801132462B4600F04EF903B067
:1003E000BDE8F08F40462146F9E7001B61EB0201B2
:1003F000001C41F5801300185B412018A2F500177E
:1004000047EB030140EAD570B6196D4111E06D0864
:100410004FEA360645EAC0754FEA0752001B61EB0A
:100420000201001C41F5801149084FEA3000001913
:10043000514132462B4603B0BDE8F04F00F00EB9F3
:100440000098012240000023D0EB020263EBE0732E
:10045000009821464FEAE074B8EB000061EB04011C
:10046000E9E783F000435BE781F0004158E72DE9BD
:10047000FE4F81EA030404F0004421F0004100949F
:100480004FF0000B23F0004350EA01045ED052EA23
:1004900003045BD0C3F30A54C1F30A552C44A4F2FD
:1004A000F3340194A0FB0254C1F3130141F4801111
:1004B000C3F3130343F4801301FB024400FB034E18
:1004C000840A970A44EA815447EA8357A4FB0768E1
:1004D00002958D0A05FB07854FEA932C04FB0C540B
:1004E0002705029D4FEA065847EA1637B5EB08057F
:1004F0006EEB070C870E920E47EA811742EA8312D1
:10050000A7FB0201B6EB0B0164EB00042B0D43EAE1
:100510000C335E1844EB1C50DA465146E7FB0201EF
:10052000C5F313044FEA0B3343EA14534FEA043282
:10053000019C43EA0603A4F10C040294009CCDE95B
:1005400000B400F09AF803B0BDE8F08F0020014637
:10055000F9E70EB5C10F80EAE0700844CA07002130
:1005600040F233438DE80E000A460B4600F085F852
:1005700003B000BD01F0004330B421F0004150EA67
:10058000010206D00A0DA2F56072C1F31301002A20
:1005900002DC30BC00207047440F44EAC104C100B3
:1005A000E01830BC00EBC25000F021B8202A04DB78
:1005B000203A00FA02F1002070479140C2F1200376
:1005C00020FA03F3194390407047202A06DBCB172B
:1005D000203A41FA02F043EAE07306E041FA02F3FE
:1005E000D040C2F1200291400843194670470029CB
:1005F000A8BF7047401C490008BF20F001007047A9
:1006000010B4B0FA80FC00FA0CF050EA010404BF08
:1006100010BC704749B1CCF1200421FA04F411FA5E
:100620000CF118BF012121430843A3EB0C01CB1DA2
:100630004FEA00614FEA102042BF002010BC704713
:1006400000EBC35010440029A4BF10BC7047401CED
:10065000490008BF20F0010010BC704710B5141EFF
:1006600073F1000408DA401C41F1000192185B416B
:100670001A4301D120F0010010BD2DE9F04D924642
:100680009B4611B1B1FA81F202E0B0FA80F2203259
:100690009046FFF78BFF04460F4640EA0A0041EA06
:1006A0000B0153465A46084313D0114653EA010042
:1006B00019D0C8F140025046FFF710FE05460E461D
:1006C000504659464246FFF771FF084305D00120C6
:1006D00004E020463946BDE8F08D0020054346EA97
:1006E000E0762C4337430A986305E40AA0EB080040
:1006F0000022FD0A44EA47540A3002D50020014690
:10070000E9E7010510196941DDE90845001969416A
:10071000BDE8F04DA2E70000064C074D06E0E0689A
:1007200040F0010394E8070098471034AC42F6D338
:10073000FFF72EFD984D0008B84D000870B58C18D5
:1007400010F8015B15F0070301D110F8013B2A11E5
:1007500006D110F8012B03E010F8016B01F8016BD2
:100760005B1EF9D12B0705D40023521E0DD401F8CE
:10077000013BFAE710F8013BCB1A921C03E013F897
:10078000015B01F8015B521EF9D5A142D8D30020CC
:1007900070BD00002DE9F0472DED048B00F096FAB6
:1007A0005048DFF84481514F90ED000A012088ED58
:1007B000130A4F4EDFF83C914F4C3870002542F23F
:1007C000107A00BF00F018FA00F0A2F896ED000AC7
:1007D000B5EEC00AF1EE10FA01DCB1EE400A10EEFF
:1007E000100A4946884219DA96ED010AB5EEC00AA8
:1007F000F1EE10FA01DCB1EE400A10EE100A884268
:100800000CDA96ED020AB5EEC00AF1EE10FA01DC40
:10081000B1EE400A10EE100A484501DB00203870A6
:10082000B4F9000000EE100AB4F90200B8EEC00AF4
:1008300030EE099A00EE100AB4F90400B8EEC00ACE
:1008400070EE288A00EE100A0120B8EEC00A30EEE1
:10085000088A00F05DFF6D1CADB25545B2D396ED30
:10086000041ADFED270A9FED250A4046C1EE201A43
:10087000C8ED041AB4F9081001EE101AB8EEC11A46
:10088000C1EE201AC8ED051AB4F90A1001EE101ACB
:10089000B8EEC11AC1EE201AF7EE000A71EEE00AB6
:1008A000C8ED060AC9EE000AC8ED000AC8EE800AC3
:1008B000C0ED010AC8EE000A9FED120AC0ED020A5F
:1008C000C8EE000A9FED100A1048C8ED030AC9EEF1
:1008D000800AC0ED000A3220BDEC048BBDE8F04771
:1008E00000F016BF14000020880E00201800002021
:1008F000F00400200000A041C604002000401C4677
:1009000000A0AA440000FA4400007A443800002005
:100910004B4A10B5B2F900004A4900EE100A4A48A5
:10092000B8EEC00A02F05CFD474B4649E43383ED64
:10093000000AB2F9020000EE100AA3F1CC00B8EEF2
:10094000C00A02F04DFD83ED010AB2F904003D49F1
:1009500000EE100A3C48B8EEC00A303002F040FD0C
:10096000394983ED020A783993ED000A01F130002C
:1009700002F036FD344CB434A4F5967184ED000ACF
:1009800093ED010A01F1480002F02AFD84ED010A0D
:10099000A4F5967193ED020A01F1600002F020FDCA
:1009A0002A4884ED020AD4ED000A90ED001A284B83
:1009B000A4F58A7170EEC10AC3ED000AD4ED010AF4
:1009C00090ED011A70EEC10AC3ED010AD0ED020AE2
:1009D00030EE600A83ED020AB2F9060000EE100A5A
:1009E00001F1A800B8EEC00A02F0FAFC1034A4F538
:1009F000927184ED000AB2F9080000EE100A01F1CC
:100A0000C000B8EEC00A02F0EBFC84ED010AB2F9B6
:100A10000A00A4F5927100EE100A01F1D800B8EEB8
:100A2000C00A02F0DDFC84ED020AD4ED000AC3ED39
:100A3000040AD4ED010AC3ED050A83ED060A10BDD0
:100A4000C604002020000020940D0020880E002005
:100A5000F00400203EB5012211024FF0904000F05A
:100A6000DBFF012000F054FE04227D21012000F074
:100A7000A1F8372000F04CFE00227C21012000F07C
:100A800099F82E48D0E90112CDE9001200680290D1
:100A9000372000F03DFE0021084600F05BF80F28EB
:100AA00017D100244FEA0D0505EB440015F814108A
:100AB0004278002000F07EF8012000F029FE641C3E
:100AC000E4B2042CF0D30021012000F043F81E28EA
:100AD00001D000203EBD00240DF1080505EB4400C7
:100AE00015F814104278012000F064F8012000F09D
:100AF0000FFE641CE4B2022CF0D30021104802F077
:100B0000D9F94FF4FA73B1EE041ADFED0E0AB3EE21
:100B1000040A5A0000210C4802F046FE0B48F3EE8E
:100B20000B0A90ED000A084803F0F4FFBCEEC00A7F
:100B3000074910EE100A086001203EBD6C4D000808
:100B400038030020000000001010002014000020D6
:100B5000344801402DE9F04141F080044FF09046C7
:100B6000FF2710B1012822D10CE0002220213046BD
:100B700000F052FF47EA042002F048FE0122C5B20D
:100B8000202111E04FF4807800224146304600F0E9
:100B900043FF47EA042002F039FE4FF6FF7002F0EF
:100BA00035FE050A01224146304600F035FF284651
:100BB000BDE8F0812DE9F0411546040001F07F0603
:100BC0004FF090474FF480784FF0000210D041462C
:100BD000384600F021FF45EA062002F017FE4FF0EC
:100BE00001023CB141463846BDE8F04100F014BF77
:100BF0002021EDE72021F6E72DE9FF414FF0904657
:100C000000222021304600F007FF48F2FF2002F0CA
:100C1000FDFDADF8000001246F464FF6FF75284634
:100C200002F0F4FD27F81400641CE4B2042CF6D39F
:100C300001222021304600F0EFFE4FF480780022A0
:100C40004146304600F0E8FE49F2FF2002F0DEFDAA
:100C5000002402AF284602F0D9FD27F81400641CD6
:100C6000E4B2032CF6D301224146304600F0D4FE14
:100C7000BDF80220BDF8000002F47F41C0B201437C
:100C80001148D2B20180BDF8041001F47F43134330
:100C90004380BDF80620C9B202F47F420A43828035
:100CA000BDF808100A0242EA1121C180BDF80A10FD
:100CB0000A0242EA11210181BDF80C100A0242EA3F
:100CC00011214181BDE8FF81C604002070B54FF4B9
:100CD00080754FF0904600222946304600F09CFE79
:100CE0004AF2FF2002F092FD4FF6FF7002F08EFDF7
:100CF000044601222946304600F08EFE200AC4F345
:100D0000421101EBC000B0F5806F01D3A0F5006087
:100D1000FFF71FFC9FED081B53EC112BFFF7A7FB00
:100D20009FED071B53EC112BFFF7FAFAFFF722FC9C
:100D30000549086070BD0000000000000000C03FD1
:100D4000000000000000374014000020FEE7000013
:100D500010B50B48DFED0B0A2DED028B9FED0A8AD3
:100D6000B0EE480A02F0FCFDB0EE480ABDEC028B82
:100D7000F3EE0E0A0248BDE81040183002F0F0BD54
:100D80001C0D00200000484200007A449FED0A1A22
:100D900080ED001A80ED051A80ED090AC0ED0A0AFF
:100DA000B7EE000A80ED070A80ED081A80ED0B0A05
:100DB00080ED011A70470000000000002DE9F041AD
:100DC0000C46054601F10C03012202210C30FFF70D
:100DD000F7F904F114030122022105F11400FFF7D1
:100DE000EFF904F11C030122022105F11C00FFF7B9
:100DF000E7F9022205F1240004F1740311460746C5
:100E0000FFF7DEF9022205F12C0004F184031146FC
:100E10008046FFF7D5F9022204F19403114605F14B
:100E20004400FFF7CDF9022204F1A403114605F1B5
:100E30004C00FFF7C5F9022204F14403114605F105
:100E40005400FFF7BDF9022204F12403114605F115
:100E50005C00FFF7B5F9022204F13403114605F1F5
:100E60006400FFF7ADF9022205F1340004F15403E8
:100E700011460646FFF7A4F931463846FFF7A4F9B4
:100E800004F16403022205F13C0011460446FFF719
:100E900097F921464046BDE8F041FFF795B90000BB
:100EA000014800F081BB00002C040020014800F044
:100EB0007BBB0000E8030020054A016811441422AE
:100EC000B1FBF2F1890001640249C163704700007F
:100ED000F8FFFDBF0000024030B590F840500124FB
:100EE000AC40C56B6C60046863604368102B03689A
:100EF00003D099600068C26030BD9A600068C1602C
:100F000030BD000010B505480024042104700448D9
:100F100001F0D0FF4FF08040846310BD1A00002024
:100F2000B80200204FF47A7010B5C1068863C8205B
:100F300000F0EEFB01490120087010BD1A000020EE
:100F40007047704706490020C8610648016941F0B2
:100F500004010161016941F0400101617047000035
:100F6000C001002000200240064A0021D16106494C
:100F70000A6942F002020A614861086940F04000D3
:100F800008617047C001002000200240044B00228D
:100F9000DA61044A136943F0010313610180704769
:100FA000C0010020002002400A490020CA68D30680
:100FB000094A04D5D06940F00200D0611020CB6806
:100FC0005B0705D5D36943F00103D36140F004000A
:100FD000C860704700200240C001002070B505467F
:100FE00000F020FD0646104C09E0681C07D025B132
:100FF00000F018FD801BA84201D9032070BDE068F5
:10100000C007F2D1E068800601D52020E060E068EA
:10101000C00602D4E068400703D5FFF7C5FF0120F2
:1010200070BD002070BD00000020024003788B548A
:10103000114443784B7082788A70C078C8707047CA
:1010400010B590F820300268012B07D0022B05D094
:10105000416A41F480214162012010BDD2F80002B2
:1010600040F00100C2F80002087D00F01F030120DB
:101070009840D2F81C328343C2F81C32CB69B3B912
:10108000D2F80C328343C2F80C328C894B6864F37B
:101090001F434C6902EBC404C4F840320C890B684E
:1010A00064F31F434C6902EBC404C4F84432CB69B7
:1010B000012B16D1D2F80C320343C2F80C320C8843
:1010C0004B6864F31F434C6902EBC404C4F840321C
:1010D0000C89CB6864F31F434C6902EBC404C4F869
:1010E00044328B69002BD2F804320FD053EA00034C
:1010F000C2F804320B69002BD2F8143208D0034333
:10110000C2F81432096A012904D008E08343EFE7EA
:101110008343F5E7D2F81C120143C2F81C12D2F83F
:10112000000220F00100C2F80002002010BD70474C
:101130002DE9F05F0546006800244669D0F8049068
:101140008768D0F80CB0D0F810A0D0F81880F1075C
:1011500048D0F90714D001218160B80703D528468B
:1011600000F0DFF90CE0780702D54FF4006407E0E7
:10117000380702D54FF4805402E0284600F0D0F939
:10118000F80516D529684FF480708860B80503D536
:10119000284600F0C8F90CE0780502D544F4005464
:1011A00007E0380502D544F4804402E0284600F008
:1011B000B9F9F80316D529684FF480308860B80370
:1011C00003D5284600F0B1F90CE0780302D544F4C9
:1011D000004407E0380302D544F4803402E0284696
:1011E00000F0A2F9300707D55FEACB6004D5296883
:1011F000102044F40074C86070074FF0080707D54A
:101200005FEA0B7004D52868C760284600F056F9DD
:10121000B00706D52868C068800702D0284600F0CD
:101220004EF9700607D55FEACA6004D52968102018
:1012300044F480640861B00607D55FEA0A7004D5FB
:1012400028680761284600F03BF9F00606D52868B3
:101250000069800702D0284600F033F9B00308D5B2
:101260005FEAC96005D5296810204860284600F06B
:1012700029F9F00307D55FEA097004D528684760AB
:10128000284600F053F9300446D55FEA497040D54E
:10129000F00504D55FEAC87001D044F00104B00540
:1012A00004D55FEA887001D544F00204700504D5C6
:1012B0005FEA487001D544F00404300529D518F0E0
:1012C000700F26D008F07000402815D006DC1028DA
:1012D00009D020280AD0302816D10AE050280ED094
:1012E000602811D10EE044F008040DE044F0100431
:1012F0000AE044F0200407E044F0400404E044F035
:10130000800401E044F480742868816921F0700150
:101310008161296804204860002C05D0686A204358
:1013200068622846FFF703FFBDE8F09F70B5040030
:1013300003D094F8200010B104E0012070BD2046D5
:1013400000F082F82068016821F00201016000F0DD
:1013500069FB0546052604E000F064FB401B0A28F3
:1013600011D8206840688007F6D42068016841F0F1
:101370000101016000F056FB05460BE000F052FB56
:10138000401B0A2806D9606A40F40030606284F885
:101390002060D2E720684068C007EFD0207E012897
:1013A000206801683DD021F080010160607E012845
:1013B0002068016838D021F040010160A07E01283A
:1013C0002068016833D021F020010160E07E01280F
:1013D000206801682ED041F010010160207F0128B3
:1013E0002068016829D021F008010160607F012890
:1013F0002068016824D021F004010160D4E90201D1
:101400000843D4E90412114308436168491E0843A4
:101410002168C86100206062012084F8200000205B
:1014200070BD41F08001C0E741F04001C5E741F0E7
:101430002001CAE721F01001CFE741F00801D4E70D
:1014400041F00401D9E7000010B586B0044614212C
:101450006846FEF75AFF17492068884227D1164888
:10146000C16941F00071C161C16901F0007105916C
:10147000416941F4003141614069694600F400303E
:1014800005904FF4C050009002200190002002907F
:101490000320039009200490C00600F0FDF900220B
:1014A0001146132000F03AFB132000F02BFB06B08E
:1014B00010BD0000006400400010024070477047FB
:1014C000704770477047000070B5044690F82000E0
:1014D000012804D0606A40F40020606218E0022015
:1014E00084F820002068016821F00101016000F00B
:1014F00099FA05460EE000BF00F094FA401B0A2856
:1015000008D9606A40F400306062052084F8200049
:10151000012070BD20684068C007EDD1606270BDD9
:101520007047704770477047704770477047016851
:101530000A6822F00E020A6001680A6822F00102BD
:101540000A6090F84020C36B012101FA02F25A6050
:1015500080F82110002180F820100846704710B54F
:1015600090F821100024022903D004218163012472
:1015700018E001680A6822F00E020A6001680A6831
:1015800022F001020A6090F84020C36B012101FAA9
:1015900002F25A6080F82110002180F82010416B7F
:1015A00001B18847204610BDF0B4C16B0D680168D9
:1015B0000C68066C042202FA06F32B420FD0630774
:1015C0000DD50B689B0603D40B6823F004030B6056
:1015D00090F840108A40C16B4A60C16A1BE0022348
:1015E00003FA06F72F424FF0000C4FF0010216D01D
:1015F000A70714D50C68A40605D40C6824F00A04C7
:101600000C6080F8212090F840108B40C16B4B603B
:1016100080F820C0816A002918D0F0BC0847082350
:10162000B3402B4212D0230710D50B6823F00E03D2
:101630000B6090F84010C36B02FA01F159608263AD
:1016400080F8212080F820C0016BE4E7F0BC7047EF
:1016500070B5040021D0022084F8210022681168AE
:1016600043F6F0708143D4E901031843D4E903350C
:101670002B43184363691843A3691843E36918436C
:10168000084310602046FFF717FC0020A0630121EB
:1016900084F8211084F8200070BD012070BD70B561
:1016A000044690F82000002501280CD0012084F881
:1016B000200094F821600020012E06D084F820003C
:1016C0000225284670BD022070BD022684F82160E4
:1016D000A0632068066826F0010606602046FFF732
:1016E000FBFBE06A00282068016802D041F00E018F
:1016F00006E041F00A0101602068016821F0040160
:1017000001602068016841F001010160D9E7000033
:1017100070B5044600F086F90546601C02D0044806
:101720000078044400F07EF9401BA042FAD370BD5B
:10173000040000202DE9F047054626480F46012603
:10174000017E01290FD00121814601762868DFF84A
:1017500088804CF25034012808D0A2462046FFF77A
:101760003DFCA0B130E00220BDE8F0872046FFF745
:1017700035FC00BBFFF7E6FB2046FFF72FFCD8F84F
:101780001010064621F00401C8F810101CE04FF0BC
:10179000FF3038606C6811E02046FFF7E5FB5046EB
:1017A000FFF71CFCD8F81010060021F00201C8F861
:1017B000101001D03C6007E004F50064D5E9010198
:1017C00000EBC120A042E7D8002189F8181030466C
:1017D000CAE70000C0010020002002400348016960
:1017E00041F08001016100207047000000200240AC
:1017F0002DE9F05F07461C4888460024017E154607
:101800001E46012909D00121814601764CF2503A49
:101810005046FFF7E3FB18B122E00220BDE8F09F3D
:10182000012F02D0022F00D00427D346DFF83CA0BE
:10183000220128463146FEF751FD81B208EB4400F3
:10184000FFF7A4FB5846FFF7C9FBDAF8102022F097
:101850000102CAF8102018B9641CE4B2BC42E7D3F4
:10186000002289F81820D9E7C0010020002002409A
:10187000064900200A69120607D5054A4A60054A4A
:101880004A600969090600D501207047002002401E
:1018900023016745AB89EFCD2DE9F84FDFF860B143
:1018A00000234FF0010C4FF0030A4FF00F090BF12A
:1018B000040E9DE00CFA03F6344022007ED04C6802
:1018C000022C01D0122C0ED1DC0800EB8408D8F8D1
:1018D00020405D07EF0E09FA07F5AC430D69BD40E6
:1018E0002543C8F8205007685D0091F804800AFA83
:1018F00005F408F00308A74308FA05F848EA0708C2
:10190000C0F800804F68012F05D0022F03D0112F9F
:1019100001D0122F11D18768D1F80C80A74308FAA3
:1019200005F848EA0708C0F808804768B7430E7909
:10193000C6F300169E403E434660C668A6438C68C8
:10194000AC403443C4604C68E40050D52D4CA569CC
:1019500045F00105A561A46923F0030504F0010425
:101960000094294C2E19B4689D072F0F09FA07F52A
:10197000AC43B0F1904F04D0244DA84203D10125CF
:101980000CE000250AE0224DA84201D1022505E025
:10199000204DA84201D1032500E00525BD40254387
:1019A000B560DBF800405D464E689443F60300D511
:1019B00014432C607546DEF8004000E017E04E68E6
:1019C0009443B60300D514432C600D4D08352C68A4
:1019D0004E689443F60200D514432C60084D0C3534
:1019E0002C684E689443B60200D514432C605B1CEF
:1019F0000A681446DA407FF45DAFBDE8F88F000056
:101A000000040140001002400000014000040048B2
:101A100000080048000C00480AB1816170478162EB
:101A200070470000014880687047000004000020F3
:101A300002488168027811448160704704000020E8
:101A4000074810B5016841F010010160032000F063
:101A500085F8002000F006F800F03EF8002010BDE8
:101A60000020024000B5014687B00022362000F079
:101A700055F8362000F046F81348C16941F01001CE
:101A8000C161C06905A900F010000690684600F029
:101A900013FA00F031FA0D494000B0FBF1F10D48A6
:101AA0000B4A491E0260416040F2E7320021C0E962
:101AB0000321816000F066FF10B1012007B000BD76
:101AC000044800F0BDFFF9E70010024040420F005B
:101AD0000010004070040020094808B5816941F0F9
:101AE00001018161816901F001010091C16941F049
:101AF0008051C161C06900F08050009008BD0000B5
:101B00000010024000F01F020121914040098000B6
:101B100000F1E020C0F8001170470000F0B40E4B57
:101B20001B680C46C3F30223C3F10705042D00D93B
:101B30000425191D072901D2002300E0DB1E012620
:101B400006FA05F1491E214099409E40761E164036
:101B50003143F0BC01F018BE0CED00E0064900F086
:101B6000070208684FF6FF03184040EA0220034AC4
:101B700010430860704700000CED00E00000FA051B
:101B80002DE9F84F05460068774CC0036FD5E06932
:101B90000026C00008D4E06940F08050E061E069B0
:101BA000012600F08050009070480168C90512D4E9
:101BB0000168804641F480710160FFF733FF0746FA
:101BC00005E000BFFFF72EFFC01B642835D8D8F80A
:101BD0000000C005F6D5206A10F4407053D0A988E3
:101BE00001F4407181424ED0206A4FF4803191FA65
:101BF000A1F2B2FA82F297005D4A4FF00108174451
:101C000020F44070C7F8008491FAA1F1B1FA81F193
:101C100002EB81010023C1F800342062C00732D0FA
:101C2000FFF700FF074641F2883A4FF0020907E04C
:101C3000FFF7F8FEC11B514502D90320BDE8F88F1C
:101C400099FAA9F1B1FA81F141F040014846B8EBA7
:101C5000511F01D121680CE090FAA0F1B1FA81F195
:101C600041F04001B0EB511F02D1216A01E015E0C3
:101C7000616A99FAA9F0B0FA80F000F01F0008FA42
:101C800000F21142D4D0206A696820F44070084301
:101C900020621EB1E06920F08050E0612878C00722
:101CA00005D0206BA96820F0030008432063287842
:101CB000800605D5206BE96820F0100008432063FA
:101CC0002868800305D56068296B20F480000843EC
:101CD00060602878400605D5206B296920F0200037
:101CE000084320632888000405D5206B696920F02B
:101CF0004000084320632888800505D56068E969AD
:101D000020F40000084360602878000605D5E06AEA
:101D1000A96920F4F8700843E0622888C00405D55A
:101D2000206B296A20F480700843206328684003F0
:101D300005D5206B696A20F4806008432063286819
:101D4000000305D5206BA96A20F4006008432063D6
:101D50002868C00205D5206BE96A20F400500843CA
:101D6000206300206AE7000000100240007000407D
:101D7000000042422DE9F0470F46050069D04A4E67
:101D8000306800F00700B84209D2306820F0070040
:101D900038433060306800F00700B84259D12878E5
:101DA000424C800705D56068A96820F0F000084320
:101DB00060602878C0073DD06968012001290DD0F6
:101DC000022923D05FF0020393FAA3F2B2FA82F25F
:101DD00042F02002520904D0226803E04FF400339D
:101DE000F2E7626A93FAA3F3B3FA83F303F01F03F3
:101DF000984002422DD0606820F0030008436060E4
:101E0000FFF710FE804641F288390CE04FF0007376
:101E1000DAE700BFFFF706FEA0EB0801494502D94B
:101E20000320BDE8F0876068696800F00C00B0EB43
:101E3000810FEFD1306800F00700B8420BD930684D
:101E400020F0070038433060306800F00700B842E7
:101E500001D00120E5E72878400705D56068E968EA
:101E600020F4E060084360602878000706D56068C9
:101E7000296920F4605040EAC100606000F06CF80D
:101E80006168F02292FAA2F201F0F001B2FA82F255
:101E9000D140074A515CC840064908600020FFF75E
:101EA000E1FD0020BDE700000020024000100240DC
:101EB000344D0008000000200F2202600C4A5368D5
:101EC00003F003034360536803F0F0038360536837
:101ED00003F4E063C36052684FF4E06303EAD202A4
:101EE00002610448006800F00700086070470000C5
:101EF0000010024000200240084809490068496873
:101F00004FF4E06292FAA2F201F4E061B2FA82F2D6
:101F1000D140044A515CC8407047000000000020D6
:101F200000100240444D000808480949006849680B
:101F30004FF4605292FAA2F201F46051B2FA82F2C6
:101F4000D140044A515CC8407047000000000020A6
:101F500000100240444D0008154B10B55A68154852
:101F600002F00C01042902D0082901D0401010BD54
:101F70004FF4701494FAA4F402F47011B4FA84F4D7
:101F8000E1400D4CDB6A615C0F2494FAA4F403F089
:101F90000F03B4FA84F4E340074C1034D203E35C3B
:101FA00003D5B0FBF3F0484310BD0448484310BDCF
:101FB000001002400024F4004C4D000800093D00D0
:101FC0002DE9F84F040071D02078FB4DC0074FF089
:101FD000010625D068687704C0F38100012807D086
:101FE0006868C0F3810002281BD16868C00318D557
:101FF00097FAA7F0B0FA80F040F02000400901D035
:10200000286800E0686A97FAA7F1B1FA81F101F057
:102010001F0106FA01F1084265D060680028D2D09D
:1020200061E06068B0F5803F0BD010B1B0F5A02F33
:1020300017D0286820F480302860286820F4802099
:1020400002E0286840F480302860E86AA16820F047
:102050000F000843E862606820B3FFF7E3FC8046A6
:102060000AE0286840F480202860EAE7FFF7DAFCFD
:10207000A0EB0800642872D897FAA7F0B0FA80F0B5
:1020800040F02000400901D0286800E0686A97FA13
:10209000A7F1B1FA81F101F01F0106FA01F108423E
:1020A000E4D020E0FFF7BEFC804607E0C7E000BFB9
:1020B000FFF7B8FCA0EB08006428DCD897FAA7F07B
:1020C000B0FA80F040F02000400901D0286800E01C
:1020D000686A97FAA7F1B1FA81F101F01F0106FAD7
:1020E00001F10842E4D12078DFF8D08280074FF078
:1020F000000A4FF0020759D568684FF0F80B10F04E
:102100000C0F07D06868C0F3810002281BD16868F3
:10211000C00318D497FAA7F0B0FA80F040F020007E
:10212000400901D0286800E0686A97FAA7F1B1FA7F
:1021300081F101F01F0106FA01F108422BD020695C
:1021400001287CD127E0206988B396FAA6F0B0FA7E
:1021500080F048F82060FFF765FC814606E055E115
:10216000FFF760FCA0EB0900022884D897FAA7F0DB
:10217000B0FA80F040F02000400901D0286800E06B
:10218000686A97FAA7F1B1FA81F101F01F0106FA26
:1021900001F10842E4D028689BFAABF26169B2FA17
:1021A00082F220F0F80091400843286025E0FFE724
:1021B00096FAA6F1B1FA81F148F821A0FFF732FCB6
:1021C000814605E0FFF72EFCA0EB09000228CCD8E1
:1021D00097FAA7F0B0FA80F040F02000400901D053
:1021E000286800E0686A97FAA7F1B1FA81F101F076
:1021F0001F0106FA01F10842E4D1207800076AD5F0
:10220000A069A0B396FAA6F0B0FA80F008EB8000BF
:10221000C0F88064FFF706FC814605E0FFF702FC8A
:10222000A0EB09000228A0D897FAA7F0B0FA80F036
:1022300040F06000B6EB501F02D128680CE077E157
:1022400097FAA7F0B0FA80F040F06000B7EB501FAB
:1022500001D1286A00E0686A97FAA7F1B1FA81F122
:1022600001F01F0106FA01F21042D7D033E0FFE778
:1022700096FAA6F0B0FA80F008EB8000C0F880A4CF
:10228000FFF7D0FB814605E0FFF7CCFBA0EB090090
:1022900002289CD897FAA7F0B0FA80F040F06000CE
:1022A000B6EB501F01D128680BE097FAA7F0B0FAFF
:1022B00080F040F06000B7EB501F01D1286A00E0C9
:1022C000686A97FAA7F1B1FA81F101F01F0106FAE5
:1022D00001F21042D8D12078400774D5E8694FF058
:1022E0000009C00009D4E86940F08050E861E8695D
:1022F0004FF0010900F08050009031480168C90595
:1023000012D4016841F480710160FFF78BFB8346B2
:1023100006E000BFFFF786FBA0EB0B00642875D832
:1023200027480068C005F5D5E06801280AD008B143
:10233000052811D0286A20F001002862286A20F0C0
:10234000040002E0286A40F001002862E068C8B397
:10235000FFF768FB83460DE0286A40F0040028621E
:10236000F0E700BFFFF75EFBA0EB0B0141F2883006
:1023700081424BD897FAA7F0B0FA80F040F04000C5
:10238000B6EB501F01D128680BE097FAA7F0B0FA1E
:1023900080F040F04000B7EB501F01D1286A00E008
:1023A000686A97FAA7F1B1FA81F101F01F0106FA04
:1023B00001F21042D6D035E0001002400000424247
:1023C0000070004000E034E0FFF72CFB834607E09C
:1023D000FFF728FBA0EB0B0141F28830814215D8B2
:1023E00097FAA7F0B0FA80F040F04000B6EB501F2B
:1023F00001D128680CE097FAA7F0B0FA80F040F01D
:102400004000B7EB501F02D1286A01E083E0686A00
:1024100097FAA7F1B1FA81F101F01F0106FA01F272
:102420001042D5D1B9F1000F03D0E86920F08050F7
:10243000E861E06980B36968C1F38101022977D05E
:102440004FF080714F00022809D091FAA1F0B0FA44
:1024500080F048F820A0FFF7E5FA04465EE0504619
:102460008A4691FAA1F1B1FA81F1C14648F82100FA
:10247000FFF7D8FA804605E0FFF7D4FAA0EB080092
:10248000022848D897FAA7F0B0FA80F040F0200070
:10249000400902D0286801E056E0686A97FAA7F17F
:1024A000B1FA81F101F01F0106FA01F10842E3D10E
:1024B000D4E908100843696821F47411084368607E
:1024C0009AFAAAF0B0FA80F049F82060FFF7AAFA69
:1024D000044604E0FFF7A6FA001B02281BD897FA6F
:1024E000A7F0B0FA80F040F02000400901D0286841
:1024F00000E0686A97FAA7F1B1FA81F101F01F01D3
:1025000006FA01F10842E5D01EE000BFFFF78AFAA3
:10251000001B022802D90320BDE8F88F97FAA7F024
:10252000B0FA80F040F02000400902D0286801E0B5
:102530000CE0686A97FAA7F1B1FA81F101F01F0186
:1025400006FA01F10842E1D10020E5E70120E3E7C6
:102550002DE9F041040005D00025A56294F85D0046
:1025600018B107E00120BDE8F08184F85C502046F6
:1025700000F04AF8022384F85D302068016821F0F9
:1025800040010160E0684FF4E066B04201D90021EB
:1025900001E04FF48051B0F5706F02D0B04200D02E
:1025A000A562276B012227B9B04201D9236300E05D
:1025B0002263D4E901031843D4E9043633431843B2
:1025C000238B03F400731843E3691843236A184309
:1025D000A36A184323681860636B606AA66918438E
:1025E0000427E36807EA1646334318430843216883
:1025F00048602068C16921F40061C161256684F8E2
:102600005D200020AFE7000010B586B0044614211D
:102610006846FDF77AFE1249206888421ED11148AB
:10262000C16941F40041C161C16901F400410591F2
:10263000416941F4802141614069694600F480208C
:102640000590382000900220019000200290032085
:102650000390062004900448FFF71EF906B010BD51
:10266000003C004000100240000400482DE9F05FEB
:10267000044690F85C0000260A9F994692460D4653
:102680004FF0010801280ED0012084F85C00FFF70C
:10269000C9F9834694F85D00616801280CD0B1F552
:1026A000827F07D102E00220BDE8F09FA16809B94E
:1026B000042801D00226F0E0002D79D0BAF1000FF5
:1026C000FBD0B9F1000FF8D094F85D00042802D0D7
:1026D000052084F85D0000202066C4F840A0A4F81E
:1026E0004690A4F84490A563A4F83E90A4F83C90CA
:1026F000E0642065E0684FF4E061884203D8B4F8F4
:102700004600012804D92068426822F4805203E080
:102710002068426842F48052426020680268520693
:1027200003D4026842F040020260E06888426068B8
:102730003FD910B1E08F012832D1216835F8020B62
:10274000C860E08F401EE0872AE000BFB8F1000FAC
:102750000DD0E08F58B120688168890707D535F81A
:10276000021BC160E08F401EE0874FF00008B4F804
:10277000460068B120688168C90709D0C0682AF896
:10278000020BB4F84600401EA4F846004FF00108C2
:10279000781C05D0FFF746F9A0EB0B00B84268D2D1
:1027A000E08F0028D2D1B4F846000028CED169E0ED
:1027B00072E010B1E08F01285DD1E08F012806D9C9
:1027C000216835F8020BC860E08F801E05E02068A4
:1027D00015F8011B0173E08F401EE0874BE000BF3E
:1027E000B8F1000F16D0E08FA0B12068816889078A
:1027F00010D5E18F012905D935F8021BC160E08FA2
:10280000801E04E015F8011B0173E08F401EE08775
:102810004FF00008B4F8460018B320688168C90773
:102820001FD0B4F84610012911D9C0682AF8020B4C
:10283000B4F84600801EA4F84600B4F8460001280B
:102840000DD82068416841F48051416007E0017B68
:102850000AF8011BB4F84600401EA4F846004FF0E9
:102860000108781C07D0FFF7DDF8A0EB0B00B84299
:1028700001D3032611E0E08F0028B1D1B4F846005F
:102880000028ADD15A463946204600F09AFF08B1DB
:1028900020202066206E00B10126012084F85D0012
:1028A000002084F85C003046FEE6704770477047B1
:1028B00030B590F83C20012A3AD0012280F83C2023
:1028C000CA688C6822F4407222434C6822F4806209
:1028D00022430C6822F4006222430C6922F48052E5
:1028E00022434C6922F4005222438C6A22F4804233
:1028F000224322F4004222430C8B22F4702242EA4B
:1029000004420C4D04680023AC420CD18D8C22F49F
:10291000700242EA0552CD6922F080722A43096AA8
:1029200022F000720A43626480F83C30002030BD1F
:10293000022030BD002C014030B590F83C20012A27
:102940001CD0012280F83C2003685A689C680C4D1A
:10295000AB4203D122F470054A682A4322F0700585
:102960000A6889682A4324F0800421435A60026877
:102970009160002180F83C10084630BD022030BD37
:10298000002C014010B5040003D094F83D0010B1B4
:1029900007E0012010BD002084F83C00204600F034
:1029A0000DF8022084F83D00211D206801F0ACF8EC
:1029B000012084F83D00002010BD000008B51C4A2D
:1029C00001681C48914207D1816941F4006181612D
:1029D000806900F400600CE0B1F1804F14D0164A19
:1029E000914219D1816941F400318161806900F41B
:1029F00000300022009011461920FFF78FF8BDE843
:102A000008401920FFF77EB8C16941F00101C1619A
:102A1000C06900F0010009E0084A914207D18169CC
:102A200041F480218161806900F48020009008BD1C
:102A3000002C0140001002400044014000480140C9
:102A40000168CA6842F00102CA600068016841F08A
:102A5000010101600020704770B5044690F83C0009
:102A6000012817D0012584F83C50022084F83D004D
:102A700022689068364E304020F47F4090600868AD
:102A8000502839D00DDC20285BD005DC98B3102805
:102A900043D153E0022070BD302855D040283CD1AE
:102AA00041E0602830D070280CD0B0F5805F03D0B2
:102AB000B0F5005F31D112E020688168244A70329D
:102AC000114016E0CB68D1E90121206801F063F8DC
:102AD00021688868304040F0770088601DE0CB684E
:102AE000D1E90121206801F056F82068816841F49D
:102AF0008041816011E01EE0CA684968206801F0E9
:102B0000BDF95021206806E0CA684968206801F0D4
:102B1000C6F96021206801F048F884F83D50002093
:102B200084F83C0070BDCA684968206801F0A6F9C5
:102B300040212068EFE700212068ECE710212068A1
:102B4000E9E720212068E6E730212068E3E700007C
:102B500088FFFEFF704770B50446006801694FF0BA
:102B60000005C943890715D4C168C943890711D431
:102B7000E91E0161012020772068806980072046D6
:102B800002D0FFF7E7FF04E000F0E2F8204600F093
:102B900090F9257720680169C943490717D4C168AE
:102BA000C943490713D46FF0040101610220207763
:102BB0002068806910F4407F204602D0FFF7CAFFEA
:102BC00004E000F0C5F8204600F073F9257720688E
:102BD0000169C943090716D4C168C943090712D45A
:102BE0006FF008010161042020772068C069800728
:102BF000204602D0FFF7AEFF04E000F0A9F820461F
:102C000000F057F9257720680169C943C90617D430
:102C1000C168C943C90613D46FF0100101610820CF
:102C200020772068C06910F4407F204602D0FFF76B
:102C300091FF04E000F08CF8204600F03AF9257787
:102C400020680169C943C90708D1C168C943C907D8
:102C500004D1891E0161204600F052F92068016903
:102C6000C943090609D4C168C943090605D46FF0F0
:102C7000800101612046FFF719FE20680169C94300
:102C8000C90509D4C168C943090605D46FF4807128
:102C900001612046FFF709FE20680169C943490622
:102CA00009D4C168C943490605D46FF040010161E8
:102CB000204600F02FF920680169C94389060BD42A
:102CC000C168C943890607D46FF02001016120461D
:102CD000BDE87040FFF7EBBD70BD000070B586B079
:102CE000044614216846FDF710FB256800231649A9
:102CF000022201244FF09040B5F1804F14D0134EC2
:102D0000B5420FD14D6945F400354D61496901F473
:102D10000031059180218DE80E00CDE9033469462C
:102D2000FEF7BAFD06B070BD4D6945F400354D6142
:102D30004969009201F4003105910321CDE9023186
:102D4000019204946946EBE70010024000480140FC
:102D5000704770B5044690F83C000D4601280ED02F
:102D6000012684F83C60022084F83D000C2A45D0FE
:102D700007DC5AB1042A1BD0082A78D12CE00220A3
:102D800070BD102A4ED0142A71D15DE0206800F089
:102D900015FF2068816941F008018161206881691F
:102DA00021F004018161206881692A69114311E0E1
:102DB000206800F047FF2068816941F4006181616B
:102DC0002068816921F480618161206881692A69B4
:102DD00041EA022181614AE0206800F073FF206827
:102DE000C16941F00801C1612068C16921F0040195
:102DF000C1612068C1692A69114311E0206800F0AF
:102E0000A1FF2068C16941F40061C1612068C16906
:102E100021F48061C1612068C1692A6941EA022107
:102E2000C16124E0206800F0C3FF2068416D41F0DB
:102E3000080141652068416D21F004014165206869
:102E4000416D2A69114311E0206800F0E3FF20681A
:102E5000416D41F4006141652068416D21F480615C
:102E600041652068416D2A6941EA0221416584F883
:102E70003D60002084F83C0070BD10B5040003D014
:102E800094F83D0010B107E0012010BD002084F847
:102E90003C00204600F00CF8022084F83D00211D83
:102EA000206800F031FE012084F83D00002010BDB4
:102EB0007047704710B504460068012200F060FEBC
:102EC0000B482168814208D00A48814205D00A484F
:102ED000814202D00948814203D1486C40F400404D
:102EE00048642068016841F001010160002010BDC4
:102EF000002C0140004001400044014000480140D6
:102F000000680349884201D1FEF792BD7047000076
:102F1000001000407047704710B5044690F86900F3
:102F200021280ED12068816809060AD5816821F020
:102F300080018160206E08B1FEF7F9FA204601F0A9
:102F4000C0F894F86A0022280ED1206881684906EA
:102F50000AD5816821F040018160606E08B1FEF7FA
:102F6000E6FA204601F092F8002010BD70470000FC
:102F700070B503680446D869196810F00F0508D1C8
:102F8000820606D58A0604D52046BDE8704001F0C9
:102F9000A1B89A68002D66D002F0010501F4907680
:102FA0002E4360D0C60707D0CE0505D501261E6288
:102FB000E36E43F00103E366830708D5D30706D029
:102FC000266802233362E36E43F00403E36643079B
:102FD00008D5D20706D0236804221A62E26E42F0B6
:102FE0000202E26602070AD501F020022A4306D057
:102FF000236808221A62E26E42F00802E266E26E7C
:10300000002A29D0800604D5880602D5204601F082
:1030100061F8E06E000703D42068806840061CD584
:10302000204601F033F820688168490611D581688F
:1030300021F040018160606E58B11C494163606EAF
:10304000FEF78DFA002807D0606E416BBDE8704036
:1030500008472046FFF78AFF70BD2046FFF786FF2E
:103060000020E06670BDC5020ED552020CD54FF4AB
:1030700080101862202084F8690084F86A002046D5
:10308000BDE87040FFF747BF020606D50A0604D523
:103090002046BDE8704001F0FFB84006E2D5480682
:1030A000E0D52046BDE8704000F0FEBFE73F0008D5
:1030B00010B5040003D094F8690010B107E00120B6
:1030C00010BD002084F86800204600F027F8242076
:1030D00084F869002068016821F001010160204640
:1030E00001F034F80128EBD0606A10B1204600F0FE
:1030F000E8FE2068416821F49041416020688168C1
:1031000021F02A0181602068016841F0010101601D
:103110002046BDE8104000F038BF0000F0B587B091
:10312000064614216846FDF7F0F82A4930688842BF
:103130004ED12948816941F480418161816901F45E
:1031400080410591416941F4802141614069002439
:1031500000F480200590C02000900220CDE90104F9
:10316000032003900720049069461C48FEF794FB57
:103170001C4D1B488027C5E90004C5E902472C61A6
:103180006C61AC612846EC61FEF762FA08B1FDF7AC
:10319000D8FE75666E62134D11484435143801C56A
:1031A000102091C50F4845F8104944306C61AC615E
:1031B000EC61FEF74DFA08B1FDF7C3FE356600225B
:1031C000114625206E62FEF7A9FC2520FEF79AFC29
:1031D00007B0F0BD00380140001002400004004874
:1031E00058000240E803002070B5044690F86A00D9
:1031F000202839D1A9B3A2B394F86800012833D0AC
:10320000012084F868006165A4F858200025E5666F
:10321000222084F86A00616E144813468862616E49
:103220001348C862616E13480863606E4563666D3B
:10323000216832462431606EFEF731FA84F8685016
:103240002068016841F4807101602068816841F064
:10325000010181602068816841F0400181600020A7
:1032600070BDFFE70120FBE70220F9E745400008B9
:1032700083400008FB3F0008704770477047FEE737
:10328000124810B5416986B041F40031416140698E
:103290004FF0904400F4003005904FF4C06000906F
:1032A0000120019002900320039069462046FEF71A
:1032B000F3FA012291022046FEF7AEFB01225102F1
:1032C0002046FEF7A9FB06B010BD0000001002402A
:1032D00002789FED2C0ADFED2C0A2C49552A27D1C4
:1032E0004278522A24D1428801EE102AB8EE411ABF
:1032F00021EE001A21EE201A81ED031A828801EED8
:10330000102AB8EE411A21EE001A21EE201A81EDA2
:10331000041AC2798379120212B21A4301EE102AFA
:10332000B8EEC11A21EE001A21EE201A81ED051A1D
:10333000C27A552A24D1027B532A21D130F80D2F8D
:1033400001EE102AB8EE411A21EE001A21EE201AE1
:1033500081ED001A428801EE102AB8EE411A21EEE2
:10336000001A21EE201A81ED011A808801EE100A60
:10337000B8EE411A21EE000A20EE200A81ED020A81
:10338000704700000000003800003443D8040020DB
:1033900010B5DFED0E0A9FED0E0A0E48FDF7F6FCA4
:1033A0000C48F2EE040A9FED0C0A3038FDF7EEFCF3
:1033B00008480A499C30FDF701FD08490548B43129
:1033C000BDE810403030FDF7F9BC000000002F448C
:1033D000CDCCCC3D080F0020CDCC4C3E5000002081
:1033E000F0EE400AC0ED020A91ED030AD1ED041A95
:1033F00090ED011A20EE200A90ED002AD0ED032A6C
:1034000001EE810AD1ED051A01EE820A91ED012A41
:10341000D0ED041A02EE610A91ED022A02EE620A70
:1034200080ED050A80ED001AC0ED010AC0ED031A17
:1034300080ED040A704700000F4810B50D49016087
:103440000621416000214FF440328160C0E903123F
:1034500041610176012242768176C176017741771A
:10346000FDF764FF002803D0BDE81040FDF769BDFB
:1034700010BD000000640040EC0100200D4808B5BC
:10348000416941F0010141614069002200F0010001
:10349000009011460E20FEF741FB0E20FEF732FB96
:1034A000002211460F20FEF739FBBDE808400F202F
:1034B000FEF728BB0010024030B587B014216846E3
:1034C000FCF723FF1648416941F4800141614169DD
:1034D00001F480010591416941F400314161416984
:1034E00001F400310591416941F480214161406955
:1034F0004FF4907400F48020A50505900122214628
:103500002846FEF789FA0120CDE90040002002900C
:103510000320039069462846FEF7BEF907B030BD88
:1035200000100240124810B5104901604FF482713A
:10353000416000214FF47062C0E902124FF4007242
:103540000161C0E905120822C0E907210723416291
:10355000C0E90A13C0E90C12FEF7FAFF002803D0F5
:10356000BDE81040FDF7EDBC10BD0000003C004080
:10357000140200200C4810B50A490160472141603F
:10358000002140F2E732C0E902120161416180216D
:103590008161FFF7F7F9002803D0BDE81040FDF77F
:1035A000D0BC10BD00440140F802002010B592B01C
:1035B0001C210BA8FCF7A9FE2C216846FCF7A5FEF0
:1035C0001F481E49002401604721C0E9011440F250
:1035D000E731C0E9031444618461FFF7D3F908B10E
:1035E000FDF7AFFC1648FFF748FC08B1FDF7A9FC52
:1035F0006020CDE90B040D940E940F9410940022DA
:103600000BA90F481194FFF7A4FB08B1FDF799FC33
:1036100000944FF40050CDE90440019402940394C7
:103620000694694606480A94FFF742F908B1FDF787
:1036300088FC0348FFF752FB12B010BD0048014060
:103640003803002010B588B000241848059406946B
:103650000394049400940194134902940160482156
:10366000C0E901144FF47A71C0E903144461846124
:10367000FFF788F908B1FDF764FC4FF48050039020
:1036800003A90A48FFF7E8F908B1FDF75AFC0094CE
:103690000194694605480294FFF74EF9002801D0CD
:1036A000FDF74FFC08B010BD002C0140780200204F
:1036B00010B58EB000240794089409940A940B94D2
:1036C0000C941C2168460D94FCF71FFE1D484FF01A
:1036D000804101604721C0E9011440F2E731C0E9AF
:1036E00003148461FFF74EF908B1FDF72AFC4FF48B
:1036F0008050079007A91348FFF7AEF908B1FDF70E
:1037000020FC1048FFF7B9FB08B1FDF71AFC0B9439
:103710000BA90C480D94FFF70FF908B1FDF711FC48
:103720006020CDE90004029404226946054804940F
:10373000FFF70FFB08B1FDF704FC0248FFF7CEFAD4
:103740000EB010BDB80200200D4810B50B49016045
:103750004FF461214160002181600C22C160C0E909
:1037600004128161C16101624162FFF7A1FC00287E
:1037700003D0BDE81040FDF7E4BB10BD00380140A8
:1037800078030020FEE770470907090E002806DAD3
:1037900000F00F0000F1E02080F8141D704700F1E8
:1037A000E02080F80014704730B4034C8466034C6A
:1037B000C46630BC01F0A2BAFD4C00080B4D0008F5
:1037C0007047F8B515460E460B4600920446002297
:1037D0004FF4C05100F02AF888B933460022802106
:1037E0002046009500F071F848B9334600224FF4A6
:1037F000C0612046009500F019F8002804D0206E22
:1038000040F0200020660320F8BD000001B582B022
:103810004FF47A700090012301AA02A90248FEF732
:1038200025FFBDF804000EBD140200202DE9F84369
:103830001D4617460E4604464FF4C068DDF820903A
:103840003CE0464505D127B9007B8DF800009DF886
:103850000000681C32D02DB1FEF7E4F8A0EB09009F
:10386000A8422BD32068416821F0E00141606068E4
:10387000B0F5827F0BD1A068B0F5004F02D0B0F553
:10388000806F04D12068016821F040010160A06AC6
:10389000B0F5005F09D12068016821F40051016092
:1038A0002068016841F400510160012084F85D0046
:1038B000002084F85C000320BDE8F883206881685C
:1038C0003140B942BDD10020F6E72DE9F0411D4657
:1038D00017460E460446DDF8188034E0681C32D0E6
:1038E0002DB1FEF79FF8A0EB0800A8422BD320686B
:1038F000416821F0E00141606068B0F5827F0BD142
:10390000A068B0F5004F02D0B0F5806F04D12068F8
:10391000016821F040010160A06AB0F5005F09D1A3
:103920002068016821F4005101602068016841F4B9
:1039300000510160012084F85D00002084F85C00E3
:103940000320BDE8F0812068806836EA000004D0DA
:103950000020B842C2D10020F3E70120F9E7704708
:1039600010B59FED271A04462DED068BB0EE60AA28
:10397000C0EE0A0A81EE200A00F0ECFDDFED21AA7C
:10398000B0EE408AB0EE6A0A00F03CFDB0EE009A5C
:10399000F7EE008A20EE090AF0EE689AB5EEC0AAAA
:1039A00040EE089A48EE089AF1EE10FA25D928EE72
:1039B000080AC0EE290AC4ED030A20EE890A84ED44
:1039C000040AB0EE680AC4ED050A18EE080AC4ED50
:1039D000008A20EE090AC0EE290AB0EE6A0AC4ED98
:1039E000010A00F00FFD20EE090A40EE488A48EE79
:1039F000088A88EEA90A84ED020ABDEC068B10BD88
:103A0000DB0F4940DB0F493F10B59CB028210DA8C2
:103A1000FCF77BFC142117A8FCF777FC34216846DF
:103A2000FCF773FC01200104CDE90D010F90022485
:103A3000119014944FF4E010CDE915100DA8FEF785
:103A4000BFFA0F20CDE9170400244FF48060CDE9C0
:103A50001940022117A81B94FEF78CF905480A9417
:103A60000090029408940B946846FEF789F81CB005
:103A700010BD0000011018001448016841F47001E5
:103A800001601348016841F0010101604168114A79
:103A9000114041600168104A11400160016821F441
:103AA00080210160416821F4FE014160C16A21F07A
:103AB0000F01C162016B094A11400163002181605D
:103AC0000249C003803908607047000088ED00E0BB
:103AD000001002400CC07FF8FFFFF6FECCFC00FF98
:103AE00010B50448FFF737F8BDE810400248FFF76B
:103AF00032B8000078020020F80200200148FFF7E9
:103B00002AB8000070040020F0B50268184B4FF08E
:103B10008047984201D0B84203D122F070044A682D
:103B20002243144C144D154E984207D0B84205D08C
:103B3000A04203D0A84201D0B04203D122F4407782
:103B4000CA683A434F6922F080023A4302608A68A9
:103B5000C2620A688262984205D0A04203D0A8429D
:103B600001D0B04201D10969016301214161F0BD79
:103B7000002C014000400140004401400048014049
:103B800010B50123046A8B409C430462036A8A4097
:103B90001343036210BD10B5846842EA032224F483
:103BA0007F440A432243826010BD826822F0700283
:103BB0000A4342F00701816070470000F0B5026AD5
:103BC00022F001020262056A43688269184C25F0FE
:103BD000020522400C6822F0030214438A68164E44
:103BE0002A43144D154FDFF858C0A84205D0B04203
:103BF00003D0B84201D0604506D122F0080ECA6851
:103C000042EA0E0222F00402A84205D0B04203D0DC
:103C1000B84201D0604505D14D6923F440731D437E
:103C20008B692B4343608461496841630262F0BD44
:103C30008FFFFEFF002C0140004001400044014086
:103C40000048014030B5026A22F010020262046AA4
:103C500042688369164D2B400D6823F4407343EA94
:103C6000052524F020038C6843EA0413114CA0427C
:103C700007D1CC6823F0800343EA041323F0400308
:103C800008E00D4CA04205D00C4CA04202D00C4CD8
:103C9000A04207D14C6922F4406242EA84028C6956
:103CA00042EA84024260856149688163036230BDF3
:103CB000FF8FFFFE002C0140004001400044014006
:103CC0000048014030B5026A22F480720262046A40
:103CD0004268C369164D2B400D6823F003031D4352
:103CE00024F400738C6843EA0423124CA04207D1E9
:103CF000CC6823F4006343EA042323F4806308E0E0
:103D00000D4CA04205D00D4CA04202D00C4CA0425C
:103D100007D14C6922F4405242EA04128C6942EA0B
:103D200004124260C5614968C163036230BD00008E
:103D30008FFFFEFF002C0140004001400044014085
:103D40000048014030B5026A22F480520262046ADF
:103D50004268C369114D24F400542B400D6823F4CC
:103D6000407343EA05238D6844EA05340C4DA842AC
:103D700008D00C4DA84205D00B4DA84202D00B4DE7
:103D8000A84204D14D6922F4804242EA8512426081
:103D9000C36149680164046230BD0000FF8FFFFE0B
:103DA000002C014000400140004401400048014017
:103DB00030B5026A22F480320262046A4268436DBE
:103DC0000F4D2B400D681D4324F400330C8943EA4A
:103DD00004430C4CA04208D00B4CA04205D00B4C25
:103DE000A04202D00A4CA04204D14C6922F4803295
:103DF00042EA04224260456549688165036230BD3C
:103E00008FFFFEFF002C01400040014000440140B4
:103E10000048014030B5026A22F480120262046A4E
:103E20004268436D104D24F400142B400D6843EAA2
:103E300005230D8944EA05540C4DA84208D00C4DC9
:103E4000A84205D00B4DA84202D00B4DA84204D188
:103E50004D6922F4802242EA852242604365496826
:103E6000C165046230BD0000FF8FFFFE002C0140E1
:103E700000400140004401400048014010B5036A81
:103E8000046A24F001040462846924F0F00444EA22
:103E9000021423F00A020A438461026210BD10B5C5
:103EA000036A23F0100303628369046A23F47043F6
:103EB00043EA023224F0A00343EA01118261016265
:103EC00010BD90F82410C90706D001684A68836ABB
:103ED00022F400321A434A6090F82410890706D56C
:103EE00001684A68C36A22F480321A434A6090F833
:103EF0002410490706D501684A68036B22F4802222
:103F00001A434A6090F82410090706D501684A68E8
:103F1000436B22F400421A434A6090F82410C90609
:103F200006D501688A68836B22F480521A438A603E
:103F300090F82410890606D501688A68C36B22F4BC
:103F400000521A438A6090F82410490611D501687E
:103F50004A68036C22F480121A434A60016CB1F57E
:103F6000801F06D101684A68436C22F4C0021A43DC
:103F70004A6090F82410090606D501684A68806CEA
:103F800022F4002202434A607047F8B50026044636
:103F9000C666FDF747FD0546206800686FF07E475E
:103FA000000708D52B4600224FF400112046009749
:103FB00000F0A4F960B92068006840070AD52B46D4
:103FC00000224FF480012046009700F097F908B1D5
:103FD0000320F8BD202084F8690084F86A0084F882
:103FE00068600020F8BD10B5406A0021A0F85A10A2
:103FF000A0F85210FEF7BAFF10BD70B5446A94F8ED
:1040000069000025212808D120688068000604D5B1
:10401000A4F85250204600F054F894F86A00222880
:1040200008D120688068400604D5A4F85A5020467C
:1040300000F02CF8E06E40F01000E0662046FEF73D
:1040400095FF70BD10B50146406A09680968890688
:1040500014D40021A0F85A1001680A6822F4807272
:104060000A6001688A6822F001028A6001688A6831
:1040700022F040028A60202180F86A10FFF7FCF8E5
:1040800010BD10B5406AFFF7F8F810BD01680A6866
:1040900022F490720A6001688A6822F001028A6044
:1040A000202180F86A10704710B501680A6822F074
:1040B00040020A60202180F86910FFF7DFF8002035
:1040C00010BD01680A6822F0C0020A60202180F851
:1040D0006910704710B5B0F85C2090F86A3001683C
:1040E000222B05D0886940F008008861022010BDAD
:1040F000898C8368B3F5805F01D103696BB111408E
:10410000426D531C43651170B0F85A10491E0904E2
:10411000090CA0F85A1007D015E0436D1140198022
:10412000416D891C4165EFE701680A6822F49072CD
:104130000A6001688A6822F001028A60202180F802
:104140006A10FFF799F8002010BD00002DE9F0413A
:10415000044610202369A268E6691A4363690021B6
:1041600033431A4323680D461E68444F3E401643AE
:104170001E6022685368E66823F44053334353605B
:10418000236AA2691A4323689E6826F430661643A0
:104190009E603B4B22689A4210D13A4B1B6B13F046
:1041A000030311D0012B05D0022B05D0032B0CD11A
:1041B00002200AE0042008E0082006E0324B9A4280
:1041C00002D0324B9A4200D10020E6694FF40043FE
:1041D0009E4226D109281DD2DFE800F00508121CF6
:1041E000151C1C1C1800FDF787FE01E0FDF79CFE66
:1041F0004100606801EB5001B1FBF0F081B20AE0D0
:1042000023496068F6E7FDF7A7FEF1E74FF4803138
:104210006068EFE7012521F00F00C1F34201084378
:104220001CE0092825D2DFE800F005080B24102443
:1042300024241C00FDF760FE09E0FDF775FE06E092
:104240001449606801EB50010EE0FDF785FE014660
:10425000606801EB5001B1FBF0F080B22168C860EA
:1042600008E0606803EB5001B1FBF0F080B2D06071
:1042700000E001252846BDE8F0810000F369FFEF6A
:104280000038014000100240004400400048004057
:104290000024F40000127A0090F86910212901D05E
:1042A00002207047B0F8521021B18168B1F5805FEB
:1042B0000BD00CE001680A6822F080020A600068F6
:1042C000016841F0400101600CE0016961B1C16C1D
:1042D0004A1CC26402680978A2F8281030F8521FFC
:1042E000491E018000207047C16C02680988C1F333
:1042F00008011185C16C891CC164EFE72DE9F0410B
:10430000984617460E460446069D1DE0681C1BD0C5
:104310002DB1FDF787FBA0EB0800A84214D9206857
:10432000016821F4D07101602068816821F00101E9
:104330008160202084F8690084F86A00002084F8F5
:1043400068000320BDE8F0812068C06936EA0000FB
:1043500004D00020B842D9D00020F3E70120F9E7CB
:1043600010B50448FEF704FEBDE81040014800F017
:1043700023B800007803002010B50068084988427F
:1043800002D10848FEF7A4FF16210648FBF7BDFF3F
:10439000BDE81040162203490348FEF725BF000080
:1043A00000380140B0040020780300200148FCF7E9
:1043B000BFBE0000EC01002010B504460068C169D2
:1043C000C943C90609D4102101622046FEF7A4FDA5
:1043D0002046BDE81040FFF7CFBF10BDFEE741000B
:1043E000080218BF04200A0E18BF40F001004FF069
:1043F0007F4232EA010108BF40F00200012808BFF5
:104400000520704710EE101A08B5444A6846B2EB12
:10441000410F28D94FF0E640B0EB410F94BF002088
:104420004FF0FF3000900098002861DB60EE000A3A
:1044300010F0010F45D010F0020FDFED391A9FED9B
:10444000391A00EEE11ADFED381A40EE811A21EE3A
:10445000A01AF0EE400A40EE010A08BFF1EE600A31
:10446000B0EE600A08BD314B21F0004293423CD9C6
:1044700011F0004FDFED2E0A20EE201ADFED2D0A9D
:1044800019BF31EE601A71EE200A31EE201A71EE7A
:10449000600ABDEEE01A11EE100A9FED271A00F037
:1044A000030000EEC10A9FED251A009000EEC10A3C
:1044B0009FED231A00EEC10A9FED221A00EEC10AF9
:1044C000B1E79FED211A9FED210A10F0020F00EED7
:1044D000810A9FED1F1A00EE801AB7EE000A00EE67
:1044E000810A18BFB1EE400A08BD00F005F99AE74D
:1044F00010EE100A4000B0F17F4F3CBFB7EE000A4B
:1045000008BD07D14FF0010000F0B0F9BDE8084048
:1045100000F0E2B8BDE8084000F0DAB8B61F927EBD
:10452000336D4C39DA82083CA0AA2ABE490E4946AE
:1045300083F9223F0000004B0000C93F00A0FD3975
:104540000020A2331A61342CB93AB2BACA9F2A3D6C
:10455000DDFFFFBE00B510EE101A2DED028B81B00D
:104560004D4A6846B2EB410F3CD94FF0E640B0EB04
:10457000410F94BF00204FF0FF3000900098B0EE44
:10458000408A00285FDB28EE080ADFED440A9FED31
:10459000441A00EE201ADFED430A40EE010A9FEDB7
:1045A000421A00EE201ADFED410A10F0010F40EE32
:1045B000010A9FED3F1A00EE201A61EE000AB0EEEC
:1045C000480A08EE200A02BF01B0BDEC028B00BD14
:1045D000BFEE001A01B0C1EE000ABDEC028BB0EED6
:1045E000600A00BD334B21F00042934228D911F0FC
:1045F000004FDFED310A20EE201ADFED300A19BF3F
:1046000031EE601A71EE200A31EE201A71EE600A66
:10461000BDEEE01A11EE100A9FED291A00F003001A
:1046200000EEC10A9FED271A009000EEC10A9FED2F
:10463000261A00EEC10A9FED251A00EEC10A9DE779
:1046400000F05AF89AE718EE100A4000B0F17F4FD8
:104650000DD218EE100AFFF7C2FE042808BF00F0C2
:1046600043F8B0EE480A01B0BDEC028B00BD09D1A1
:10467000012000F0FBF801B0BDEC028B5DF804EB0B
:1046800000F02AB801B0B0EE480ABDEC028B5DF82C
:1046900004EB00F01DB80000B61F927EBBE9223C7F
:1046A0000C6D063B8A76CE3CACB5593D35A1083E33
:1046B00029AAAA3E490E494683F9223F0000004B31
:1046C0000000C93F00A0FD390020A2331A61342C3C
:1046D00030EE000A70470000DFED020A80EEA00A0B
:1046E00070470000000000009FED020A20EE000A63
:1046F00070470000000000102DE9F0014FF07F42EC
:10470000B2EB410F9FBF4FF0FF310160BDE8F001F8
:1047100070474FF0004242EA0123C1F3C752783A92
:10472000551112F01F0C434CCCF120067C44C1F310
:10473000C752A2F178024FEA621204EB820254F8E7
:10474000254008BFD2E9015612D0556804FA0CF48E
:1047500025FA06F73C43976805FA0CF527FA06F8A0
:10476000D26807FA0CFCF24045EA08054CEA02065A
:10477000A4FB034CA5FB0352A6FB03631D449D420F
:1047800034BF012600261319334416B1934202D9CF
:1047900003E0934201D2012200E00022624402F1D0
:1047A000200C9206DC0C42EA443200EE102A5B0335
:1047B000DFED210AF8EEC01A00EE103A4FEA9C1C19
:1047C00011F0004FB8EE400AC0F800C020EE201AE9
:1047D00000EE105ADFED190AB8EE400A20EE200A6A
:1047E00071EE810A70EE800A10EE902A02F50062E6
:1047F0006FF30B0200EE902A70EEE11A31EEC11A4F
:10480000DFED101A30EE411A9FED0D0A20EE800AFE
:1048100001EE210A9FED0C1A00EE810A04BFBDE8EB
:10482000F0017047CCF180510160BDE8F001B1EEBC
:10483000400A704748060000000000360000802C47
:1048400022AAFD29DB0FC92F0000C92F02E008C8EA
:10485000121F08C1002AFAD170477047002001E0FA
:1048600001C1121F002AFBD17047000001490860F6
:1048700070470000B801002030EE201AD0ED001A79
:10488000F4EEC11AF1EE10FA02DCB0EE611A01E0AA
:1048900080ED001A30EEC00AB4EEC01AF1EE10FA44
:1048A00001D280ED000A704710B500F00BF86420CB
:1048B000FCF72EFFBDE810400148FCF705BE0000E4
:1048C000EC01002000B58BB0002001210390049082
:1048D000CDE90601CDE90810059000900190029005
:1048E00069460548FCF7ACFB69460348FCF7A8FBA2
:1048F0000028F9D10BB000BDEC01002038B504460A
:10490000002084E80700FCF7B3FF69462046FCF767
:1049100011FFFCF763FF38BD73B50D462DED020B9B
:1049200082B00022694602A8FCF780FBFCF7A0FFDA
:1049300000246E4605EB4401325D00230120FCF7A4
:1049400057FF641C042CF5DBFCF748FF06B0012080
:1049500070BD0000FDF774F8FFF756F8FEF7ACFDE8
:10496000FEF78CFDFEF7DEFDFEF766FDFEF702FEAC
:10497000FEF7EAFEFEF71AFEFEF764FEFEF798FE6B
:104980005A4C00252560FCF773FF594800686060A9
:104990000120A060FCF7B6FA4FF4FA70FCF7B8FEFD
:1049A000FEF76EFC00F0B4F9FFF77EFFFCF752F85B
:1049B000FCF722F94F48C08808B9FCF74BF8FCF720
:1049C000C7F9FBF7E7FEFEF7E3FC4B48FEF738F8C4
:1049D0004A48FEF735F84A48FEF732F84FF4967029
:1049E000FCF796FEFCF772F9FCF79CFA454E0122A3
:1049F00031463E48FFF782FF424F01220C373946CD
:104A00003A48FFF77BFFDFF8FCA001220AF1180A01
:104A100051463648FFF772FFDFF8E8B001220BF18C
:104A20002A0B59463148FFF769FFDFF8D880012289
:104A300008F1380841462D48FFF760FFDFF8C490C1
:104A4000012209F1460949462848FFF757FF2D4939
:104A5000012254312548FFF751FF2B4C31462348A2
:104A600094ED000AFFF758FF94ED010A39461F48FC
:104A7000FFF752FF94ED020A51461C48FFF74CFF26
:104A80002248594690ED000A1848FFF745FF94ED7B
:104A9000040A41461548FFF73FFF94ED050A4946D1
:104AA0001248FFF739FF174994ED060A54310F48B1
:104AB000FFF732FF164E40F2E7374FF080444FF4D5
:104AC0007A78307858B10128FBD1A7634046FCF7CB
:104AD0001FFEA5634FEA0800FCF71AFEF1E7A76383
:104AE0006420FCF715FEA5636420F5E7E0010020D3
:104AF00010000020C604002078020020F8020020E8
:104B00003803002090780008880E00201400002050
:104B100018000020B0EE601AF0EE401A00B571EEF9
:104B2000610AC0ED081A80ED051AC0ED0B0A90ED80
:104B3000152A01469FED700A31EE611AB5EEC02AC2
:104B4000B1EE411AF1EE10FA0ED0F5EEC00AF1EE18
:104B500010FA02DDF0EE601A01E0F0EE411AF4EE18
:104B6000C21AF1EE10FA7DDCD1ED161AF5EEC01A7C
:104B7000F1EE10FA0BD0F5EEC00AF1EE10FA01DDFD
:104B8000B0EE601AB4EEE11AF1EE10FA6AD3CA6D13
:104B900001F1380012B1012A41D08CE091ED001AE8
:104BA000B0EE402A21EE201A81ED0D1A91ED0E1A79
:104BB000D1ED011A01EEA01A81ED0E1A91ED0A1A3B
:104BC00070EEC10AC1ED0C0A91ED021A60EE810A85
:104BD000C1ED0F0AD1ED190AB8EE601AF0EE420AE3
:104BE000B0EE410AFFF748FE91ED0D0AD1ED0E0A35
:104BF00001F1400030EE200AD1ED0F0A30EE200A1C
:104C0000F0EE420A81ED100A91ED180AB8EE400A62
:104C1000FFF732FE91ED100A81ED110A4BE091EDA4
:104C20000A1A91ED002A70EEC11A61EE821AC1EDE6
:104C30000D1AD1ED011A61EEA01AC1ED0E1AF0EEB7
:104C4000001A41EE610A91ED091A70EE810A91EDA8
:104C5000021A60EE810AC1ED0F0AD1ED190AB8EE11
:104C6000601A00E043E0B0EE402AB0EE410AF0EEF8
:104C7000420AFFF701FE91ED0D0AD1ED0E0A01F196
:104C80004C0030EE200AD1ED0F0A30EE200A81ED03
:104C9000120AD1ED140A30EE800AF0EE420A81EDDC
:104CA000130A91ED180AB8EE400AFFF7E5FD91ED01
:104CB000130A81ED140A91ED0A0A81ED090A91EDBA
:104CC0000B0A81ED0A0A91ED070A81ED060A91EDC2
:104CD000080A81ED070A91ED040A81ED030A91EDBE
:104CE000050A81ED040AC86D10B191ED130A00BDEB
:104CF00091ED100A00BD00000000000000F15C0C06
:104D00008CE80E0080EC030A704780EC030A7047C1
:104D100006481021026811620068016841F0100124
:104D20000160162202490148FEF75EBA78030020AE
:104D3000B004002000000000000000000102030495
:104D4000060708090000000001020304020304052D
:104D5000060708090A0B0C0D0E0F101001020304C0
:104D600005060708090A0B0C0D0E0F1040874103BA
:104D70000F00100215001800000000006E83F9A259
:104D80002915444ED15727FCC0DD34F5999562DBD7
:104D90004190433CAB6351FEB84D00080000002039
:104DA000BC0100003C070008F44D0008BC010020D5
:104DB000C41400005C4800081113127A320172100A
:104DC000139078E208280F803FB285203FF4BF940B
:104DD000BE17A0B53E0C2908015E0B14803F0C09DC
:104DE00018308D0AD7A33B30E940E910A3A041A9B0
:044DF0000C09ACB44A
:040000050800018965
:00000001FF
